:020000040200F8
:10000000985B0122056F00026B100102F16E000285
:10001000F16E0002F16E0002F16E0002F16E00025C
:100020000000000000000000000000000970000255
:10003000F16E000200000000756F0002459E000294
:1000400009720002097200020972000209720002BC
:1000500009720002097200020972000209720002AC
:10006000097200020972000209720002097200029C
:10007000097200020972000209720002097200028C
:10008000097200020972000209720002097200027C
:10009000097200020972000209720002097200026C
:1000A000097200020972000209720002097200025C
:1000B000097200020972000209720002097200024C
:1000C000097200020972000209720002097200023C
:1000D000097200020972000209720002097200022C
:1000E000097200020972000209720002097200021C
:1000F000097200020972000209720002097200020C
:1001000009720002097200020972000209720002FB
:1001100009720002097200020972000209720002EB
:1001200009720002097200020972000209720002DB
:1001300009720002097200020972000209720002CB
:1001400009720002097200020972000209720002BB
:1001500009720002097200020972000209720002AB
:10016000097200020972000209720002097200029B
:10017000097200020972000209720002097200028B
:10018000097200020972000209720002097200027B
:10019000097200020972000209720002097200026B
:1001A000097200020972000209720002097200025B
:1001B000097200020972000209720002097200024B
:1001C0009FED0B7B41EC160B9FED0B5B26EE077B47
:1001D000BCEEC77BB8EE474B17EE101AA4EE456B8A
:1001E000FCEEC67B17EE900A704700BFAFF30080AD
:1001F000000000000000F03D000000000000F041A1
:10020000002902D0B0FBF1F0704708B14FF0FF3089
:1002100000F01EB80029F8D00246B0FBF1F000FB58
:1002200011217047002902D090FBF1F0704700289F
:10023000C8BF6FF00040B8BF4FF0004000F008B8F2
:100240000029F4D0024690FBF1F000FB1121704729
:10025000704700BF81F0004102E000BF83F000431F
:1002600030B54FEA41044FEA430594EA050F08BF51
:1002700090EA020F1FBF54EA000C55EA020C7FEA15
:10028000645C7FEA655C00F0E2804FEA5454D4EB92
:100290005555B8BF6D420CDD2C4480EA020281EA5C
:1002A000030382EA000083EA010180EA020281EA94
:1002B0000303362D88BF30BD11F0004F4FEA0131E6
:1002C0004FF4801C4CEA113102D0404261EB4101F5
:1002D00013F0004F4FEA03334CEA133302D052427B
:1002E00063EB430394EA050F00F0A780A4F1010437
:1002F000D5F1200E0DDB02FA0EFC22FA05F2801871
:1003000041F1000103FA0EF2801843FA05F3594156
:100310000EE0A5F120050EF1200E012A03FA0EFCD5
:1003200028BF4CF0020C43FA05F3C01851EBE371FF
:1003300001F0004507D54FF0000EDCF1000C7EEB1C
:1003400000006EEB0101B1F5801F1BD3B1F5001F5A
:100350000CD349085FEA30004FEA3C0C04F1010479
:100360004FEA445212F5800F80F09A80BCF1004FA2
:1003700008BF5FEA500C50F1000041EB045141EA24
:10038000050130BD5FEA4C0C404141EB0101013CED
:1003900028BFB1F5801FE9D291F0000F04BF0146DC
:1003A0000020B1FA81F308BF2033A3F10B03B3F1AE
:1003B00020020CDA0C3208DD02F1140CC2F10C023E
:1003C00001FA0CF021FA02F10CE002F11402D8BF9C
:1003D000C2F1200C01FA02F120FA0CFCDCBF41EA68
:1003E0000C019040E41AA2BF01EB0451294330BD37
:1003F0006FEA04041F3C1CDA0C340EDC04F1140414
:10040000C4F1200220FA04F001FA02F340EA0300EA
:1004100021FA04F345EA030130BDC4F10C04C4F130
:10042000200220FA02F001FA04F340EA0300294610
:1004300030BD21FA04F0294630BD94F0000F83F45A
:10044000801306BF81F480110134013D4EE77FEA3D
:10045000645C18BF7FEA655C29D094EA050F08BF89
:1004600090EA020F05D054EA000C04BF194610466A
:1004700030BD91EA030F1EBF0021002030BD5FEAAE
:10048000545C05D14000494128BF41F0004130BDD6
:1004900014F580043CBF01F5801130BD01F000452A
:1004A00045F0FE4141F470014FF0000030BD7FEA9D
:1004B000645C1ABF194610467FEA655C1CBF0B4698
:1004C000024650EA013406BF52EA033591EA030FAF
:1004D00041F4002130BD00BF90F0000F04BF0021A7
:1004E000704730B54FF4806404F132044FF00005DA
:1004F0004FF0000150E700BF90F0000F04BF002153
:10050000704730B54FF4806404F1320410F00045B8
:1005100048BF40424FF000013EE700BF42004FEAB3
:10052000E2014FEA31014FEA02701FBF12F07F4330
:1005300093F07F4F81F06051704732F07F4208BFE7
:10054000704793F07F4F04BF41F40021704730B5EE
:100550004FF4607401F0004521F000411CE700BF3A
:1005600050EA010208BF704730B54FF000050AE0BD
:1005700050EA010208BF704730B511F0004502D5BE
:10058000404261EB41014FF4806404F132045FEAC0
:10059000915C3FF4D8AE4FF003025FEADC0C18BF69
:1005A00003325FEADC0C18BF033202EBDC02C2F15B
:1005B000200300FA03FC20FA02F001FA03FE40EAED
:1005C0000E0021FA02F11444BDE600BF70B54FF0F1
:1005D000FF0C4CF4E06C1CEA11541DBF1CEA1355CF
:1005E00094EA0C0F95EA0C0F00F0DEF82C4481EA37
:1005F000030621EA4C5123EA4C5350EA013518BF57
:1006000052EA033541F4801143F4801338D0A0FB43
:1006100002CE4FF00005E1FB02E506F00042E0FBF0
:1006200003E54FF00006E1FB03569CF0000F18BFF6
:100630004EF0010EA4F1FF04B6F5007F64F540749E
:1006400004D25FEA4E0E6D4146EB060642EAC62131
:1006500041EA55514FEAC52040EA5E504FEACE2E9E
:10066000B4F1FD0C88BFBCF5E06F1ED8BEF1004FA1
:1006700008BF5FEA500E50F1000041EB045170BD1D
:1006800006F0004646EA010140EA020081EA030161
:10069000B4EB5C04C2BFD4EB0C0541EA045170BD5D
:1006A00041F480114FF0000E013C00F3AB8014F1D7
:1006B000360FDEBF002001F0004170BDC4F1000420
:1006C000203C35DA0C341BDC04F11404C4F12005A1
:1006D00000FA05F320FA04F001FA05F240EA0200FC
:1006E00001F0004221F0004110EBD37021FA04F632
:1006F00042EB06015EEA430E08BF20EAD37070BDEC
:10070000C4F10C04C4F1200500FA04F320FA05F04A
:1007100001FA04F240EA020001F0004110EBD3704C
:1007200041F100015EEA430E08BF20EAD37070BDBC
:10073000C4F1200500FA05F24EEA020E20FA04F395
:1007400001FA05F243EA020321FA04F001F0004144
:1007500021FA04F220EA020000EBD3705EEA430EB5
:1007600008BF20EAD37070BD94F0000F0FD101F0E4
:100770000046400041EB010111F4801F08BF013C1D
:10078000F7D041EA060195F0000F18BF704703F05B
:100790000046520043EB030313F4801F08BF013DE2
:1007A000F7D043EA0603704794EA0C0F0CEA13559E
:1007B00018BF95EA0C0F0CD050EA410618BF52EA58
:1007C0004306D1D181EA030101F000414FF000005E
:1007D00070BD50EA410606BF1046194652EA43066C
:1007E00019D094EA0C0F02D150EA013613D195EAE0
:1007F0000C0F05D152EA03361CBF104619460AD128
:1008000081EA030101F0004141F0FE4141F4700131
:100810004FF0000070BD41F0FE4141F4780170BD21
:1008200070B54FF0FF0C4CF4E06C1CEA11541DBF86
:100830001CEA135594EA0C0F95EA0C0F00F0A7F888
:10084000A4EB050481EA030E52EA03354FEA0131B5
:1008500000F088804FEA03334FF0805545EA1313C8
:1008600043EA12634FEA022245EA111545EA106590
:100870004FEA00260EF000419D4208BF964244F127
:10088000FD0404F5407402D25B084FEA3202B61A46
:1008900065EB03055B084FEA32024FF480104FF41A
:1008A000002CB6EB020E75EB030E22BFB61A75468E
:1008B00040EA0C005B084FEA3202B6EB020E75EB21
:1008C000030E22BFB61A754640EA5C005B084FEA89
:1008D0003202B6EB020E75EB030E22BFB61A754656
:1008E00040EA9C005B084FEA3202B6EB020E75EB61
:1008F000030E22BFB61A754640EADC0055EA060E22
:1009000018D04FEA051545EA16754FEA06164FEA64
:10091000C30343EA52734FEAC2025FEA1C1CC0D110
:1009200011F4801F0BD141EA00014FF000004FF09D
:10093000004CB6E711F4801F04BF01430020B4F15E
:10094000FD0C88BFBCF5E06F3FF6AFAEB5EB030C16
:1009500004BFB6EB020C5FEA500C50F1000041EB13
:10096000045170BD0EF0004E4EEA113114EB5C04E0
:10097000C2BFD4EB0C0541EA045170BD41F48011B3
:100980004FF0000E013C90E645EA060E8DE60CEABB
:10099000135594EA0C0F08BF95EA0C0F3FF43BAFD8
:1009A00094EA0C0F0AD150EA01347FF434AF95EA8F
:1009B0000C0F7FF425AF104619462CE795EA0C0F73
:1009C00006D152EA03353FF4FDAE1046194622E740
:1009D00050EA410618BF52EA43067FF4C5AE50EA1A
:1009E00041047FF40DAF52EA43057FF4EBAE12E70A
:1009F0004FF0FF3C06E000BF4FF0010C02E000BFEB
:100A00004FF0010C4DF804CD4FEA410C7FEA6C5CCD
:100A10004FEA430C18BF7FEA6C5C1BD001B050EA70
:100A2000410C0CBF52EA430C91EA030F02BF90EA5B
:100A3000020F0020704710F1000F91EA030F58BF1A
:100A4000994208BF90422CBFD8176FEAE37040F07C
:100A5000010070474FEA410C7FEA6C5C02D150EA1A
:100A6000013C07D14FEA430C7FEA6C5CD6D152EAD5
:100A7000033CD3D05DF8040B704700BF844610469A
:100A800062468C461946634600E000BF01B5FFF799
:100A9000B7FF002848BF10F1000F01BD4DF808ED69
:100AA000FFF7F4FF0CBF012000205DF808FB00BF3A
:100AB0004DF808EDFFF7EAFF34BF012000205DF894
:100AC00008FB00BF4DF808EDFFF7E0FF94BF0120E1
:100AD00000205DF808FB00BF4DF808EDFFF7CEFFE2
:100AE00094BF012000205DF808FB00BF4DF808ED21
:100AF000FFF7C4FF34BF012000205DF808FB00BFF2
:100B00004FEA410C7FEA6C5C02D150EA013C0AD109
:100B10004FEA430C7FEA6C5C02D152EA033C02D1FB
:100B20004FF0000070474FF0010070474FEA41025C
:100B300012F5001215D211D56FF47873B3EB62522F
:100B400012D94FEAC12343F0004343EA505311F056
:100B5000004F23FA02F018BF404270474FF00000E8
:100B6000704750EA013005D111F0004008BF6FF026
:100B7000004070474FF00000704700BF4A0011D29C
:100B800012F5001211D20DD56FF47873B3EB6252E7
:100B90000ED44FEAC12343F0004343EA505323FAF3
:100BA00002F070474FF00000704750EA013002D168
:100BB0004FF0FF3070474FF0000070474FEA41029E
:100BC000B2F1E04324BFB3F5001CDCF1FE5C0DD9AB
:100BD00001F0004C4FEAC0024CEA5070B2F1004FF5
:100BE00040EB830008BF20F00100704711F0804FF8
:100BF00021D113F13872BCBF01F00040704741F4BD
:100C000080114FEA5252C2F11802C2F1200C10FAC0
:100C10000CF320FA02F018BF40F001004FEAC123A4
:100C20004FEAD32303FA0CFC40EA0C0023FA02F348
:100C30004FEA4303CCE77FEA625307D150EA01331E
:100C40001EBF4FF0FE4040F44000704701F00040EE
:100C500040F0FE4040F40000704700BF80F00040CC
:100C600002E000BF81F0004142001FBF5FEA410384
:100C700092EA030F7FEA226C7FEA236C6AD04FEA84
:100C80001262D2EB1363C1BFD218414048404140C9
:100C9000B8BF5B42192B88BF704710F0004F40F47B
:100CA000000020F07F4018BF404211F0004F41F497
:100CB000000121F07F4118BF494292EA030F3FD063
:100CC000A2F1010241FA03FC10EB0C00C3F1200376
:100CD00001FA03F100F0004302D5494260EB400005
:100CE000B0F5000F13D3B0F1807F06D340084FEA70
:100CF000310102F10102FE2A51D2B1F1004F40EB65
:100D0000C25008BF20F0010040EA030070474900CC
:100D100040EB0000013A28BFB0F5000FEDD2B0FA69
:100D200080FCACF1080CB2EB0C0200FA0CF0AABF8C
:100D300000EBC25052421843BCBFD040184370472A
:100D400092F0000F81F4000106BF80F40000013230
:100D5000013BB5E74FEA41037FEA226C18BF7FEA07
:100D6000236C21D092EA030F04D092F0000F08BF49
:100D70000846704790EA010F1CBF0020704712F030
:100D80007F4F04D1400028BF40F00040704712F16F
:100D900000723CBF00F50000704700F0004343F0D4
:100DA000FE4040F4000070477FEA226216BF08460A
:100DB0007FEA23630146420206BF5FEA412390EACD
:100DC000010F40F4800070474FF0000304E000BFC3
:100DD00010F0004348BF40425FEA000C08BF704774
:100DE00043F0964301464FF000001CE050EA010238
:100DF00008BF70474FF000030AE000BF50EA01024D
:100E000008BF704711F0004302D5404261EB410139
:100E10005FEA010C02BF84460146002043F0B6435E
:100E200008BFA3F18053A3F50003BCFA8CF2083A83
:100E3000A3EBC25310DB01FA02FC634400FA02FC8C
:100E4000C2F12002BCF1004F20FA02F243EB020093
:100E500008BF20F00100704702F1200201FA02FCF5
:100E6000C2F1200250EA4C0021FA02F243EB0200E8
:100E700008BF20EADC7070474FF0FF3C06E000BF7F
:100E80004FF0010C02E000BF4FF0010C4DF804CD13
:100E90004FEA40024FEA41037FEA226C18BF7FEA23
:100EA000236C11D001B052EA530C18BF90EA010F25
:100EB00058BFB2EB030088BFC81738BF6FEAE170B4
:100EC00018BF40F0010070477FEA226C02D15FEA50
:100ED000402C05D17FEA236CE4D15FEA412CE1D0BC
:100EE0005DF8040B704700BF844608466146FFE783
:100EF0000FB5FFF7C9FF002848BF10F1000F0FBD65
:100F00004DF808EDFFF7F4FF0CBF012000205DF85D
:100F100008FB00BF4DF808EDFFF7EAFF34BF0120E2
:100F200000205DF808FB00BF4DF808EDFFF7E0FF7B
:100F300094BF012000205DF808FB00BF4DF808EDCC
:100F4000FFF7D2FF94BF012000205DF808FB00BF2F
:100F50004DF808EDFFF7C8FF34BF012000205DF811
:100F600008FB00BF4FEA40024FEA41037FEA226CD0
:100F700002D15FEA402C08D17FEA236C02D15FEAFC
:100F8000412C02D14FF0000070474FF00100704734
:100F90007BB972B90029BEBF00204FF0004106E0C6
:100FA00008BF00281CBF6FF000414FF0FF30FFF773
:100FB0004FB9ADF1080C6DE904CE002909DB002B17
:100FC0001ADB00F07FF8DDF804E0DDE9022304B06D
:100FD0007047404261EB4101002B1BDB00F072F8CF
:100FE000DDF804E0DDE9022304B0404261EB410199
:100FF000524263EB43037047524263EB430300F0FA
:1010000061F8DDF804E0DDE9022304B0404261EB61
:1010100041017047524263EB430300F053F8DDF89F
:1010200004E0DDE9022304B0524263EB430370475E
:1010300053B94AB9002908BF00281CBF4FF0FF313F
:101040004FF0FF30FFF704B9ADF1080C6DE904CEA5
:1010500000F038F8DDF804E0DDE9022304B0704761
:1010600010F8012B11F8013B012A28BF9A42F7D052
:10107000D01A7047034611F8012B03F8012B002A00
:10108000F9D17047034613F8012B002AFBD1181A37
:1010900001387047024608B50B4643EC172BB5EEF6
:1010A000C07BF1EE10FA03D4BDE80840FFF788B822
:1010B000B1EE477B51EC170BFFF782F8404261EB32
:1010C000410108BD2DE9F04786468C460846089E3A
:1010D000154674461946002B40F0C1808542B2FA8D
:1010E00082F245D94AB1C2F1200300FA02FC9540D0
:1010F00094402EFA03F343EA0C0C4FEA154EA8B2C3
:10110000230CBCFBFEF80EFB18CC08FB00F943EAED
:101110000C43994528D9EB1808F1FF3704D29945BB
:1011200002D9A8F102072B44A3EB0903A4B2B3FB35
:10113000FEFC0EFB1C330CFB00F044EA0344A0420F
:1011400014D92C190CF1FF3304D2A04202D9ACF10E
:1011500002032C44241A43EA07401EB1D440002362
:1011600034607360BDE8F0874746DDE76346F1E72A
:1011700092BB431B01214FEA154EAFB2200CB3FBCB
:10118000FEFC0EFB1C330CFB07F840EA03439845BA
:1011900061D9EB180CF1FF3004D2984502D9ACF1BB
:1011A00002002B44A3EB0803A4B2B3FBFEFC0EFB2E
:1011B0001C330CFB07F744EA0344A7424DD92C1912
:1011C0000CF1FF3304D2A74202D9ACF102032C4444
:1011D000E41B43EA0040C0E7C2F12003954094407D
:1011E00020FA03F12EFA03F34FEA154E9040AFB206
:1011F0000343B1FBFEFC0EFB1C10190C0CFB07F8A3
:1012000041EA0041884522D969180CF1FF3004D227
:10121000884502D9ACF102002944A1EB08019BB238
:10122000B1FBFEFC0EFB1C110CFB07F743EA01436C
:101230009F420ED9EB180CF1FF3104D29F4202D924
:10124000ACF102012B44DB1B41EA004193E760460D
:10125000E3E76146F7E76046A4E76346B8E7834201
:1012600006D916B9002108467CE7C6E900E0F9E78F
:10127000B3FA83F78FB9834201D3724508D8BEEB26
:10128000020460EB030301209C461EB9002169E7BC
:101290003846FAE7C6E9004CF8E7C7F1200CBB4036
:1012A0000EFA07F522FA0CF42EFA0CF1BA401C43A0
:1012B00020FA0CF3B8404FEA144901431FFA84FEA8
:1012C000B3FBF9F809FB18300B0C08FB0EFA43EAE4
:1012D00000439A4540D9E31808F1FF3004D29A45FB
:1012E00002D9A8F102002344A3EB0A0389B2B3FB9D
:1012F000F9F809FB183308FB0EFE41EA03418E455D
:101300002CD9611808F1FF3304D28E4502D9A8F117
:101310000203214443EA0040A1EB0E01A0FB029826
:101320004145CE46434602D306D14D4504D201384D
:10133000B9EB020E68EB0403002EA7D0B5EB0E024A
:1013400061EB030101FA0CFC22FA07F3F9404CEAC5
:101350000303C6E9003199E74046C5E74346D9E7AC
:101360002DE9F04704468846174688B011F0FEFB89
:101370000A220023FFF75CFEB8F1010F06460D4676
:1013800007D102460B46204627490EF029FE0020D1
:1013900011E07F6825483946FFF762FE70B1394693
:1013A0002348FFF75DFE48B120463A4621490EF03A
:1013B00033FE6FF0040008B0BDE8F087304618A394
:1013C000D3E900232946FFF7E3FD06460D46104604
:1013D0001946194A0023FFF7DBFD80460F461046E9
:1013E00019464EF660220023FFF7D2FD8246894659
:1013F000104619464FF47A720023FFF7C9FDCDE974
:1014000002A9CDE90623CDE9040132462B46204648
:10141000CDE9008709490EF0E3FDB8E7AFF300809E
:10142000005C2605000000004C5F01025D5F0102C8
:10143000605F0102695F010280EE3600815F010298
:101440002DE9F84398468468089D1746D0F8209007
:1014500090ED044B0E4690ED066B07F027FEE31C63
:10146000B8F1000F04F1020408BF1C4620FA08F08E
:1014700006EB4403B3FBF0F307EE903AB8EE675B7C
:1014800035EE043BB7EE002B33EE063B3C4482EED8
:10149000037BB4FBF0F4BCEEC77B07EE904A36EE5C
:1014A000046B85ED007AB8EE677B36EE055B37EEB0
:1014B000047B87EE056B9FED0C7B26EE077BFCEE35
:1014C000C77B17EE900AA0EB09024845A9EB000381
:1014D00088BF1346B3FBF9F3C5E90108F61B2F617A
:1014E000EE606B61BDE8F883000000000000594029
:1014F000A0F101000028FBD1704700BF00000000F0
:101500002DE9F84F0022814688462DED028B19F80F
:101510000230511C202B00F09F81A3F10900042808
:1015200040F29A812B2B0D4633D02D2B36D0184606
:10153000042440F02003692B32D06E2B5FD00022B0
:101540004FF00A0A964694461346114614F4006674
:101550006AD040F02007A7F1610BBBF1050F63D8FB
:10156000573FFFB2BA4540F3F28044F08006E005F1
:10157000B6B267D5F40506F4007078D5002F18BF11
:101580004CF0010C00B9013219F805003446013560
:10159000DCE7042419F80100951CCAE74424F9E7A4
:1015A0009FEDAF8BB44B13F8011B49B119F805201F
:1015B000681C42F020028A4225D0B04A93422FD1C3
:1015C000B4EE488BF1EE10FA09D019F80530282B4B
:1015D00005D1013519F805300135292B15D16306E0
:1015E00001D5B1EE488BB8F1000F02D04D44C8F8D8
:1015F0000050B0EE480BBDEC028BBDE8F88F9FEDBC
:101600009A8B9F4BCFE70546CDE723F02002413A66
:10161000192ADFD9A3F13002092ADBD95F2BD9D0EF
:1016200000259FED938BDEE7A0F13007FFB2574511
:101630002CDA44F0800614F48070B6B29AD1BAF174
:101640000A0F06D0BEF10F0F94DD44F4C076B6B297
:1016500090E7BEF1100F8DDD44F4C076042FB6B2D2
:1016600088D9052F4FF0020C08BF074682E700B16A
:10167000013AAAFB0334FB180AFB014444F10001C0
:1016800053EA010080D00EF1010E7DE7FE2F5ED1FE
:10169000A70558D52006C3D5002E40F0998053EAFF
:1016A000010005F1FF3500F0D480200540F1B58040
:1016B0003632B1F5800FC0F09480724FB1F5000F53
:1016C00080F09480BA42C0F291804CEA030308464D
:1016D00003F00306032E04D003F00606062E40F0A6
:1016E0008E80043341F10000B0F5000FC0F0878018
:1016F0000132B2F5806F80F2A98000234FF480118F
:1017000002F2FF3221F480111E4641EA025747ECF3
:10171000186BB0EE480B0DF03DFC0138022804D8E0
:10172000594B222211F02EFF1A50B0EE480B0DF04B
:1017300031FC013802283FF652AF534B222211F000
:1017400021FF1A504BE744F40076B6B21CE740F094
:10175000200004F08007782809D147B153EA010A34
:1017600005D144F400664FF0100AB6B20CE7002F22
:101770003FF456AF76B39200702686428FD119F8A7
:1017800005006E1C2B2804D02D2825D144F480643C
:10179000A4B219F80600A0F13006092E3FF67FAF7B
:1017A000AE1C354640F2D34A00264FF00A0B564590
:1017B000DCBF30380BFB060619F805000135A0F137
:1017C0003007092FF3D9670548BF7642324466E7F0
:1017D0002E20D0E76526D0E7A0F13007092FE0D909
:1017E0005DE7DB1802F1FF32494162E75E0803F072
:1017F0000103013246EAC176490833435EE7B2F598
:10180000806F23DA9B08B0F5800F4FEA900143EA1E
:101810008073BFF475AF002276E70EEB020010F57F
:10182000A27F10DDB0F59B7F10DA03F0010040EAE3
:101830000C0001308008181841F1000100F028F870
:10184000B0EE408B71E79FED0A8B6EE79FED048B46
:101850006BE79FED078BC2E60A4658E6AFF30080C0
:10186000000000000000F07F000000000000F87F92
:1018700000000000000000007A9901027D99010239
:101880007799010202FCFFFF140000000000000035
:101890002DE9FF47804616460F46002900F0A2803A
:1018A000B1FA81F4341B002E04F10A04C0F2A280C4
:1018B00030460DF053FA044430460DF055FAA4EBCF
:1018C00006090546694630460DF076FAA9EB050390
:1018D0006A4640467D33394611F077FCA64282467F
:1018E0000D4600F38380B9F13F0F00F381804FF084
:1018F000FF33A9F12000C9F1200103FA00F003FA37
:1019000009F223FA01F103FA09F3024328EA030377
:101910000A4327EA020213430CBF01200020002DD6
:1019200000F08A80B5FA85F3E31A40F2FE7203F202
:101930003E43934200F38980002B23EAE376D4BF31
:1019400001223246121BA2F23341A2F23447A2F224
:101950005344C1F1200C2AFA01F325FA04F4C7F12B
:10196000200E05FA0CFC25FA01F105FA0EFE43EAF9
:101970000C03A2F2544CA2F2544223432AFA07F475
:1019800025FA0CFC44EA0E0444EA0C04C7F1200CCE
:1019900014F0010F54D0A8B14FF0FF3000FA02F25A
:1019A00000FA07F4144320FA0CF2B840144303F091
:1019B00001022AEA000A25EA04054AEA020A5AEA6A
:1019C000050A3DD0013341F10002C2F3130253EA8C
:1019D000020138D0184642EA065141EC100B04B01F
:1019E000BDE8F087B0FA80F420345BE7012096E789
:1019F000002094E7C6F1000948460DF0B5F9241A15
:101A000048460DF0B1F9A61B0546694648462E44E6
:101A10000DF044FA6A46404606F17C03394611F05F
:101A2000D4FB82460D46404639460DF0ADF981455E
:101A30008CBF0020012072E7BAFA8AF3203373E7E3
:101A4000C1F31302C6E70136C4E79FED010BC6E7F9
:101A5000000000000000F07F10EE902A764922F08E
:101A600000438B4217D975498B4203D805D110EE3C
:101A7000103A13B130EE000B7047002A9FED500B67
:101A800004DD9FED517B37EE000B70479FED507BDF
:101A900037EE400B70476A498B4212D8A1F1DE71D4
:101AA0008B420BD8B7EE006B9FED4B7B30EE077B84
:101AB000B4EEC67BF1EE10FA00F381804FF0FF33F5
:101AC00015E06049B0EEC07B8B424FD8A1F55021A4
:101AD000B7EE006B8B4241D837EE075B002335EE43
:101AE000465BB0EE006B37EE067B85EE070B591CAC
:101AF00020EE005B9FED3A7B9FED3B4B25EE056BA7
:101B00009FED3B3B06EE074B9FED3B7B04EE067BD8
:101B10009FED3B4B07EE064B9FED3B7B04EE067BB8
:101B20009FED3B4B07EE064B9FED3B7B16EE073BD5
:101B30009FED3B7B13EE067B9FED3B3B17EE063B99
:101B40009FED3B7B13EE067B27EE067B04EE057BC9
:101B500027EE007B1FD130EE470B704737EE465B18
:101B6000012337EE066B85EE060BC0E736498B4244
:101B70000BD2B7EE085B0223B7EE006B37EE454B96
:101B800007EE056B84EE060BB1E7BFEE006B032397
:101B900086EE070BABE72D49002A2D4801EBC30168
:101BA00000EBC30393ED006B37EE467B37EE407BD3
:101BB00091ED000B30EE470BB8BFB1EE400B704714
:101BC000075C143326A6913C182D4454FB21F93FA1
:101BD000182D4454FB21F9BF9C7500883CE4377EE6
:101BE00011DA22E33AAD903FEB0D76244B7BA93F0F
:101BF0009AFDDE522DDEAD3F513DD0A0660DB13FC6
:101C00006E204CC5CD45B73FFF8300922449C23FAB
:101C10000D5555555555D53F2F6C6A2C44B4A2BF70
:101C20006D9A74AFF2B0B33F711623FEC671BC3F1C
:101C3000C4EB98999999C93FFFFF0F440000F07FCA
:101C4000FFFFDB3FFFFFF23F00800340884D0102B2
:101C5000684D01020000000011EE101AB0EE407B4A
:101C6000F8B511EE905A4B426F4F25F000420B43EE
:101C700042EAD373BB420DD810EE10CA17EE906A39
:101C8000CCF1000026F0004340EA0C0043EAD0709B
:101C9000B84204D937EE017BB0EE470BF8BD05F131
:101CA000404000F58010084303D1BDE8F840FFF73D
:101CB000D3BEAC1753EA0C0C04F0020444EAD67409
:101CC00011D1022C08D0032CE6D19FED3D7B9FED76
:101CD0003E6B37EE467BDFE79FED3D7B9FED3A6B3A
:101CE00037EE067BD8E7114307D1002E02DA9FEDCD
:101CF0003A7BECE79FED3A7BF0E7BA4223D193427F
:101D000015D1022C9FED307B0BD0032C0CD0012C75
:101D100002D09FED356BE3E79FED356B36EE477BE9
:101D2000BAE79FED356BDBE79FED356BF6E7022CED
:101D3000D2D0032CC9D0012C9FED337B9FED346BA7
:101D400007FE067BA8E7BB42CFD09B1AB3F1747F96
:101D50004FEA235212DB9FED227B9FED2F6B37EE74
:101D6000067B012C1AD0022C21D0002C94D09FEDA0
:101D70002C6B37EE467B9FED166BAAE7002D01DA40
:101D80003C3208DB87EE010BB0EEC00BFFF764FEC0
:101D9000B0EE407BE5E79FED1E7BE2E717EE901A81
:101DA00053EC172B01F1004343EC172B74E79FED25
:101DB0001C6B37EE467B9FED066BAFE7AFF3008001
:101DC000182D4454FB2109C059F3F8C21F6EA50118
:101DD000182D4454FB210940182D4454FB21F9BF10
:101DE000182D4454FB21F93F182D4454FB21E93FA1
:101DF000182D4454FB21E9BFD221337F7CD9024006
:101E0000D221337F7CD902C0000000000000008096
:101E10000000000000000000075C143326A6913C7F
:101E2000075C143326A6A13C0000F07F00000000F0
:101E30007FB58DED000B019B214A23F000439342B7
:101E400006D89FED1D1B07B05DF804EB00F014BA37
:101E50001C4A934204D907B05DF804EB00F0F4B9D2
:101E600002A800F031F800F0030001280BD002288E
:101E700012D0C0B99DED041B9DED020B00F0FCF9E2
:101E800007B05DF804FB9DED041B9DED020B00F017
:101E9000DFFCB1EE400BF3E79DED041B9DED020B63
:101EA00000F0EAF9F5E79DED041B9DED020B012022
:101EB00000F0CEFCE4E700BF0000000000000000DE
:101EC000FB21E93FFFFFEF7FF0B510EE907A964BD4
:101ED00089B0064627F00041994207D80022002326
:101EE00080ED000BC0E9022300201BE08F4B9942DC
:101EF0003BD8A3F51B23002F9FED7B7BA3F5F0635D
:101F000019DD994230EE470B0ED09FED796B30EE24
:101F1000467B012030EE470B86ED007B30EE460B12
:101F200086ED020B09B0F0BD9FED737B9FED746BE6
:101F300030EE470BEBE7994230EE070B0ED09FEDEA
:101F40006C6B30EE067B4FF0FF3030EE470B86EDCA
:101F5000007B30EE060B86ED020BE3E79FED667B20
:101F60009FED676B30EE070BEBE7714B99426BD837
:101F7000B6EE007BB0EEC00B9FED636B00EE067B10
:101F8000FDEEC77BB8EEE75B17EE900A9FED567B40
:101F90001F2805EE470B9FED567B25EE077B30EEA5
:101FA000476B05DC421E634B53F822308B4208D14D
:101FB00016EE903A0A15C3F30A53C3EB1153102BD4
:101FC00002DC86ED006B1AE09FED4B4B25EE044BD7
:101FD00030EE446B30EE467B37EE447B9FED484B52
:101FE00015EE047B36EE474B14EE903AC3F30A53DA
:101FF000D31A312B17DCB0EE460B86ED004B96ED75
:10200000006B002F30EE460B30EE470B86ED020BD7
:1020100088DAB1EE466BB1EE400B86ED006B86EDD3
:10202000020B40427EE79FED3A7B25EE077B36EEC2
:10203000470B36EE406B36EE477B9FED376B15EE68
:10204000067B30EE476BBCE73B4B994206D930EE3E
:10205000400B80ED020B80ED000B45E70A1510EEFA
:10206000103A08A8A2F216421C46A1EB0255032121
:1020700045EC174BBDEEC76B9FED295BB8EEC66B09
:1020800037EE467B8DED026B27EE057BBDEEC76B11
:10209000B8EEC66B37EE467B8DED046B27EE057B05
:1020A0008DED067B30ED027B0B460139B5EE407BB2
:1020B000F1EE10FAF6D0214902A801910221009117
:1020C000314600F041F9002FBFF62CAF96ED007BB2
:1020D000B1EE477B86ED007B96ED027BB1EE477B50
:1020E00086ED027B9DE700BF00004054FB21F93FD5
:1020F0003163621A61B4D03D0000601A61B4D03D12
:102100007370032E8A19A33B83C8C96D305FE43F07
:102110000000002E8A19A33BC14920259A837B39F0
:102120000000000000007041FB21E93F7BD9024024
:10213000FB21394138570102FFFFEF7FB8570102F9
:102140007FB58DED000B019B234A23F000439342A2
:1021500007D800209FED1E1B07B05DF804EB00F0D0
:1021600077BB1E4A934204D907B05DF804EB00F038
:102170006BB802A8FFF7A8FE00F0030001280CD0FE
:10218000022811D0D0B901209DED041B9DED020B5A
:1021900000F05EFB07B05DF804FB9DED041B9DEDB8
:1021A000020B00F069F8F5E79DED041B9DED020BB5
:1021B000012000F04DFBB1EE400BEBE79DED041B61
:1021C0009DED020B00F058F8F5E700BFAFF300807B
:1021D0000000000000000000FB21E93FFFFFEF7F4F
:1021E0007FB58DED000B019B154A23F00043934210
:1021F00007D801209FED101B07B05DF804EB00F03D
:102200007FBB104A934204D907B05DF804EB00F09D
:102210001BB802A8FFF758FE400000F002009DED39
:10222000041BC0F101009DED020B00F069FB07B03B
:102230005DF804FBAFF30080000000000000000028
:10224000FB21E93FFFFFEF7F08B52DED028BB0EEDC
:10225000408B0CF09FFE20B938EE080BBDEC028BD2
:1022600008BD9FED037B87EE070BF7E7AFF3008018
:102270000000000000000000B0EE407BB7EE000B55
:1022800017EE901A21F00041B1F1795F39D327EEB2
:10229000075B2B4B994227EE017BB6EE006B9FED5F
:1022A0001C3B9FED1D4B25EE066B05EE034B9FED92
:1022B0001C3B14EE053B9FED1C4B03EE054B9FEDC5
:1022C0001C3B14EE053B9FED1C4B03EE054B24EE2F
:1022D000054B14EE057B04D836EE477B30EE470BFA
:1022E0007047184B99420DD80022A1F5001343EC1A
:1022F000152B36EE456B30EE450B36EE476B30EE68
:10230000460B7047B5EE025BF3E700BFAFF300800A
:10231000D43888BEE9FAA8BDC4B1B4BD9EEE213E52
:10232000AD529C804F7E923E9015CB19A001FA3E93
:102330007751C1166CC1563F4C5555555555A53F63
:102340003233D33F0000E93F2DE9F04F2DED068BEE
:10235000ADF5137D12F1140F9A460F46BE4B6FF088
:102360001705A2990AF1FF3BA39E0DF1680E53F8E1
:102370002190A6BFD31E18210023019009EB0B0466
:10238000A8BF93FBF1F303FB0555A3EB0B009FEDF7
:10239000AC6B154406EB800C0022A2420EDD1AAA9B
:1023A0000DF5D47E002402EBCA024C4525DCDDF895
:1023B00004C0104600219FEDA27B15E0D04209D455
:1023C0005CF8221007EE901AB8EEE77B0132AEEC13
:1023D000027BE2E7B0EE467BF8E7BCEC025B90EDF7
:1023E000006B013105EE067B5945A0F10800F4DDD4
:1023F00001340832AEEC027BD7E706AA06EB830372
:102400004C4602EB890202939FED8F9B9FED90ABB0
:102410000392E3006AAA2146049392AB02EBC40242
:1024200003EBC40313ED280B06AB18460029A2F1F9
:10243000080249DC2846059300F07AFBB4EE007BE5
:10244000B0EE408B20EE077BBBFE477B002D059B4B
:10245000B2EE006B07EE468BFDEEC87B17EE908A5E
:10246000B8EEE77B38EE478B40DD611E06AAC5F16A
:10247000180052F8216046FA00F290448240B61AE1
:1024800006AA42F82160C5F117021641002E3CDD74
:10249000002108F101086FF07F4E08468C4267DC8E
:1024A000002D04DD012D7ED0022D00F08680022E4D
:1024B0002BD1B7EE000B30EE488B30B3284600F03E
:1024C00037FB38EE408B20E020EE097B0139BDEE72
:1024D000C77BB8EEC77B07EE4A0BBDEEC00BA0EC86
:1024E000010A92ED000B37EE000B9FE705D1621E4B
:1024F00006A951F82260F615C8E7B6EE007BB4EEE7
:10250000C78BF1EE10FA31DA0026B5EE408BF1EE12
:1025100010FA40F0A580621E00214A4554DA0029D5
:102520006DD0013C06AB183D53F82430002BF8D099
:10253000B7EE000B284600F0FBFA621C6AA9D30034
:1025400001EBC20122469FED406B002A80F2B2806F
:102550002246002AC0F2D0806AA9DFF800C100201C
:1025600001EBC205A11A9FED367BBAE002268FE788
:102570009C465CF8042B58B97AB10131C2F18072E3
:102580008C424CF8042C0CDDDCF8002003F1080C24
:10259000AEEB02024CF8042C0122013163461046D6
:1025A0007CE701207CE7621E06AB53F82230C3F3C0
:1025B000160306A941F8223079E7621E06AB53F8EC
:1025C0002230C3F31503F4E706AB53F82230013A87
:1025D0001943A2E7013352F8041D0029FAD0049AE6
:1025E00004EB0A011AAE601C02F51272234406EBDA
:1025F000C1016A44983A834204DA1C4609E7039A07
:102600000123E8E7029C019E54F8204007EE904A1F
:1026100004940024B8EEE77BA1EC027B9FED087BDD
:102620008C465C4503DD0130A2EC027BE3E7B6ECAF
:10263000025B3CED026B013405EE067BF1E700BF67
:102640000000000000000000000000000000703EDC
:102650000000000000007041C0580102A84D0102B6
:10266000B0EE480B684200F063FA9FED736BB4EE76
:10267000C60BF1EE10FA17DB06AA18359FED707B3A
:1026800020EE077BBDEEC77BB8EEC75B05EE460BC1
:10269000BDEEC00B10EE103A42F82430013417EEB4
:1026A000103A42F8243043E7BDEEC00B06AA10EE04
:1026B000103AF6E706A850F82200013A07EE900A11
:1026C0000190B8EEE77B27EE007B20EE060B21EDB4
:1026D000027B3AE7BCEC025BB5EC026B013005EE25
:1026E000067B484501DC8142F4DA42A8013A00EB5E
:1026F000C10181ED007B2CE7A29A022A0ADC002AA4
:102700002DDC46D008F007000DF5137DBDEC068BDF
:10271000BDE8F08FA29A032AF4D142A9A3F10802DE
:1027200020460A4411460028A1F1080152DC214646
:102730000129A2F108025DDC42AA9FED437B13440C
:10274000012C67DC9DED425B9DED446B002E67D153
:1027500087ED005B87ED026B87ED047BD2E742AA31
:102760009FED396B13442246002A24DA4EB3B1EEB2
:10277000467B44AA012387ED007B9DED427B37EE2B
:10278000467B9C4220DA0EB1B1EE477B87ED027B9F
:10279000B8E742AA9FED2C7B1344002C05DA0EB15A
:1027A000B1EE477B87ED007BACE733ED026B013C7C
:1027B00037EE067BF1E733ED027B013A36EE076B2D
:1027C000D2E7B0EE467BD4E7B2EC026B013337EED2
:1027D000067BD6E791ED007B91ED025B013837EE89
:1027E000056B37EE467B81ED006B37EE057B81EDA7
:1027F000027B98E792ED007B92ED025B013937EEA8
:10280000056B37EE467B82ED006B37EE057B82ED84
:10281000027B8DE733ED026B013C37EE067B8FE7E1
:10282000B1EE455BB1EE466BB1EE477B87ED005BE9
:1028300087ED026B90E700BF0000000000007041D0
:10284000000000000000703E0000000000000000DA
:10285000B0EE407B17EE903A23F00043B3F1795F7E
:1028600001D200F0F5B920EE005B9FED176B9FEDF4
:10287000183B20EE054B15EE063B9FED176B03EE64
:10288000056B9FED173B16EE053B9FED176B03EEB7
:10289000056B40B99FED163B15EE063B03EE047B3E
:1028A000B0EE470B704724EE066BB6EE003B11EE20
:1028B000036B16EE051B9FED106B04EE461B30EE0E
:1028C000410B7047AFF300807CD5CF5A3AD9E53D34
:1028D000EB9C2B8AE6E55A3E7DFEB157E31DC73ED1
:1028E000D561C119A0012A3FA6F810111111813F2D
:1028F000495555555555C53F495555555555C5BF6C
:1029000010EE903A884923F000428A4210B533D83D
:10291000FDEEC07B17EE901A002942D1431C10EE49
:10292000104A2343134306D1B7EE006BB0EEC07BD1
:1029300086EE070B10BD0128FCD030EE017BBFEE08
:10294000006B53EC172B86EE074B0A46B7EE006B75
:1029500043EC152B35EE400B31EE400B53EC142BB2
:102960000A4643EC172B05EE076B00EE076B06EEED
:10297000047BB0EE470BDDE76C498A4211D9002B8E
:102980009FED497BBCBFB1EE400BB1EE411B37EE72
:10299000407B9FED470B30EE410B9FED471B30EE28
:1029A000070B20EE006B61498A429FED455B9FED6E
:1029B000464B26EE067B20EE063B07EE054B9FEDD1
:1029C000445B9FED452B04EE075B9FED454B05EE09
:1029D000074B9FED455B04EE075B9FED454B05EE16
:1029E000074B9FED455B07EE025B9FED452B05EE28
:1029F000072B9FED455B02EE075B9FED452B05EE38
:102A0000072B9FED455B02EE075BB0EE457BB0EE1A
:102A1000415B04EE067B07EE035B9FED417B05EE19
:102A2000061B03EE071B30EE016B1DD907EE900A63
:102A300026EE064B9B17B8EEE77B03F00203C3F1CB
:102A4000010336EE076B84EE065B35EE416B30EE2C
:102A5000466B36EE066B37EE466B07EE903AB8EEF5
:102A6000E70B26EE000B65E701281AD0BFEE007BCE
:102A700051EC160B87EE065B0020B7EE006B41ECC5
:102A8000140B34EE400B31EE401B53EC152B024679
:102A900043EC172B04EE076B01EE076B06EE057B8C
:102AA00067E7B0EE460B45E7182D4454FB21E93F9C
:102AB000075C143326A6813C0000000000000000E3
:102AC000D47ABF74702AFB3EE9A7F0320FB8123FE8
:102AD00068108D1AF726303F735360DBCB75F3BE59
:102AE0001583E0FEC8DB573F93846EE9E326823FFF
:102AF000FE41B31BBAA1AB3FA69237A0887E143F1C
:102B00000165F2F2D844433F280356C9226D6D3F58
:102B100037D60684F464963F7AFE10111111C13F36
:102B2000635555555555D53FFFFF2F3E2794E53F3B
:102B300010EE902AC2F30A53114610B4C3B922F022
:102B4000004210EE103A1A4318D02B4C9FED267B12
:102B5000A04220EE070B10EE902AC2F30A53114652
:102B6000A3F136030DDAD00F5DF8044B00F048B83E
:102B700040F2FF72934204D130EE000B5DF8044B3B
:102B800070474CF25032904204DDC80F5DF8044BA0
:102B900000F04AB8184440F2FE739842F5DC002871
:102BA0000ADD21F0FF4121F4E00153EC102B41EA52
:102BB000005343EC102BE1E710F1350F01DAC80F99
:102BC000D2E721F0FF41363021F4E00153EC102B25
:102BD0009FED077B41EA005343EC102B20EE070BDF
:102BE000CCE700BFAFF300800000000000005043BE
:102BF000000000000000903CB03CFFFF000000001F
:102C00009FED050B9FED067B002800FE077B27EE5E
:102C1000000B7047AFF300800000000000001000C0
:102C200000000000000010809FED050B9FED067B6B
:102C3000002800FE077B27EE000B7047AFF30080F3
:102C4000FFFFFFFFFFFFEF7FFFFFFFFFFFFFEFFF34
:102C50009FED076BB7EE007B82B037EE067B8DED04
:102C6000007BDDE9002302B0704700BFAFF30080B6
:102C7000000000000000100070B5ADF50E7D0020D2
:102C800001A901F0FDF8044620B101463C480CF0D2
:102C90005FFD19E001461023019806AA0CF0EEFF33
:102CA000044610B101463748F1E79DF81F30012B6B
:102CB00005D142F24133BDF824209A4208D032486F
:102CC0000CF046FD6FF0150420460DF50E7D70BD2D
:102CD0009DF82630089E9B070AD52C482C4B81680E
:102CE00098474FF0FF314FF0FF300FF056FDF8E7F7
:102CF00031464FF480500AF093FE054618B931462C
:102D000024480CF025FD33462A46002101980CF09A
:102D1000B5FF044610B101461F48B8E701464FF41D
:102D200004720AA810F015F91C4BCDE903440B936B
:102D30001B4B1C490C931C4B02AA0D9301230AA8A0
:102D40008DF80C3003AB0594CDE98B5604F0A8FC4C
:102D5000044610B10146154899E702981449843099
:102D600004F070FC014628B912480CF0F1FC6FF039
:102D70000104A9E72246029804F04EFDA4E700BF33
:102D80002F5C0102515C01026F5C0102000B00220A
:102D900011200302865C0102A35C010201150102FD
:102DA0002B1501020B5D01023F150102C65C0102F9
:102DB000E45C0102E95C01027FB50BAB0593039370
:102DC000054B0222029300231846CDE9003300F0A0
:102DD000D3FD07B05DF804FB165D01022DE9F04F4D
:102DE00091B0009302F004030293C2F3C2030E46B3
:102DF000013381070546DDF868800392059340F0B2
:102E0000BC81041D30B1072E09D86FF01B0011B032
:102E1000BDE8F08F06F007063444C6F10806009BB3
:102E20004FF000094FF0040A591E4FF0FF334F4690
:102E30000193CB465346CDF810900DB10098206019
:102E40000598002800F3EB809948009A824203D34A
:102E500098488242C0F0E380039AA4EB050E9207E3
:102E60004FEA9E0000F106810F2F00F2B480002D82
:102E700000F0088107F140020DEB020C019A0CF8FA
:102E8000200C0CF8102C049801300490EAE07A2809
:102E900060D84B2810D847285CD829282FD8252857
:102EA00055D057D8A0F12302D2F1000C4CEB020C04
:102EB000202818BFE34675E04C382E284AD8DFE8B2
:102EC00000F07149494949494949494949494C49E9
:102ED000494949494949495A494C4C5A5A5A714CED
:102EE0006E497149184C18494983804C49494C49ED
:102EF000800000204FF0000B4FF0040A39E001225F
:102F0000A0F12A0C5FFA8CFC02FA0CFC1CEA0E0FF2
:102F100048D11CF062502ED11CEA020B42D0013C79
:102F20005444B4FBFAF40AFB04F4002D61D0A3EB83
:102F3000050CA444B4453FF668AF002868D1042BC3
:102F400047D158F8043B2360042304342AE0019A53
:102F5000013A01924FF0000B24E011F8010C6C28AB
:102F600034D1002011F8023C83466C2BC4D14FF0C1
:102F7000080A5346D3E708F1070828F00708073482
:102F800024F00704F8E802AB35B106982044B042BB
:102F90003FF63BAFC4E900AB4FF0000B08344FF0F5
:102FA000080A534611F8010F002878D0BBF1000F32
:102FB0007FF46DAF2528F5D14FF0010B019B013354
:102FC00001934FF0040AECE7584693E7002083464C
:102FD000A5E7082B02D06FF0150018E708F10708E5
:102FE00028F00708B8EC027B84ED007B0823083446
:102FF000D8E768B9042B02D108F10408A4E7082B2C
:10300000E9D108F1070828F0070808F10808EDE7FA
:1030100005980138059058F8040B00900DE7039AC5
:10302000900720D54FF0010CA4EB050E4FEA9E004F
:10303000BEF5007FCFD20F2FCDD8F5B107F14002FA
:103040000DEB020E019AC0B20EF8200C0EF8102CF7
:10305000BCF1000F3FF417AF60F07F000EF8200CBA
:1030600009F101090137C5F108024FF6DA7E04348F
:10307000069297E74FF0000CDAE7BCF1000F01D0A1
:103080000136EFE7029A0236002AEBD10098CDE92B
:103090000631FDF7F7FFDDE906310644E2E7631B81
:1030A000B3F5806F97D23DB9A6F10804E018AEE6FB
:1030B000D035010290990102029A9B0828602B707A
:1030C0009DF81030C2B1EB7085F80290B9F1000F95
:1030D00005D008A8C5F1010C7A1C013A0ED14FF0B9
:1030E000000AC5F101030DF1200801930DF1300B29
:1030F000574511D1601B8AE66B70E5E710F8013B7C
:103100001906EAD50CEB040EB64503F07F033FF633
:103110007CAE04F8013BE0E7B9F1000F03D098F969
:103120000020002A17DB029BD3B11AF80B2004F809
:10313000012B0022019B18191044B0423FF665AEE6
:1031400098F80000009904F8010B204603920FF054
:10315000D9FE039A14440AF1010A08F10108C7E7ED
:1031600098F8002055F822300093029B009845F80B
:103170002230FDF787FF421CDCE76FF00D0046E6CA
:103180002DE9F04F9BB00993249B0446C3F3C00381
:103190001746894690F802B00B9341B945780078FC
:1031A0000BEB800020444D4516D8A0EB0409E378D2
:1031B0000A93BBF1000F02D0249BDD0715D40A9BB4
:1031C000002B37D11FB149462046099AB8474E46D1
:1031D00030461BB0BDE8F08F461C3046FDF752FF6D
:1031E0000130304409F10109DDE722786368079274
:1031F0000893079B92000C9204EB8305002F40F08C
:10320000E880A84600274E4605EB0B09C84520D0AC
:1032100018F8013B54F82300FDF734FF259B0130DB
:1032200033B1269B9F423EBF259B23F817000137F1
:103230000644EBE7249B9807C4D523781D460793E3
:103240009B000C93636804EB85050893002F58D10D
:103250004E46249B5D4413F0050F0CBF4FF0020A4D
:103260004FF0010A0A9BDFF878B205EB4309249B73
:1032700003F0020307934D45AAD015F8021B15F879
:10328000013C54F82380D84502D3924B984519D37A
:103290000B9B23B308980CF030FA00B38E480368F8
:1032A00013F0060F0CD0089B049103938B4B01463F
:1032B0000293002302221846CDE90033FFF77CFD7C
:1032C000023ED8E70B9B23B108980CF016FA0028B1
:1032D000E4D1249BD90705D4A6EB0A06CBE7079BCC
:1032E000002BC8D04046FDF7CDFE259B3BB1269B69
:1032F0009F423FBF259A431C22F8173001370644EE
:10330000B9E7BBF1000F69D0249B13F0040868D023
:10331000D8464FF0000A16A85A4629460FF0F2FD8B
:103320000A9B5D445B000E930A9B05EB43030D93E0
:10333000249B03F002030F930D9BAB4253D100215A
:10334000249E637816F0020F03EB0A004FEA58023E
:1033500018BF0A4616F0010FC0B205D116F0040FCF
:10336000314614BF414600216070A170E2702046D2
:10337000099A0C990893B847061EFFF629AF079BD8
:1033800041462370089B099A63700A9B84F802B037
:10339000E37016A8B847B0F10008C0F297800C9B04
:1033A000A9EB0B01C91A0E9B2846099AC91AB847FE
:1033B0000028C0F28D80B04408EB00064FF00008F2
:1033C0000DF1480BC2455AD80021099A0846B84762
:1033D000FEE6DA464FF0000812A89DE7D846DA4626
:1033E0009EE7C2469CE715F8021B3D4B15F8016CA1
:1033F00054F826209A4202D3364B9A421AD30B9B9A
:1034000023B108980CF079F9002895D10F9BE3B906
:1034100008F1680308F101020DEB03001AAB08F193
:10342000020853FA82F200F8101C5FFA88F802F8DA
:10343000106C81E70B9B2BB108980CF05EF900280B
:103440007FF47AAF249BDA070AD50AF168030AF100
:1034500001020DEB030A0AF8206C5FFA82FA6BE7AF
:10346000249B5B077FF568AF08F1680308F1010250
:103470000DEB030808F8106C5FFA82F85CE718F8A7
:103480000B30259D54F823908DF8473035B1269B9D
:10349000984536BF2B46002533F818500121099A6C
:1034A0000DF14700B847002812DB064425B948460D
:1034B000FDF7E8FD451CADB229464846099AB847D4
:1034C000002805DB064408F101087BE746467FE655
:1034D00006467DE690990102A00A0022165D0102CF
:1034E000D0350102014B1860704700BF5005002223
:1034F00070B50446044E4518AC4200D170BD336827
:1035000014F8010B9847F7E75005002280B50546EF
:103510000E461746984609F07FFD034610F032F834
:103520000446DFF81890424649F8003039463046E4
:10353000A84754F8090003F007FD00BF1000000081
:10354000074B084A1A600022074B1A604FF46022AA
:10355000064B5A61BFF34F8FBFF36F8F704700BFA9
:103560006C35002200127A006835002200ED00E080
:103570002DE9F84F814630480F460CF03BFA0646DD
:1035800070B92E4C0546A0464FF0010ADFF8B0B0E6
:103590005C4507D3B9F1000F02D04FF0010AFDB925
:1035A000BDE8F88F237B83B12368DB680BB120462D
:1035B0009847636883F806A023681B6943B963686A
:1035C0000422204619680CF048FA01361034DFE76F
:1035D000204698470028F2D00AFA06F31D43F4E784
:1035E000A94695FAA5F4B4FA84F40AFA04F326017C
:1035F00008EB04146FEA030B25EA0305237B63B190
:1036000058F806301B698BB946447368042220467B
:10361000196809EA0B090CF020FA002DE1D11FB15D
:10362000642000210FF0B9F84D46B8E720469847CE
:103630000028F2D1E8E700BF78350022503F0102B0
:10364000603F010208B5034608462BB1044A1360E7
:1036500000F0FEFB002008BD6FF01500FBE700BF87
:10366000540500220023124A10B51370114A4FF47A
:103670007A711360104A11481360FFF7E3FF00F0FE
:103680009FF80F4B0F491C46CA1A0F3212090F310F
:103690008B4202F1010294BF10460120013800D193
:1036A00010BD1A1B5968121101320A711033F5E767
:1036B000F84900227035002274350022E5F9000235
:1036C000503F0102603F010270B50B4D297841B9AE
:1036D0000120FFF74DFF094C094EB44202D30123EC
:1036E0002B7070BD63685B791BB1236820469B68B3
:1036F00098471034F1E700BFF8490022503F01021B
:10370000603F0102014B1868704700BF743500220A
:1037100010B5044606480CF06DF93CB1054BD3E8F2
:10372000EF1F0139C3E8E21F002AF8D110BD00BF26
:1037300070350022743500222DE9F041164B054604
:103740001B689847154CDFF85880A860444501D3A2
:10375000BDE8F08163685B793BB129784B0706D5FA
:103760002368294620461B6898471034EEE7284610
:103770002E88C1F3C20700F0CFF9C6F382160246C5
:10378000002EEDD00028EBDB01233946204600F067
:10379000CBF8B042E9D3E3E754050022503F0102E1
:1037A000603F0102044A054B9B1AB1EBD30F34BFB3
:1037B00052F8310000207047B83E0102503F01022C
:1037C00000200B490B4B30B55B1ADB080A4C043167
:1037D0000133013B00D130BD11F83020256802F0E3
:1037E000070225F007052A4344F8042B0130F0E7CF
:1037F000B83E0102503F01029C0A0022F8B506467D
:1038000000240A4F0A4DED1BED08AC4203D14FF0E6
:10381000FF342046F8BD57F8340020B13146FDF79B
:103820001FFC0028F5D00134EFE700BFB83E0102CD
:10383000503F010200282DE9F047884615461F46F3
:103840001DDA4FF0000A5446DFF8A890254EA6EB8B
:1038500009063609B24509F1100902D12046BDE832
:10386000F08759F80C0C3B462A4641460079FFF791
:10387000E1FF844238BF04460AF1010AEAE71A4B25
:103880001A4AD21AB5EBD20F29D203EBC5031C7921
:10389000BC4228BF3C4607224FF0090E144EC0B26E
:1038A00000EB400056F82530824023EA020304F082
:1038B000070282401343032100224EF001E023FA65
:1038C00001F000F00700824238BF024603310FF0DA
:1038D0000BC023F00703134346F82530BEE700244E
:1038E000D9E700BF603F0102B83E0102503F01022C
:1038F0009C0A0022503F0102F8B506460F460024FC
:10390000074D084BED1AED08AC4200D3F8BD00217D
:1039100022B23B46304601340CF091F8A4B2F3E7F2
:10392000503F0102B83E010210B570B141680979FB
:1039300073B1002A17DBCBB20C4903EB430351F8F8
:103940002200D84000F0070010BD4FF0FF31EFE734
:103950000749084C1846641AB2EBD40FF4D201EBB5
:10396000C2010879F0E70420EEE700BF9C0A0022BC
:10397000B83E0102503F01022DE9F04F87B004AF7D
:103980000446D7E90EA90E46934698463D6BBAF118
:10399000000F22D0C7F80490CDF8009010215346B4
:1039A00000207A6BFFF71AFAB0F5006F014615D3C5
:1039B0001C490B6813F0060F0BD040F2FF73039302
:1039C000194B0222029300231846CDE900330CF074
:1039D000C7F80C37BD46BDE8F08F514604F0070428
:1039E0000BF0070BE40044EA8B1444EA412444EA58
:1039F000055417350D4425F00705ADEB050D04AD55
:103A0000BAF1000F07D0CDF8009053467A6B05F15C
:103A10001000FFF7E3F943462246314628460CF0F2
:103A20004FF8D6E7C40A0022035E01022DE9F04FE9
:103A3000C1F34A2691B00D469046079008930C0DAD
:103A4000002E5AD000274FF0040B4FF00A0A0BABA0
:103A500001933A460DAB31464046CDF808B0CDF85B
:103A600000A0CDE90D770F97FFF78AFBB0F5006F47
:103A7000B146034616D325490B6813F0060F0ED046
:103A800040F2FF730493D8F8043002220393204BD2
:103A90003846CDE9017300973B460CF061F811B050
:103AA000BDE8F08FC0F30A0604F11700184420F0B7
:103AB0000700800809930BF0BEFF66F35325044608
:103AC00080B1099B00F11001CDE90E370BABCDE9B8
:103AD00000A30D91404649460E4ACDF808B00DAB03
:103AE000FFF74EFB66F353252A462046089B0799AD
:103AF00011B0BDE8F04F0BF0E3BF04F1170020F068
:103B0000070080080BF097FF0446EBE7C40A002289
:103B10003B5E010295FA000243680548002BA3EBC7
:103B2000000040F38F0008BF4FF0FF30704700BF28
:103B30009C0A00220EB403B503AB53F8042B0146D4
:103B40000448019303F072FB02B05DF804EB03B08C
:103B5000704700BFDBFB0002CA0605D48B064CBFD2
:103B600002490349FFF7E6BF704700BF1E6201022A
:103B70007A5E01022DE9F04F87B09DF8446004465B
:103B80000D4690469946002E00F0A080159B03F04C
:103B9000020A03F001030493159B03F0080B03F4DE
:103BA000807305930BF049FF0246074620B120467B
:103BB0009349FFF7BFFF0746BAF1000F0AD0159BE4
:103BC00013F0440F33D12A4620468E49FFF7B2FF47
:103BD00003461F44049B53B18B4B8C4A53F8263049
:103BE0002046002B18BF1A468949FFF7A3FF059B03
:103BF000002B49D0BBF1000F65D14546B8F1000F4D
:103C000005D0424620468349FFF794FF0546129BA4
:103C10003D44002B69D1149B002B6FD1159BDB0712
:103C200000F1E78020461599FFF796FFD4E07A4B24
:103C3000186803460028CCD0784B4FF47A7A1B687A
:103C40004FF03C0CB5FBF3F5B5FBF0F14FF46163BD
:103C500000FB11550AFB05F5B1FBF3F2B5FBF0FED5
:103C600003FB121100FB1E55B1FBFCF30AFB05F52B
:103C7000B5FBF0F50CFB131120460091CDE901E5F1
:103C80006749FFF757FFA3E75D46BBF1000F07D079
:103C9000644B204653F826206349FFF74BFF054647
:103CA000B8F1000F05D0424620465A49FFF742FFBF
:103CB0000544B9F1000FAAD04A4620465B49FFF7F8
:103CC00039FF0544A3E74FF00009E1E7B9F1010F1F
:103CD000129B06D1002B66D1149B002B7CD00025B3
:103CE0000CE0002BF8D052485EE05248129B22466E
:103CF00051490BF0D1FC149B002B6AD0DFF84481B2
:103D0000DFF84491149F2046102F159928BF1027E3
:103D10004FF0000BFFF720FF5D4547DC139B494642
:103D200020461A78FFF706FF4FF0010B1BF0070F34
:103D300003D141462046FFF7FDFE5F453DD9139B69
:103D40004946204613F80B20FFF7F4FE0BF1010B58
:103D5000BBF1100FEAD14FF0000A20463749FFF7B8
:103D6000E9FE5246DFF8E4B0139B20469A5CA2F1CC
:103D700020015F2928BF2E225946FFF7DBFE0AF1FA
:103D8000010ABAF1100F1DD01AF0070F03D14146F6
:103D90002046FFF7CFFE57455246E5D8414620461C
:103DA000FFF7C8FEEBE7234835469FE7414620462C
:103DB000FFF7C0FE0BF1010BAEE720462049FFF7ED
:103DC000B9FEC3E7139B3B441393149BDB1B149373
:103DD00098D1002E7FF422AF6268A168D2E9002357
:103DE00020680BF0ECFE002263681A6007B0BDE8A3
:103DF000F08F2046054A0649FFF79CFE12E700BFF8
:103E0000825E0102865E0102FC4D01027D5E0102BE
:103E100038640102AB5E0102803500227C3500224D
:103E20008F5E0102104E0102AF5E0102B55E01021B
:103E3000F7FB0002DBFB00022D720002C45E0102F0
:103E4000C05E0102C25E0102BA5E0102556A010251
:103E5000002201230749884207D8002A08BF01230E
:103E6000054A1360054B18607047012240085B004B
:103E7000F1E700BF40420F007C3500228035002270
:103E800038B5124B0D461C68CCB1114B1A68002A8C
:103E900002F10103B8BF0123013B02D16FF0010021
:103EA00038BD224612F8101B814201D01446F3E7B8
:103EB000E0680EF016F828B100202C60F0E76FF0F3
:103EC0000C00EDE76FF01200EAE700BF5805002292
:103ED000244E010210B5044606F080F8034902465C
:103EE00020460CF07DF8002010BD00BFFD5E0102F1
:103EF00037B513460022054601920A21586801AAE7
:103F000001F0E2FC019C4CB90A2120EAE07080FB40
:103F100001010EF042FC204603B030BD2246284687
:103F200002490CF079F8019CF5E700BF295F010216
:103F300008B5034A03490CF053F8002008BD00BF40
:103F4000136001021A600102F7B517460023054607
:103F50000A2101AAB868019301F0B6FC1749C6B25C
:103F600028460CF04BF8019C44B1224628461449DF
:103F70000CF052F8019C204603B0F0BD042E09D984
:103F8000324628460F490CF047F828460CF083F8D3
:103F90000124F0E77868FFF731FC021E07DA2846B3
:103FA0007A6809490CF038F86FF01504E3E73346F6
:103FB0002146204612B20BF042FDDCE745600102CB
:103FC000AB600102D2600102E9600102002307B583
:103FD0000090694604488DF8043009F02FFA9DF8E6
:103FE000040003B05DF804FBA7FC000210B5044612
:103FF00005F0D6FF0749024620460BF0F1FF2046A8
:1040000005490BF0EDFF2146044809F031FA002084
:1040100010BD00BF41610102606101022140000248
:1040200070B58EB004460D46D0F89C600EF0E2FAF2
:1040300003460FF0A7FA214A214912589442214A17
:1040400018BF0A46181E204B204908BF18462346B1
:10405000009028460BF0C4FFD4E90A23CDE90023E1
:10406000284694F90E30227B19490BF0B9FF06A9B6
:104070002022204608F0AAFB636E02461549284616
:104080000BF0AEFF204605A90EF0D6FA024628B185
:10409000284611490BF0A4FF0EB070BD6422059BA9
:1040A0002846F11A4A43B2FBF6F20091CDE90162CB
:1040B0000A4932460BF094FFEEE700BF1000000003
:1040C000C25E0102A47501026A6101026D61010212
:1040D00079610102A5610102BC610102E96101028D
:1040E000F0B50025044691B0294608AF1C2209A866
:1040F0000EF02FFF134E1A22202138460EF029FF12
:104100002146114809F0B4F907AA4FF4006130467E
:104110000EF085FA6423079A2046C2F500614B43EE
:10412000DB0A05934FF400630097CDE90313CDE953
:10413000013206492B4632460BF052FF284611B099
:10414000F0BD00BF58D20022514100023A62010284
:1041500070B504460D46D0F89C6088B007A90EF0F3
:104160006BFA024628B128460F490BF039FF08B018
:1041700070BD20460EF03EFA6422079B0028A6EB95
:10418000030101FB02F2B2FBF6F2CDE90131CDE908
:104190000362064B224618BF03460549284600968F
:1041A0000BF01EFFE3E700BFBC6101026A61010280
:1041B0008362010238B51346054610220021586873
:1041C00009F080FD0446FFF701FF38B92246284672
:1041D0000D490BF021FF6FF0150038BD0FF0D2F93B
:1041E0000A4B1B589C4204D1284609490BF014FF86
:1041F000F1E7204608F0A0FC2846224605490BF0CE
:10420000EFFE0020E9E700BFE762010210000000B6
:10421000026301022A63010238B5134605461022E3
:104220000021586809F04EFD0446FFF7CFFE38B96B
:10423000224628460D490BF0EFFE6FF0150038BD01
:104240000FF0A0F90A4B1B589C4204D1284609499B
:104250000BF0E2FEF1E7204608F074FD2846224606
:1042600005490BF0BDFE0020E9E700BFE76201024F
:1042700010000000616301028763010238B5134634
:10428000054610220021586809F01CFD0446FFF77E
:104290009DFE38B9224628460D490BF0BDFE6FF051
:1042A000150038BD0FF06EF90A4B1B589C4204D123
:1042B000284609490BF0B0FEF1E7204602F044FE23
:1042C0002846224605490BF08BFE0020E9E700BF97
:1042D000E762010210000000BB630102E06301021B
:1042E0002DE9F04F87B00446684607F051FB2423C0
:1042F000009F082103FB0077264A20460BF063FE4F
:10430000DFF8ACA0009DDFF8ACB0BD4203D30020C5
:1043100007B0BDE8F08F2B680BB11A7832B92B4685
:1043200014211D4A01A809F003FC01AB52460821E3
:1043300020460BF048FE28460DF0D3FD0028174B11
:104340004FF0080108BF5B462046154A0BF03BFEC4
:104350002B6AA3B11E6896B1336883B10821204649
:10436000104A0BF030FEB1464FF0000833680E4A99
:10437000434506D8082120460C4A0BF024FE24357C
:10438000C3E70821204659F8043F0BF01CFE08F152
:104390000108EBE72764010231640102186401029D
:1043A000B46A01023B640102376401021E62010229
:1043B000366401021E6401022DE9F041144688466C
:1043C000074610220021606809F07CFCB8F1020F5A
:1043D000064607D8202308213846244A0BF0F3FD6F
:1043E000336816E00A220021A06809F06BFCC5B210
:1043F0002B46082138461D4A0BF0E5FDB8F1030FA6
:104400001AD1102D0CD0202DEAD0082D0BD13378E5
:10441000DBB208213846164A0BF0D5FD002009E032
:1044200033889BB2F5E738460821124A0BF0CBFDE2
:104430006FF01500BDE8F08110220021E06809F05E
:1044400041FC0821034604460B4A38460BF0BBFDED
:10445000102D06D0202D07D0082DE4D1E4B2347001
:10446000DCE7A4B23480D9E73460D7E77C6401028A
:10447000A764010291640102B864010200232DE9DE
:10448000F04F91464FF0FF35012287B00193504B1A
:10449000074688461A60202602F086FF2C46DFF881
:1044A0004CA149465246404602F0A2FF411C06D1AB
:1044B0006A1C41D1474938460BF0AEFD17E073281E
:1044C0001AD0772828D0612811D1DFF824B1102123
:1044D000DBF8000001AA01F0F7F9019B0546002B6B
:1044E000DFD0DBF800203C4938460BF095FD6FF03B
:1044F000150007B0BDE8F08FDFF8F4B00021DBF85D
:10450000000001AA01F0E0F9019B0446002BC8D08D
:10451000DBF800203149E7E7DFF8D4B00021DBF811
:10452000000001AA01F0D0F9019B0646002BB8D08B
:10453000DBF800202A49D7E7631C01D12949BAE7F3
:104540005FFA86F8C6F3C406002C3FD002AB2946BA
:104550001A46A6EB050C0CE0B8F1100F1DD0B8F10F
:10456000200F20D0B8F1080F2AD1087818703144F4
:104570003344A64203D80CEB01001028ECD9102CD0
:10458000A14628BF4FF0100929464B46384601F096
:104590006BF81035A4EB0904D6E7088880B21870D0
:1045A000000A5870E3E708684FEA102E187083F885
:1045B00001E04FEA104E000E83F802E0D870D6E713
:1045C00008213846084A0BF0FEFC90E7204690E7A9
:1045D000CC0500220D650102CC640102DF640102FA
:1045E000F26401022A65010291640102066501027A
:1045F0003447002270B50F4E04460D46337871B132
:1046000023B10D49BDE870400BF006BD01233370A6
:1046100020460A490BF0E4FC0123337004E083F0E8
:1046200001033370002BF3D129462046BDE87040CA
:104630000BF051BDF9490022446501027F6501027A
:1046400070B504463F480378182B02D10B78112B24
:1046500030D00B46551E013A25D14B5D0A780370C8
:10466000A2F13003092B384C04D922F02003413B3E
:10467000052B04D823683549CA54013323602368C5
:10468000022B3BD110220021304809F01BFB304A9D
:10469000136803F8010B13602E4A1368013313608B
:1046A000002323602AE013F8016B182ED3D11E7863
:1046B000112ED0D1274D20462A6827490BF090FCB7
:1046C00000212046FFF796FF244B1E78B6B92B68D1
:1046D00023495A1E9208002B02F10102CCBF144656
:1046E00001240868013C0AD10EB108602B6013F068
:1046F00003020BD10A6813681BBA136070BD02680D
:10470000012612BA40F8042B043BEBE75B4203F0AE
:10471000030352EA43B3022B04D10A6813885BBA3D
:104720009BB2EAE7032BE9D1086802681104C2F3DF
:10473000074301F47F010B4302F47F4213430360FC
:10474000DCE700BFFA49002284350022FC49002240
:104750009035002288350022A9650102FB4900221C
:104760008C3500222DE9F84F0023064615460C46ED
:104770002949DFF8BC800B602849DFF8B890DFF8E2
:10478000B8B088F800300B60012C2F4655F804AF04
:104790001ED90222494650460EF096FC80B99AF87E
:1047A0000220003A18BF01229244504602221C49BE
:1047B0000EF08AFC30B9012388F80030013CE3E7B1
:1047C0000022F1E749465046FCF74AFCA8B90437F5
:1047D00000227868114609F075FA0022114B114643
:1047E0001860786809F06EFA0F4B1049186030466F
:1047F000FFF700FF0020BDE8F88F9AF800202D2A6F
:10480000E6D19AF80120002AE2D0524659463046B5
:104810000BF0E6FBD2E700BF84350022883500228A
:10482000C6650102903500228C3500224146000207
:10483000FB490022C3650102C96501027FB50BABCC
:1048400005930393054B0222029300231846CDE9FA
:104850000033FFF791F807B05DF804FB2B67010206
:1048600007B50A480DF03DFB60B10423084A0093E8
:10487000126801230549074800F05CFF002003B0DF
:104880005DF804FB6FF01200F9E700BF343A010253
:10489000F04E0102E048010210B54468C4E900127C
:1048A000A36042684021134653F8404B5163536262
:1048B000002302F13801C2E904130821C2E90A33D6
:1048C000C2E9063313631162C2F8B830A36823B19A
:1048D0009B6C13B1204604499847A3689B6A0BB1AF
:1048E00020469847002010BDED4800022DE9F04712
:1048F00005460C4686B083685B6C03B19847AB688D
:104900005B6B73BB4FF0000A04F1240804F1280923
:10491000218E238D626B5B1A9BB2D31A934228BF00
:1049200013464946404605AA0AF0A6FF0646002857
:1049300044D0AB6805999B69002B33D002462846CA
:104940009847074688B33A46494640460AF0CBFFA7
:10495000B7424FF0010ADBD00020D4E9013198477B
:1049600003E0284698470028CCD1AB685B6A002B4F
:104970003BD1628BE38A04F110079B1A226A9BB237
:10498000934204F11A0828BF13464146384605AA47
:104990000AF072FF064678BB28460BF09AF9C4F875
:1049A000B86035E06FF05707CDE70246494640460C
:1049B0000AF099FFBAF1000FD7D0CDE718490B687C
:1049C00013F0060F07D0174B0222CDE90103009028
:1049D0000346FFF733FFAB689B69002BEAD0012247
:1049E00028460DF113019847E4E728469847002828
:1049F000BFD106B0BDE8F087AB6805995B6963B1CC
:104A00000246284698470246414638460AF06BFF60
:104A1000D4E9013101209847EBE76FF05702F3E743
:104A2000E00A00222B67010210B5044681681831A4
:104A300001F0B8F9A1682046BDE81040014A1831DC
:104A400001F056B96D67010238B58368044603F575
:104A500080539B6FDB071FD4C0690CF028F8606897
:104A600003685B689847054620B9E0680CF077F961
:104A7000A3681D75A3685B6C13B12946204698474F
:104A800000220EF07FFDA36803F58053C3F82021B8
:104A9000034B185802F058FA6FF00F05EAE700BF11
:104AA0001000000001490BF090B900BF1E62010226
:104AB000F7B5044680680D4600F580539B6F5A0792
:104AC00005D500210BF0CBF9E0680CF01AF9E3688A
:104AD000DB6873B9002D3CD0A66806F1560738464E
:104AE0000BF080F9002836D0394606F65600FCF760
:104AF000C1FAA2682946E0680DF1060356320CF0AF
:104B000003F958B9A06800F656015630FCF7B2FA1E
:104B1000A06856300BF066F9ADF8060020460BF0A1
:104B2000D0FDA36803F580535B6F9B0603D50B494B
:104B300060690BF04AF9204600F02EFFA268BDF82C
:104B400006302046A2F85230A268A2F850300BF08E
:104B50001DFD03B0F0BD86F85608CAE7704A010291
:104B60002DE9F04FA7B004465422002111A80EF001
:104B7000F0F90023CDE90533A368204656330293AC
:104B80000BF0A6FD20460BF0E9FC10B96069FFF7B9
:104B900089FF00264FF0FF37B246B3463546B1468F
:104BA000A0681422002118300EF0D3F920460BF033
:104BB0007AFCA168E068B1F8502056310CF0DBF8BF
:104BC00020460CF071F90DF144080396DDE9053239
:104BD000012A6DD0132B6ED85FBBBBF1000F0AD03A
:104BE00020460CF082F91423A26811A956320DEB6D
:104BF00003000BF0D8FAB9F1000F0CD099F811307E
:104C0000FE2B08D1059B26AA02EB830252F8542CF6
:104C10000AB101330593A068059D436A002B40F05B
:104C2000B780CEB1C3699E422DD00D9600F1180514
:104C300024E002234146029A06A80BF0B4FAD8F801
:104C4000042006990346029231B101290AD148B1E4
:104C50006D4A20460BF0EBFD6FF00705284627B0A4
:104C6000BDE8F08F059B002B34D0D8F8000001F090
:104C7000B9F898B166B1A5680D9618350CAE0FCE8F
:104C80000FC533682B602046FFF7CEFE0125E5E710
:104C90005E4A012120460BF0CAFDDDE7059BCBB142
:104CA00029462046D8F8002001F046FA022809D10A
:104CB000059B132B91D9069B022B8ED10121544BBE
:104CC000544AC6E7032805D0059B4FF0010B01337A
:104CD00005937BE7039B33B94846D8F8001007AA31
:104CE0000BF058FB054608F10408013F002D3BD0AE
:104CF000EB68BBF1000F08D0F3B120460BF0E8FCE5
:104D000020460BF043FC444AC3E7ABB1AE46A36870
:104D1000DDF814A003F1180CBEE80F00ACE80F009A
:104D2000DEF80030CCF80030AB682BB96B7CFE2B82
:104D300004BF2F7C07F1FF37D5F804C0A946BCF1AA
:104D4000000F08D0AE460CAEBEE80F000FC6DEF86E
:104D5000003033606646069B17B9022B7FF436AFEE
:104D6000059B0133059331E7059B13B101230393A1
:104D7000F1E7A368DB6A13B1DB68002BF6D1274BA0
:104D8000012100932046119B254A0BF050FDEDE7D1
:104D900090F82830A5EB0A05BBB14FF6FF7190F8EB
:104DA0002920FF2A08BF0A469D4202D313449D4290
:104DB0000BD98369012120461A4A0BF038FD2046A1
:104DC000FFF732FE6FF0150548E741F20C1601219E
:104DD0000BF039F8A06830440BF05CF8A36811AA16
:104DE000294602EB8A0220465B6A98470546A0687E
:104DF0004FF0FF324FF0FF3330440AF0E4FF002160
:104E0000A0680BF020F829E77B6701028F67010299
:104E1000F067010204610102AD670102DC67010273
:104E2000E16A010214680102022210B58368044697
:104E30001A7583689B6CCBB90AF0A4FF836803F5ED
:104E400080539B6FDB040CD50321094B094A0BF0FF
:104E5000EEFCA0686FF4805100F5835018300AF022
:104E6000A7FF2046BDE8104000F024BF10BD00BFE2
:104E70002F680102386401022DE9F04F0446806872
:104E8000012100F58350B1B018300AF086FFA36805
:104E90001B7D022B20D100230993A36860689E6CC0
:104EA00003681D6909AB16B310221BA9A847099B0B
:104EB00093B10121A0680AF0C6FF2046099A1BA9F8
:104EC000B0470021A0680AF0BEFFA3689B6C002BCE
:104ED000E3D12046FFF7A8FF6FF00101A06800F5BD
:104EE0008350183031B0BDE8F04F0AF061BF0122A5
:104EF0000DF12301A847099B002BEDD09DF923203C
:104F00009DF82330002AA068C7DB427D032A00F207
:104F10000683DFE812F0040083029B0204030D2BDA
:104F200000F5805266D00A2B44D0B2F87810092BD5
:104F30006FF3CA01A2F8781071D02AD8002B00F0C4
:104F40000681082BA06800F0F181024602F580502E
:104F5000426F920740F1FB80013B162B00F2F78075
:104F6000DFE813F0C402040208020002BE021A02C3
:104F7000F500F500F500F5001E022202F5003702EB
:104F8000F5003C02F500F500F500F5003E02F500E5
:104F900054021B2BA0683FD07F2B00F0D481A3F1DB
:104FA00020015E290246D1D801210AF058FF9DF860
:104FB0002310BAE0916FC1F3C70121B1916FC1F322
:104FC000C7010A29C1D1B2F8781063F3CA01A2F867
:104FD0007810A568B5F85010B1B928460AF03FFF1F
:104FE000E0680BF08EFE6069FFF75CFD2046FFF77E
:104FF0001BFF52E7916FC1F3C7010029E3D0916F06
:10500000C1F3C7010D29DDE72046FFF7A9FD05F52E
:105010008055C5F82401E9E70123437597E0A068AE
:1050200000F580535B6F9B0740F1918001210AF0EE
:1050300016FF40F2FF73A068B0F850209A4200F0CB
:1050400086800025B0F8522000F1560100F6560087
:105050000DF058FFA3681BA9B3F852200BA8134406
:1050600083F85658A268142302F656020BF09BF8F8
:105070000B9914296BD830AB03EB810343F8545CD4
:10508000A368B3F85220002A53D0134493F8553044
:10509000202B02D0093B042B4BD800294CD10025F2
:1050A0000A950A9B30AA02EB830353F854AC0026FE
:1050B00050460AF097FEB3468146B0463746394619
:1050C000284616AA00F0C6FB0346002843D1012E4D
:1050D00069D10A9B30AA02EB830353F8540C0AF0FF
:1050E00081FEA268064641462846183200F0B2FB0F
:1050F000056828460AF076FE864205D0821B92B2E9
:105100002046A9190BF0DCFBA068B0F8523003442C
:1051100093F85630202B35D0093B042B32D900F5BB
:1051200080535B6FDF0732D42021204600F088FDDA
:105130000DE00129B3D9013900200CAB0093019097
:105140000AAB1BAA0BF051F905460028A9D16069EA
:105150000AF0C7FFA1E61B684A465146184603936A
:105160000DF0B2FF60B9039B1846FBF78BFF584563
:1051700038BF5846002E08BFB8461FFA80FB0136DC
:1051800001379CE7012120460BF034FADFE70021CC
:105190000AF070FE2021204600F052FD0121A06897
:1051A0000AF068FED3E70490D1D90A9A30AB03EB3A
:1051B000820252F8543CC146184603930AF012FE8C
:1051C000049BA2680590A2F840300496A268494664
:1051D0002846183200F03EFB039BD0F800A009F1EE
:1051E00001094BB1BAF1000F06D019465046059A95
:1051F0000DF06AFF0028E9D1A168BAF1000F52D181
:10520000A1F840A0049B013B0493DFD16069FFF744
:1052100049FC204600F04EFD0A9B30AA02EB8303B6
:1052200053F8540C0AF0DEFD414611AA0746284601
:1052300000F010FB08F1010B8046A068D8F80010C0
:1052400040F2FF7200F656000DF050FFD8F80090C3
:105250004FF6FF785946284616AA0BF1010A00F0CE
:10526000F9FA002855D000234FF6FF71A268D0F854
:1052700000C002F6550212F801EF1CF80300704559
:1052800004D118B1013903F10103F4D10FB1BB42CC
:1052900007DB4345A8BF4346013E012E1FFA83F8B2
:1052A00037D0D346D6E79F4806910AF09BFD069972
:1052B00000EB0B074A8FBFB2121A92FBF7F250466F
:1052C00092B2079106920AF08DFD07993F1AB1F844
:1052D0004000069A00F1010CA1F840C0B0FBF2F1C9
:1052E00002FB110080B2BFB260B9062120468D4B8F
:1052F0008D4ACDF800A00BF09AFA3946204600F00E
:1053000035FB7FE7534606212046884A0BF08FFA8B
:10531000F3E7B8F1000F3FF41AAFA8EB07022046FD
:1053200092B209EB07010BF0CBFA10E700F58053BE
:105330005B6F9E077FF50BAF01210AF090FD2046C1
:105340000BF0DFFA03E700F580535B6F9D077FF5F5
:10535000FEAE01210AF083FDA36803F580535B6F65
:105360001907ECD420460BF0ADFAF0E620460BF01E
:10537000B8F9ECE620460BF0ABF920460BF0EEF85E
:1053800010B96069FFF78EFBA06801210AF067FD84
:105390002046FFF749FDDAE620460BF0ABF9D6E6EA
:1053A00020460BF0B2F9D2E6436F9F0603D5604961
:1053B00060690AF00AFDA36803F580535B6F9E06DF
:1053C00003D55C4960690AF000FD204600F072FCDC
:1053D000BDE600212046FFF76BFBB8E60121F9E7A7
:1053E00020460BF06EF920460AF0CCFC0121A068A3
:1053F0000AF035FDA36803F580535B6F9D067FF5CA
:10540000A6AE4D4960690AF0E0FCA0E6204600F037
:1054100041FB0121A0680AF022FD98E65B2B01D137
:105420000223FAE500F58050426F900706D5622B03
:1054300008D14FF0FF3120460BF005F90022A36898
:105440005A7584E6662BF9D10121F4E700224275F2
:10545000A26802F58051496F89077FF51EAD313B87
:105460001B2B3FF674AE01A151F823F0E954000262
:10547000F55400020B550002DD5400024F510002AA
:105480004F5100024F5100024F5100024F51000294
:105490004F5100024F5100024F5100024F51000284
:1054A0004F5100024F5100024F510002DD530002E4
:1054B000D3530002995300026D5300024F51000272
:1054C000E15400024F510002ED5400024F5100021E
:1054D0004F5100024F510002F9540002032353754B
:1054E00020460BF0F5F832E60323537520460BF007
:1054F000E8F82CE603235375A06800F58053596F34
:1055000001F0010181F001014AE603235375A3680C
:1055100003F580535B6F9B077FF519AE22E70023ED
:105520007BE500BFC15E01027368010238640102BD
:10553000754A01027A4A0102704A01022DE9F843D4
:1055400004468068154600F583501830002938D08D
:105550004FF480410AF021FCA3680021DD646068FB
:1055600003689B689847002852D120460AF0ABFC9C
:1055700000284DD1274E284FDFF8A480A06800F501
:1055800085501C304FF0FF324FF0FF33032108F0FD
:10559000C7F9054641F20C19A068BDB14FF4FA7283
:1055A000002348440AF00FFC90BB20462B46012103
:1055B0001A4A0BF03CF9A0684844BDE8F8430AF0E9
:1055C00069BC6FF480410AF0F3FBC5E74FF0FF338D
:1055D0004FF0FF3248440AF0F6FB324602212046E3
:1055E0000AF05AFC3A46294620460AF055FC204665
:1055F000424601210AF050FC606803685B6903B110
:105600009847A06800F588500C300AF043FCB5E7D5
:10561000BDE8F883494A0002794E00027968010228
:10562000F5FD000210B504460A490AF0D9FC2046EF
:1056300009490AF0D5FC204608490AF0D1FC204669
:1056400007490AF0CDFC20460021064A00F050FB35
:10565000002010BD90680102CE6801022D69010290
:10566000816901021B6A0102F8B51E4617460A4607
:10567000294904460AF0B4FC3EB320463A7827494B
:105680000AF0AEFC01256A0703D1204624490AF03E
:10569000A7FCAE421ED920467A5D20490AF0A0FC44
:1056A0000135102DEFD120461E490AF099FCB6B9FC
:1056B00020461B490AF094FC0125AE422B4610D827
:1056C000204617490AF08CFC15E0204616490AF0DE
:1056D00087FC0125204614490AF082FCE0E70025FA
:1056E0002B46FA5C2046A2F120035F2B28BF2E2216
:1056F0000E490AF075FC0135102D06D06B07DCD180
:10570000204607490AF06CFCD7E72046BDE8F84080
:1057100007490AF065BC00BF316A0102BA5E0102A6
:10572000C25E0102C45E0102C05E0102556A01024E
:10573000658E01022DE9F04704468068984600F521
:1057400080538946D3F82011154688B0002965D1C9
:1057500041F228120DF0FDFBE0680BF084FBA0681D
:1057600000F588500C3041F2BC070CF08BFD41F283
:105770007C06BA46A06830440DF094FBA068002275
:1057800083190121384410360DF05EFB564507F1B0
:105790001407EFD10026A36902211E60A06866F3FA
:1057A000820500F5835018300AF0F7FA5022A368FA
:1057B00020465A871822A3681A8721680AF03AFC03
:1057C000A368494603F580535D676068154A03681E
:1057D0001D682346A8470546E0B90122A3681A754B
:1057E000D4E90A0100220023CDE906230E23039306
:1057F000109B4FF40062CDE9018304950A4B00949D
:1058000007F090F8A36803F58053C3F82001616A9C
:1058100006F0CCFF284608B0BDE8F0876FF07705AA
:10582000F8E700BF27FE00023D55000210B5044610
:1058300013460A460146064801F0F8FC23691B7925
:1058400023B12046BDE810400AF04BBC10BD00BF9C
:10585000FB00010238B50B46154648B91449154AF4
:10586000521AB3EB920F05D251F82350284638BD97
:1058700084680CB90025F9E70F4A94420AD30F4A0D
:10588000944207D218462946226890472B68002B7D
:10589000ECD1EFE70A4A944202D30A4A944205D374
:1058A000246814225343E518E358F0E70133F8E77E
:1058B0001049010240490102584A0102604A0102AE
:1058C00040490102584A0102F7B5037804462D2BDE
:1058D000164605D16FF015030020336003B0F0BD0C
:1058E0000DF050FE002305460A4F0A46C35101A998
:1058F000204608F0E7F9EB59222B02D16FF0210383
:10590000EAE7002BE6D1019BA342E3D01B78002BF2
:10591000E4D0DFE714000000836803F580535B6F79
:105920009B0603D5024940690AF0F8BD704700BFE5
:10593000804A010201490AF0F1BD00BF1E62010266
:105940000A1E0EDC0FD04223816801F58051496F99
:10595000890608D5002A04494069B8BF52420AF0B6
:10596000DDBD4123F0E77047516A01020A1E0EDCDB
:105970000FD04423816801F58051496F890608D50D
:10598000002A04494069B8BF52420AF0C7BD432308
:10599000F0E77047516A01022DE9F0478568044637
:1059A00005F15600FBF76EFB0023984695F83C7016
:1059B000DFF8589086B2A268558FED1BB54209DB1F
:1059C000002E1FDD563360690F491A44BDE8F047C9
:1059D0000AF0A4BD1D442A4492F856A082F85680CD
:1059E000A26856331A44494660690AF097FDA368D5
:1059F0002B4483F856A0A3685B8FDB1BF61A0027A5
:105A00002B46D8E7BDE8F087386401020461010243
:105A100008290A4618D8836893F83E10914213D09B
:105A200083F83E208368082A03F580535B6F05D016
:105A3000990609D5054940690AF070BD9B0603D552
:105A4000034940690AF06ABD704700BF586A010205
:105A5000854A010238B50D4609780446FFF7D8FF9C
:105A60006A78072A12D8A36893F83F1091420DD0A4
:105A700083F83F20A36803F580535B6F9B0605D531
:105A800060690349BDE838400AF048BD38BD00BF31
:105A9000616A0102F8B583680446B3F85020002A11
:105AA00057D0B3F85210002953D0553103F15605A1
:105AB0000B441846A84206D3014611F80169202E6E
:105AC0003ED0A8423ED286B29DB2AB1B9BB2591CBF
:105AD000471CD21A014438460DF021FAA268711B06
