:020000021000EC
:10000000B8770220B5E90100C3600400A1E901004E
:10001000A1E90100A1E90100A1E90100000000003F
:10002000000000000000000000000000BDEA010028
:10003000A1E901000000000029EA0100A1E9010096
:10004000CDEC01000D330300CDEC0100CDEC01003F
:10005000CDEC0100CDEC0100CDEC0100CDEC0100B8
:10006000CDEC0100CDEC0100CDEC0100CDEC0100A8
:10007000CDEC0100CDEC0100CDEC0100CDEC010098
:10008000CDEC0100CDEC0100CDEC0100CDEC010088
:10009000CDEC0100CDEC0100CDEC0100CDEC010078
:1000A000CDEC0100CDEC0100CDEC0100CDEC010068
:1000B000CDEC0100CDEC0100CDEC0100CDEC010058
:1000C000CDEC0100CDEC0100CDEC0100CDEC010048
:1000D000CDEC0100CDEC0100CDEC0100CDEC010038
:1000E000CDEC0100CDEC0100CDEC0100CDEC010028
:1000F000CDEC0100CDEC0100CDEC0100CDEC010018
:10010000002902D0B0FBF1F0704708B14FF0FF308A
:1001100000F01EB80029F8D00246B0FBF1F000FB59
:1001200011217047002902D090FBF1F070470028A0
:10013000C8BF6FF00040B8BF4FF0004000F008B8F3
:100140000029F4D0024690FBF1F000FB112170472A
:10015000704700BF81F0004102E000BF83F0004320
:1001600030B54FEA41044FEA430594EA050F08BF52
:1001700090EA020F1FBF54EA000C55EA020C7FEA16
:10018000645C7FEA655C00F0E2804FEA5454D4EB93
:100190005555B8BF6D420CDD2C4480EA020281EA5D
:1001A000030382EA000083EA010180EA020281EA95
:1001B0000303362D88BF30BD11F0004F4FEA0131E7
:1001C0004FF4801C4CEA113102D0404261EB4101F6
:1001D00013F0004F4FEA03334CEA133302D052427C
:1001E00063EB430394EA050F00F0A780A4F1010438
:1001F000D5F1200E0DDB02FA0EFC22FA05F2801872
:1002000041F1000103FA0EF2801843FA05F3594157
:100210000EE0A5F120050EF1200E012A03FA0EFCD6
:1002200028BF4CF0020C43FA05F3C01851EBE37100
:1002300001F0004507D54FF0000EDCF1000C7EEB1D
:1002400000006EEB0101B1F5801F1BD3B1F5001F5B
:100250000CD349085FEA30004FEA3C0C04F101047A
:100260004FEA445212F5800F80F09A80BCF1004FA3
:1002700008BF5FEA500C50F1000041EB045141EA25
:10028000050130BD5FEA4C0C404141EB0101013CEE
:1002900028BFB1F5801FE9D291F0000F04BF0146DD
:1002A0000020B1FA81F308BF2033A3F10B03B3F1AF
:1002B00020020CDA0C3208DD02F1140CC2F10C023F
:1002C00001FA0CF021FA02F10CE002F11402D8BF9D
:1002D000C2F1200C01FA02F120FA0CFCDCBF41EA69
:1002E0000C019040E41AA2BF01EB0451294330BD38
:1002F0006FEA04041F3C1CDA0C340EDC04F1140415
:10030000C4F1200220FA04F001FA02F340EA0300EB
:1003100021FA04F345EA030130BDC4F10C04C4F131
:10032000200220FA02F001FA04F340EA0300294611
:1003300030BD21FA04F0294630BD94F0000F83F45B
:10034000801306BF81F480110134013D4EE77FEA3E
:10035000645C18BF7FEA655C29D094EA050F08BF8A
:1003600090EA020F05D054EA000C04BF194610466B
:1003700030BD91EA030F1EBF0021002030BD5FEAAF
:10038000545C05D14000494128BF41F0004130BDD7
:1003900014F580043CBF01F5801130BD01F000452B
:1003A00045F0FE4141F470014FF0000030BD7FEA9E
:1003B000645C1ABF194610467FEA655C1CBF0B4699
:1003C000024650EA013406BF52EA033591EA030FB0
:1003D00041F4002130BD00BF90F0000F04BF0021A8
:1003E000704730B54FF4806404F132044FF00005DB
:1003F0004FF0000150E700BF90F0000F04BF002154
:10040000704730B54FF4806404F1320410F00045B9
:1004100048BF40424FF000013EE700BF42004FEAB4
:10042000E2014FEA31014FEA02701FBF12F07F4331
:1004300093F07F4F81F06051704732F07F4208BFE8
:10044000704793F07F4F04BF41F40021704730B5EF
:100450004FF4607401F0004521F000411CE700BF3B
:1004600050EA010208BF704730B54FF000050AE0BE
:1004700050EA010208BF704730B511F0004502D5BF
:10048000404261EB41014FF4806404F132045FEAC1
:10049000915C3FF4D8AE4FF003025FEADC0C18BF6A
:1004A00003325FEADC0C18BF033202EBDC02C2F15C
:1004B000200300FA03FC20FA02F001FA03FE40EAEE
:1004C0000E0021FA02F11444BDE600BF70B54FF0F2
:1004D000FF0C4CF4E06C1CEA11541DBF1CEA1355D0
:1004E00094EA0C0F95EA0C0F00F0DEF82C4481EA38
:1004F000030621EA4C5123EA4C5350EA013518BF58
:1005000052EA033541F4801143F4801338D0A0FB44
:1005100002CE4FF00005E1FB02E506F00042E0FBF1
:1005200003E54FF00006E1FB03569CF0000F18BFF7
:100530004EF0010EA4F1FF04B6F5007F64F540749F
:1005400004D25FEA4E0E6D4146EB060642EAC62132
:1005500041EA55514FEAC52040EA5E504FEACE2E9F
:10056000B4F1FD0C88BFBCF5E06F1ED8BEF1004FA2
:1005700008BF5FEA500E50F1000041EB045170BD1E
:1005800006F0004646EA010140EA020081EA030162
:10059000B4EB5C04C2BFD4EB0C0541EA045170BD5E
:1005A00041F480114FF0000E013C00F3AB8014F1D8
:1005B000360FDEBF002001F0004170BDC4F1000421
:1005C000203C35DA0C341BDC04F11404C4F12005A2
:1005D00000FA05F320FA04F001FA05F240EA0200FD
:1005E00001F0004221F0004110EBD37021FA04F633
:1005F00042EB06015EEA430E08BF20EAD37070BDED
:10060000C4F10C04C4F1200500FA04F320FA05F04B
:1006100001FA04F240EA020001F0004110EBD3704D
:1006200041F100015EEA430E08BF20EAD37070BDBD
:10063000C4F1200500FA05F24EEA020E20FA04F396
:1006400001FA05F243EA020321FA04F001F0004145
:1006500021FA04F220EA020000EBD3705EEA430EB6
:1006600008BF20EAD37070BD94F0000F0FD101F0E5
:100670000046400041EB010111F4801F08BF013C1E
:10068000F7D041EA060195F0000F18BF704703F05C
:100690000046520043EB030313F4801F08BF013DE3
:1006A000F7D043EA0603704794EA0C0F0CEA13559F
:1006B00018BF95EA0C0F0CD050EA410618BF52EA59
:1006C0004306D1D181EA030101F000414FF000005F
:1006D00070BD50EA410606BF1046194652EA43066D
:1006E00019D094EA0C0F02D150EA013613D195EAE1
:1006F0000C0F05D152EA03361CBF104619460AD129
:1007000081EA030101F0004141F0FE4141F4700132
:100710004FF0000070BD41F0FE4141F4780170BD22
:1007200070B54FF0FF0C4CF4E06C1CEA11541DBF87
:100730001CEA135594EA0C0F95EA0C0F00F0A7F889
:10074000A4EB050481EA030E52EA03354FEA0131B6
:1007500000F088804FEA03334FF0805545EA1313C9
:1007600043EA12634FEA022245EA111545EA106591
:100770004FEA00260EF000419D4208BF964244F128
:10078000FD0404F5407402D25B084FEA3202B61A47
:1007900065EB03055B084FEA32024FF480104FF41B
:1007A000002CB6EB020E75EB030E22BFB61A75468F
:1007B00040EA0C005B084FEA3202B6EB020E75EB22
:1007C000030E22BFB61A754640EA5C005B084FEA8A
:1007D0003202B6EB020E75EB030E22BFB61A754657
:1007E00040EA9C005B084FEA3202B6EB020E75EB62
:1007F000030E22BFB61A754640EADC0055EA060E23
:1008000018D04FEA051545EA16754FEA06164FEA65
:10081000C30343EA52734FEAC2025FEA1C1CC0D111
:1008200011F4801F0BD141EA00014FF000004FF09E
:10083000004CB6E711F4801F04BF01430020B4F15F
:10084000FD0C88BFBCF5E06F3FF6AFAEB5EB030C17
:1008500004BFB6EB020C5FEA500C50F1000041EB14
:10086000045170BD0EF0004E4EEA113114EB5C04E1
:10087000C2BFD4EB0C0541EA045170BD41F48011B4
:100880004FF0000E013C90E645EA060E8DE60CEABC
:10089000135594EA0C0F08BF95EA0C0F3FF43BAFD9
:1008A00094EA0C0F0AD150EA01347FF434AF95EA90
:1008B0000C0F7FF425AF104619462CE795EA0C0F74
:1008C00006D152EA03353FF4FDAE1046194622E741
:1008D00050EA410618BF52EA43067FF4C5AE50EA1B
:1008E00041047FF40DAF52EA43057FF4EBAE12E70B
:1008F0004FF0FF3C06E000BF4FF0010C02E000BFEC
:100900004FF0010C4DF804CD4FEA410C7FEA6C5CCE
:100910004FEA430C18BF7FEA6C5C1BD001B050EA71
:10092000410C0CBF52EA430C91EA030F02BF90EA5C
:10093000020F0020704710F1000F91EA030F58BF1B
:10094000994208BF90422CBFD8176FEAE37040F07D
:10095000010070474FEA410C7FEA6C5C02D150EA1B
:10096000013C07D14FEA430C7FEA6C5CD6D152EAD6
:10097000033CD3D05DF8040B704700BF844610469B
:1009800062468C461946634600E000BF01B5FFF79A
:10099000B7FF002848BF10F1000F01BD4DF808ED6A
:1009A000FFF7F4FF0CBF012000205DF808FB00BF3B
:1009B0004DF808EDFFF7EAFF34BF012000205DF895
:1009C00008FB00BF4DF808EDFFF7E0FF94BF0120E2
:1009D00000205DF808FB00BF4DF808EDFFF7CEFFE3
:1009E00094BF012000205DF808FB00BF4DF808ED22
:1009F000FFF7C4FF34BF012000205DF808FB00BFF3
:100A00004FEA410C7FEA6C5C02D150EA013C0AD10A
:100A10004FEA430C7FEA6C5C02D152EA033C02D1FC
:100A20004FF0000070474FF0010070474FEA41025D
:100A300012F5001215D211D56FF47873B3EB625230
:100A400012D94FEAC12343F0004343EA505311F057
:100A5000004F23FA02F018BF404270474FF00000E9
:100A6000704750EA013005D111F0004008BF6FF027
:100A7000004070474FF00000704700BF4A0011D29D
:100A800012F5001211D20DD56FF47873B3EB6252E8
:100A90000ED44FEAC12343F0004343EA505323FAF4
:100AA00002F070474FF00000704750EA013002D169
:100AB0004FF0FF3070474FF0000070474FEA41029F
:100AC000B2F1E04324BFB3F5001CDCF1FE5C0DD9AC
:100AD00001F0004C4FEAC0024CEA5070B2F1004FF6
:100AE00040EB830008BF20F00100704711F0804FF9
:100AF00021D113F13872BCBF01F00040704741F4BE
:100B000080114FEA5252C2F11802C2F1200C10FAC1
:100B10000CF320FA02F018BF40F001004FEAC123A5
:100B20004FEAD32303FA0CFC40EA0C0023FA02F349
:100B30004FEA4303CCE77FEA625307D150EA01331F
:100B40001EBF4FF0FE4040F44000704701F00040EF
:100B500040F0FE4040F40000704700BF80F00040CD
:100B600002E000BF81F0004142001FBF5FEA410385
:100B700092EA030F7FEA226C7FEA236C6AD04FEA85
:100B80001262D2EB1363C1BFD218414048404140CA
:100B9000B8BF5B42192B88BF704710F0004F40F47C
:100BA000000020F07F4018BF404211F0004F41F498
:100BB000000121F07F4118BF494292EA030F3FD064
:100BC000A2F1010241FA03FC10EB0C00C3F1200377
:100BD00001FA03F100F0004302D5494260EB400006
:100BE000B0F5000F13D3B0F1807F06D340084FEA71
:100BF000310102F10102FE2A51D2B1F1004F40EB66
:100C0000C25008BF20F0010040EA030070474900CD
:100C100040EB0000013A28BFB0F5000FEDD2B0FA6A
:100C200080FCACF1080CB2EB0C0200FA0CF0AABF8D
:100C300000EBC25052421843BCBFD040184370472B
:100C400092F0000F81F4000106BF80F40000013231
:100C5000013BB5E74FEA41037FEA226C18BF7FEA08
:100C6000236C21D092EA030F04D092F0000F08BF4A
:100C70000846704790EA010F1CBF0020704712F031
:100C80007F4F04D1400028BF40F00040704712F170
:100C900000723CBF00F50000704700F0004343F0D5
:100CA000FE4040F4000070477FEA226216BF08460B
:100CB0007FEA23630146420206BF5FEA412390EACE
:100CC000010F40F4800070474FF0000304E000BFC4
:100CD00010F0004348BF40425FEA000C08BF704775
:100CE00043F0964301464FF000001CE050EA010239
:100CF00008BF70474FF000030AE000BF50EA01024E
:100D000008BF704711F0004302D5404261EB41013A
:100D10005FEA010C02BF84460146002043F0B6435F
:100D200008BFA3F18053A3F50003BCFA8CF2083A84
:100D3000A3EBC25310DB01FA02FC634400FA02FC8D
:100D4000C2F12002BCF1004F20FA02F243EB020094
:100D500008BF20F00100704702F1200201FA02FCF6
:100D6000C2F1200250EA4C0021FA02F243EB0200E9
:100D700008BF20EADC7070474FF0FF3C06E000BF80
:100D80004FF0010C02E000BF4FF0010C4DF804CD14
:100D90004FEA40024FEA41037FEA226C18BF7FEA24
:100DA000236C11D001B052EA530C18BF90EA010F26
:100DB00058BFB2EB030088BFC81738BF6FEAE170B5
:100DC00018BF40F0010070477FEA226C02D15FEA51
:100DD000402C05D17FEA236CE4D15FEA412CE1D0BD
:100DE0005DF8040B704700BF844608466146FFE784
:100DF0000FB5FFF7C9FF002848BF10F1000F0FBD66
:100E00004DF808EDFFF7F4FF0CBF012000205DF85E
:100E100008FB00BF4DF808EDFFF7EAFF34BF0120E3
:100E200000205DF808FB00BF4DF808EDFFF7E0FF7C
:100E300094BF012000205DF808FB00BF4DF808EDCD
:100E4000FFF7D2FF94BF012000205DF808FB00BF30
:100E50004DF808EDFFF7C8FF34BF012000205DF812
:100E600008FB00BF4FEA40024FEA41037FEA226CD1
:100E700002D15FEA402C08D17FEA236C02D15FEAFD
:100E8000412C02D14FF0000070474FF00100704735
:100E90007BB972B90029BEBF00204FF0004106E0C7
:100EA00008BF00281CBF6FF000414FF0FF30FFF774
:100EB0004FB9ADF1080C6DE904CE002909DB002B18
:100EC0001ADB00F09CF8DDF804E0DDE9022304B051
:100ED0007047404261EB4101002B1BDB00F08FF8B3
:100EE000DDF804E0DDE9022304B0404261EB41019A
:100EF000524263EB43037047524263EB430300F0FB
:100F00007EF8DDF804E0DDE9022304B0404261EB45
:100F100041017047524263EB430300F070F8DDF883
:100F200004E0DDE9022304B0524263EB430370475F
:100F300053B94AB9002908BF00281CBF4FF0FF3140
:100F40004FF0FF30FFF704B9ADF1080C6DE904CEA6
:100F500000F055F8DDF804E0DDE9022304B0704745
:100F6000D0B50C4B002206460F46FFF7AFFAFFF74D
:100F700085FD0446FFF730FA074B0022FFF7A6FA7B
:100F800002460B4630463946FFF7E8F8FFF776FD94
:100F90002146D0BD0000F03D0000F04110F8012BCB
:100FA00011F8013B012A28BF9A42F7D0D01A7047A6
:100FB000034611F8012B03F8012B002AF9D17047E1
:100FC000034613F8012B002AFBD1181A0138704789
:100FD00038B50022002304460D46FFF7E9FC28B986
:100FE00020462946BDE83840FFF7BABF204605F144
:100FF0000041FFF7B5FF404261EB410138BD2DE9EB
:10100000F04786468C460846089E154674461946A3
:10101000002B40F0C2808542B2FA82F245D94AB133
:10102000C2F1200300FA02FC2EFA03F3954043EAD2
:101030000C0C94404FEA154EA8B2BCFBFEF8230CF2
:101040000EFB18CC08FB00F943EA0C43994528D95C
:10105000EB1808F1FF3704D2994502D9A8F102072D
:101060002B44A3EB0903A4B2B3FBFEFC0EFB1C3321
:101070000CFB00F044EA0344A04214D92C190CF1F3
:10108000FF3304D2A04202D9ACF102032C44241A4B
:1010900043EA07401EB1D440002334607360BDE8CA
:1010A000F0874746DDE76346F1E792BB431B01212A
:1010B0004FEA154EAFB2B3FBFEFC200C0EFB1C3307
:1010C0000CFB07F840EA0343984562D9EB180CF192
:1010D000FF3004D2984502D9ACF102002B44A3EBB7
:1010E0000803A4B2B3FBFEFC0EFB1C330CFB07F79A
:1010F00044EA0344A7424ED92C190CF1FF3304D221
:10110000A74202D9ACF102032C44E41B43EA00409D
:10111000C0E7C2F1200320FA03F1954090402EFA77
:1011200003F303434FEA154EAFB2B1FBFEFC0EFBD7
:101130001C10190C0CFB07F841EA0041884504FA21
:1011400002F422D969180CF1FF3004D2884502D983
:10115000ACF102002944A1EB08019BB2B1FBFEFCFB
:101160000EFB1C110CFB07F743EA01439F420ED90B
:10117000EB180CF1FF3104D29F4202D9ACF102010D
:101180002B44DB1B41EA004192E76046E3E76146FE
:10119000F7E76046A3E76346B7E7834206D916B987
:1011A000002108467BE7C6E900E0F9E7B3FA83F7D8
:1011B0008FB9834201D3724508D8BEEB020460EBBD
:1011C000030301209C461EB9002168E73846FAE770
:1011D000C6E9004CF8E7C7F1200CBB4022FA0CF43A
:1011E0001C432EFA0CF120FA0CF3B84001434FEAED
:1011F00014490EFA07F5B3FBF9F81FFA84FE09FB50
:1012000018300B0C08FB0EFA43EA00439A4502FA29
:1012100007F240D9E31808F1FF3004D29A4502D909
:10122000A8F102002344A3EB0A0389B2B3FBF9F847
:1012300009FB183308FB0EFE41EA03418E452CD909
:10124000611808F1FF3304D28E4502D9A8F10203D8
:10125000214443EA0040A0FB0298A1EB0E01414566
:10126000CE46434602D306D14D4504D2B9EB020E19
:1012700068EB04030138002EA6D0B5EB0E0261EB3B
:10128000030101FA0CFC22FA07F34CEA0303F940CC
:10129000C6E9003198E74046C5E74346D9E7000074
:1012A0002DE9F047064688B00F46904636F091FF8C
:1012B0004FF47A73A0FB034503FB0155E40B012FA8
:1012C00044EA45444FEAD53507D1294922462B4601
:1012D000304633F092FE002012E0D8F80470254822
:1012E0003946FFF75BFE70B123483946FFF756FEDB
:1012F00048B1304621493A4633F09BFE6FF0040076
:1013000008B0BDE8F0872046294617A3D3E900239B
:10131000FFF7BEFD05460C4610461946184A002345
:10132000FFF7B6FD80460F46104619464EF660227E
:101330000023FFF7ADFD82468946104619464FF45B
:101340007A720023FFF7A4FDCDE902A9CDE90623B7
:10135000CDE90401CDE900870A492A4623463046F3
:1013600033F04BFEB7E700BF005C2605000000002D
:10137000CFD60400E0D60400E3D60400ECD6040087
:1013800080EE360004D704002DE9F843D0E9073891
:10139000856903EB08042F34A5420F46164619D879
:1013A000DFF87080A3FB080117A3D3E90023FFF740
:1013B000BFFD0346601BA0FB080123F07F4412A37E
:1013C000D3E90023FFF7B4FD20F07F403C6030609C
:1013D000BDE8F883DFF83C900BA3D3E90023A5FB1D
:1013E0000901FFF7A5FD20F07F4409480A2106A363
:1013F000D3E90023E8FB0901FFF79AFD20F07F40C5
:101400003C603060BDE8F8838D49FD1A070000009C
:1014100000166BF100CA9A3B154B164A30B44FF0D8
:10142000FF31154C196015492060154B4FF0FF3402
:1014300041F6FF75C1E90045002000219FED0A7BC0
:10144000C3E900010F4C1049104D114800230B60F7
:1014500084ED007BC2E900330E492B6003600B6012
:1014600030BC11F04DBF00BF1F00000000000000A5
:10147000B8740020A074002098740020C0000020E0
:10148000C00F0020B8000020B07400209474002029
:10149000AC740020A87400202DE9F04F8DB09A465E
:1014A000179C9DF85890636C05460E46904653B1C4
:1014B000B4F884301BB1B4F882209A4278D2D4F8C0
:1014C0008820002A77D14FF6FF739A4520D02778DD
:1014D0000137FFB22770002F78D06F496F4BC1F8EA
:1014E000048004F11C000022C86081F80A900D609D
:1014F000A1F808A09960012011460EF029F90028F2
:1015000073D1636CC4F89C5013B1204617F06EFB86
:1015100094F8245015F001054AD1614A614B1178C5
:101520001B788B4277D04FF6FF739A45D4F88880AA
:10153000B4F8829015BF0AF101074FF0000ABFB25C
:101540005746B8F1000F30D0B9F1000F2DD0626FBF
:101550000AF1010A40F271211FFA8AF301FB02FA33
:101560000AFB03F30993504B4FF0070BA6FB030153
:101570000BFB061146A3D3E90023FFF7D9FC099A18
:10158000494B1618A5FB03010BFB051140A3D3E93A
:101590000023FFF7CDFC50443044804586BFA8EBC4
:1015A0000606C4F88860C4F888A04F44A4F8827086
:1015B0000DB0BDE8F08F616F40F27123A1FB031302
:1015C000914273F10003FFF47EAFF1E7374A3849E7
:1015D000384840F64A1332F01AFE87F31188BFF3F9
:1015E0006F8F0323184602DF77E7304A32493148CC
:1015F00040F66E1332F00BFE002383F31188BFF325
:101600006F8F0323184602DF636CC4F89C50002BD5
:101610007FF47BAF7CE7013304210BA8137022F029
:10162000A7F90B9B25490694A1FB0321581A244ACC
:10163000009501EB50012348A21AA0FB0202090AFF
:1016400040F24710D20900FB113302321E490591C6
:101650000133CDE90355CDE90155D2B20121284628
:101660000B930FF07DFD10F0FD0F0DD00F4A1749C1
:10167000104840F2BB7332F0CAFD85F31188BFF306
:101680006F8F0323184602DF0B9D4CE7AFF30080FA
:1016900000CA9A3B00000000DC760020E80200202F
:1016A000DF980020DE9800208D49FD1A6CAE040002
:1016B00078AF04004CA7040040A9040021F1D490A5
:1016C000C80F0020CDCCCCCCED6B02007CAF040069
:1016D000002900F072812DE9F04F91B0002840F010
:1016E000B882B74C174694F88C2012F001051E46BC
:1016F00040F0B98294F82500FF2300F0030084F83D
:10170000273021F09DF894F88C00410700F1068104
:1017100094F8352094F8293004EB820204EB83031B
:10172000D2F83880D3F82CA0B8F1000F00F0DC809C
:101730004146504616F09CFA0546002840F0398193
:101740009AF8003013F00E0F40F04881236A002B06
:1017500040F02E8110F0C2FE0546002800F0B38252
:1017600010F0C8FE0A90002800F0AA8219F09EFB33
:101770008346002800F0A182D0F894004FF6FF7253
:101780000BF11C03ABF830200B93002800F0D08243
:101790000BF188020BF184010DF054FF9BF89A20A5
:1017A00022F007028BF89A200022CBF89420ABF8A5
:1017B00098209AF8002002F00F02072A00F0A88271
:1017C0009BF8822022F0770242F011028BF88220EF
:1017D000012211467B48D0F801C0CBF8AFC1D2003E
:1017E000CBF8B5C110F801CB42EA01219BF8AE213C
:1017F0000CF0010C6CF300026CF341028BF8AE218B
:101800008288ABF8B321ABF8B921BBF8822022F46F
:10181000E16211439BF84320ABF8821002F03F02D3
:1018200062F07F028BF843209BF848207F214FF025
:10183000000922F00F028BF8DE104FF4C0218BF864
:101840004820CBF89C115846CBE915998BF8459068
:10185000ABF83690CBF83A90CBF85C90ABF8A2910D
:10186000ABF898911CF0D2FA8BF86091CBF86451E8
:1018700019F020FF9BF8A81160F302018BF8A81162
:1018800019F01EFF9BF8A81160F3C5018BF8A81191
:101890009BF8941169F341018BF894119AF8002098
:1018A00002F00F02072A0ABF94F825100121490906
:1018B00058461AF0B3FB0BF1E0001CF04FF80A9BFE
:1018C000236700220B9BE5662362CBE90522CBF858
:1018D0001CB08BF8002022F0ABFB002800F08380C6
:1018E00015F00CFB032564E09AF8003003F00F03B9
:1018F000072B5DD0344822F055FDC0B2002840F0DF
:10190000E28194F8353004EB8303D3F83880042364
:1019100088F80030062388F8013009E7C0F3C000DA
:101920002A4604F18D0121F05BF9FF2884F8270095
:101930003FF4EEAE284620F0C9FFE9E6234B0993B9
:1019400000200EAA186002250892214E214A059215
:101950000321CDE902000694CDF81080CDF8048073
:101960003B46009007962A460E950FF099FB0EA96C
:1019700010F07CFEC0B90EAA174908924AF2D8327C
:1019800000920591CDE903000321CDE901000796FE
:101990003B46069401220E950FF04EFB0EA910F067
:1019A00065FE002800F03F81236A0BB115F0A6FA0E
:1019B0000C25284611B0BDE8F08F15F0E3BA00BF42
:1019C000C80F002023ED0400FC0F0020FC7600204F
:1019D00095150200991401004D6A020003F00F03EF
:1019E000072B00F0AA81C24B1B78022B00F0AB81C1
:1019F000002323640026374694F8242094F82630E8
:101A0000A4F88460C2F34202012100250DF13500E3
:101A100094F82560C4F888708DF8352003EA010732
:101A2000A4F882500DF0ACFFC6F3820602460028EF
:101A3000BAD0009733464146504614F0A5FFAD4951
:101A4000AD4B2570A0FB0101C0184FF0310341F1EF
:101A50000701A360C4E90555A3A3D3E9002365608A
:101A6000E560FFF765FAB4F8749020610FF0C0FCF0
:101A700000F11807B9F1000F08D19AF8005005F0ED
:101A80000F05A5F10105B5FA85F56D0994F8243027
:101A9000D4F8108065F3000313F0010584F82430B6
:101AA0007FF44CAFA36C002B00F0CB80D3F800A0E8
:101AB0009AF8523003F0030BBBF1010F40F0C180E4
:101AC0000DF137030EA901930DF136032A460A9151
:101AD00000938A480B46202100F06AFA0546002848
:101AE0007FF467AFDDF83910504617F0D5FE666C0D
:101AF000002E00F0568136680A9908F102033B4433
:101B000030460E9300F0BCF95F2211460B90304630
:101B100017F062F8774974A3D3E90023A0FB010111
:101B2000FFF706FA0E9B0B9902330B4420F07F401F
:101B30002A465146C518714801F072F92A460346F3
:101B400051466E4801F0B4F900287FF42DAF636C64
:101B50009DF837205A759DF8363084F829305D4657
:101B6000636F94F8802040F27121A3FB0131002AB9
:101B700040F0FE8042F6DC32981841F1000140F25C
:101B8000E2420023FFF7D4F980B2B0870B9A0E9996
:101B9000304600F0BDF900287FF406AF4FF0010B8E
:101BA0000A9B08935648574BCDF8108008F247120D
:101BB000069491211A600993A9FB000301FB0931E6
:101BC000514B0793514B05934FF6FF734FF00008AD
:101BD0004FF00209039344A3D3E90023CDF8088012
:101BE000CDF83890FFF7A4F9032101903B464A460F
:101BF000CDF8008040460FF053FA0A9910F036FDF8
:101C000000287FF4D1AEBBF1000F0CD096F84E3017
:101C100043F0010386F84E302DB19AF8523043EA72
:101C200009038AF8523094F88C30002043F0010305
:101C300084F88C3018F064FC80B9012020F0E2FDBB
:101C40000CE0666C002E40D10EABB246B3460A9350
:101C5000A6E7274B1B78022B3FF4AAAE00252846A7
:101C600011B0BDE8F08F224B1B78022BF6D194F80F
:101C7000352094F8293004EB820204EB8303916B46
:101C8000D86A15F0F5FF054600287FF492AE236C64
:101C9000002B3FF48DAE1A7902F0FF014AB942F2EF
:101CA000107207FB02F2A4F88210A4F88460C4F852
:101CB00088201B79002BD1D07AE60A9810F020FCFE
:101CC000284610F011FC072573E608F10203366878
:101CD0003B440E930EAB194630460A9300F0D0F801
:101CE0004FF0000A0B903BE78D49FD1A07000000FA
:101CF000DD98002000CA9A3B8C49FD1AC80F0020CD
:101D0000002AE784FC760020951502009914010052
:101D100094F825109BF88220490961F3020261F3CF
:101D200006128BF8822094F8262002F0010251E579
:101D30000BF18C00CBF894002AE59AF802305A0691
:101D40007FF551AE02E510F0C9FB0546E8B110F091
:101D5000D1FB00B300230560037194F824302064A4
:101D6000DB073FF547AE42F2107303FB07F743E68C
:101D700002FB01110132A2FB0303194440F2E242CB
:101D80000023FFF7D5F880B2FFE6236A002B9AD034
:101D900015F0B4F897E7236A002B91D015F0AEF850
:101DA0008EE7B346FCE600BF2DE9F04190F8243001
:101DB00090F8257090F826808AB00D46C3F3420350
:101DC000044601210DF1230016468DF823300DF055
:101DD000D7FDC7F3820708F0010802463B463146AB
:101DE0002846CDF8008014F0CFFD1F491F4AA0FB04
:101DF0000131981841F1070119A3D3E90023FFF736
:101E000097F823699842054622D21B1A00220192B4
:101E1000174A0293174BA21AA3FB02320221D209DE
:101E200000230A4409AE099113490591CDE9033312
:101E30000321D2B20696009318460FF091F931466D
:101E400010F014FC40B9256100200AB0BDE8F08113
:101E5000FAD9C21A0023DAE70C200AB0BDE8F081F3
:101E60008D49FD1A0700000000CA9A3B8C49FD1AF3
:101E7000C80F0020CDCCCCCC95150200000000008E
:101E80002DE9F04182B004461F4E204F884616F0DF
:101E900081F8072500236360E36029463346E0FBB1
:101EA00007313122A260184615A3D3E90023FFF7BA
:101EB0003FF894F8313020F07F4004EB8303206139
:101EC000596B5F231A46204616F002F82946E0FBBC
:101ED00007610BA3D3E900233046FFF729F801A9D6
:101EE00020F07F401FF002FF18B9019B0233C8F8B1
:101EF0000030002002B0BDE8F08100BFAFF30080E9
:101F00008D49FD1A070000008C49FD1A00CA9A3B52
:101F10002DE9F04700268CB08846C0E905662049C7
:101F200006701746502204460DF06CFB0546A08F44
:101F30001C4940F2E24202FB00F002230B93A0FB9B
:101F4000010115A3D3E90023FEF7F2FF0DF12C0ADE
:101F5000CDF820A00694194623691F44124B07931D
:101F6000124B05938146002310464FF47A72CDE957
:101F70000367FEF7DDFF0335EDB2CDE9019043467F
:101F80002A460096304603210FF056F8514610F0CD
:101F90006DFB0CB0BDE8F0878D49FD1A070000000D
:101FA0004C77002000CA9A3B95150200D17F0200B1
:101FB0002DE9F04FA5B00C461E4640F201232E99A4
:101FC0000E92A3432F9A0F910546109200F09F8125
:101FD00095F8293005EB8303D3F82CA09AF800700C
:101FE00007F00F0204F40073072A0C9309920FD034
:101FF0002BB90C230993099825B0BDE8F08FD6F8CA
:1020000001203178284625B0BDE8F04F15F084BE98
:102010000AF104019AF802300B910C9913F03F0277
:1020200018BF9AF8032011B17F2B00F292810F990B
:10203000089205F1280022F06BFA9AF80010037854
:10204000024601F00F0123F03F030B4302F8023B6D
:1020500081469AF8023099F8021018929B0963F3AE
:10206000871189F80210696C089A05F11C004FF07D
:102070000008002900F0EE824B7D01EB8303986994
:102080000B681293C3780D900230169003F0010094
:10209000159001F1140010990A93089222F038FA71
:1020A000804699F8000098F800100D9B089A00F0FF
:1020B0000F0021F03F01014388F80010197898F8CB
:1020C0000000C1F3801161F3861088F800001978D0
:1020D0000A9BC909C0B261F3C71088F8000099F8DB
:1020E000021098F80200890961F3871014F00101C9
:1020F00088F802004FF0010B02F0010040F0178158
:10210000002800F05D819AF8000098F800C0C0F344
:10211000801060F3861C88F800C099F8000061F315
:10212000861089F800000AF10A000B901598002823
:1021300040F05A810D980430089003F00200179087
:10214000900740F121810B9998F800C006310B915E
:102150009AF800104046C90961F3C71C00F810CB7B
:102160004FF0030B99F800106FF3C71189F80010B6
:10217000179911B108990631089112F008011C91C4
:1021800002D00B9902310B91811C0A9114F00801C5
:1021900000F0F88002213170D6F801101B91C6F8CA
:1021A000010005364BF0080113F008078B461D9718
:1021B00002D0089F0237089712F010071E9702D02E
:1021C0000B9F03370B974FF018078DF8687009F1D4
:1021D0000907119703F010071397E70640F1C7802E
:1021E000871C41F0100B0321C6F8017031700536D1
:1021F0001399002900F0C38000211F910899033131
:1022000008911BF0100F1CBF05300A9003F020004E
:10221000A7065FFA8BF1149040F19E800A98C6F8E9
:1022200001004BF02001122030708B460536C9B2F8
:102230001498002800F09880002020900898123010
:102240000890890602D50A9912310A91520610D5D2
:102250000B9A01320B9295F8252002F01C02102AED
:1022600000F017824FF058028DF8682009F10A0239
:1022700011925B0604D5089B013308934BF0400B89
:102280005FFA8BF319931BF04003219302D00A9B52
:1022900001330A93119B189A9B1ADBB2022B03D8C5
:1022A00009F1030311930123089A1699501AC0B239
:1022B000022803D80D9A0332089201200D9A517812
:1022C0008142C0F08F810A9F08F10202BA1AD2B28D
:1022D000022A03D808F103020A9201220C9F002F60
:1022E00000F08680089C081AD6F80110C6F8014054
:1022F0003478C0B230700536002C40F0818100295E
:1023000000F0E98127460C94A446204684E0B24AB6
:10231000B249B34840F2FB5331F079FF002383F315
:102320001188BFF36F8F0323184602DF50E616F8BB
:1023300001EB98F800C06EF3861C88F800C099F88D
:1023400000C06FF3861C89F800C000283FF4EEAE91
:10235000E9E6122309934EE60E9880063FF568AF32
:102360001498002840F05E811498209069E70E9F31
:10237000FF063FF53DAF139F002F40F04E811399AC
:102380001F913EE71B910DE708F10A0000297FF439
:10239000E9AE179F002F00F039810D9898F800C022
:1023A0000078C00960F3C71C40464FF0030B00F8EB
:1023B00010CB99F800C061F3C71C89F800C0D9E6BA
:1023C0001598002800F00E810D9898F800C000784C
:1023D000C0F3801060F3861C88F800C099F80000F4
:1023E00061F3861089F800000D980A300890A4E681
:1023F000670500F1FA800E9CA40500F17281DDF8FA
:1024000030C00C1A0899E4B2674604EB0C0EBEF11A
:102410001F0F20463FF7EFAD104460445F2800F3E4
:10242000088199F8020089F80130013B63F3050047
:1024300089F8020098F80230501E60F3050388F80E
:1024400002303E463B190A9F1A4488F8012038465C
:10245000224636F098F80C9B23B1324619463819BB
:1024600036F083F898F802309A0600F0B1801A9B93
:102470005B0640F121810B9A119912F8013C01F899
:10248000013C531E0B934B1E1193149B13B1089BDD
:10249000123B0893199B9F0602D50A9B123B0A9395
:1024A000209B23B10A981946122236F06CF81E9B25
:1024B00013B10B9B033B0B93119E95F8253016F837
:1024C000032C6FF3050206F8032C5C0921F002FED1
:1024D00032288CBF0020012094FAA4F3002CB3FA18
:1024E00083F308BF4FF0FF335B0106F8013C16F899
:1024F000033C60F386136FF3C71306F8033C002315
:1025000006F8023C139B13B1089B033B0893199BED
:10251000DE0602D50A9B033B0A931F9B23B10A9850
:102520001946032236F02FF81C9B13B10B9B023B7C
:102530000B931D9B13B1089B023B08931B9B002B25
:1025400000F00B811B9A537812781B0203F470631E
:102550001A431198D1B200F8051C95F87E30C3F3E8
:1025600003031B0103EB122300F8043C0A9800F854
:10257000021C95F87E30C3F303031B0103EB122307
:1025800000F8013C199B9D0700F186800238199BD9
:10259000DC0709D5159B002B00F0F680089B991FDE
:1025A0000638062235F0EFFF99F8023099061CBF75
:1025B0009DF8683089F8033098F802309A06129B2B
:1025C00018BF88F803B093F84E30DB0700F18F8016
:1025D000002309930FE500BF58B00400CCB00400FD
:1025E0004CA704001F23099305E5081A3178C4B2EB
:1025F000D6F801000C900F468C460536089904E782
:102600004FF0000C6746CDF830C0FEE699F800C0E8
:1026100061F3C71C89F800C0AFE541F0100B0899C1
:102620001F91EBE54BF02001089820908B46C9B232
:1026300004E6A2F15F033A461A4413462344CA450E
:10264000337000F09C800D9B984500F093804523EB
:102650000993D0E416F0A8F8089A1290002800F028
:102660009F801299CDF8548091F8313001EB8303AB
:102670000121586B0D90074617F8023B41701299E3
:10268000169703F03F03037080F803801C31434624
:10269000FFE44BF0400BECE5179B002B77D0089B39
:1026A000063B08930A991A6841F8082C9B8821F880
:1026B000043CA1F108006AE7219B002B3FF4E5AE42
:1026C000089A0A9912F8013C01F8013C531E08933C
:1026D0004B1E0A93D9E60F46044608990C97BC4650
:1026E00093E60C9C21462746A446204694E6129C7D
:1026F000204615F04FFC364A364B0721E0FB0231ED
:10270000184631A3D3E90023FEF712FC256920F017
:102710007F44AC423FD22E1B0025129F2E4902233C
:102720005022384623930CF06DFF00232B4901956E
:10273000C21C23AD0591CDE9033303210296D2B229
:102740000093184606950EF00BFD29460FF08EFFFC
:1027500000287FF44EAC3C613AE795F87E30204982
:1027600003F00F0331F81320501C21F81300C2F3BB
:102770000B02EEE6109A6B6C12785A7567E70F9BA6
:102780001B7885F829305EE70B9B991F08E70B9BA8
:10279000063B0B9386E77FF61BAF651B0026BCE765
:1027A000CA457FF428AC0F4A0F49104840F22E6307
:1027B00031F02DFD129B83F31188BFF36F8F03233C
:1027C000184602DF17E400BF8D49FD1A070000001C
:1027D00000CA9A3B8C49FD1A4C77002095150200DF
:1027E0002877002058B004001CB104004CA7040056
:1027F00070B590F803C01CF0010F14BF00F10A047B
:10280000041D1B481CF0020F15461E464FF0070220
:10281000A1FB000318BF063402FB01311CF0080FB6
:1028200011A3D3E9002318BF0234FEF781FBAD1BCF
:1028300010492844A1FB00310D09490C04D00E4B6E
:10284000A3FB003001214509A2782078657022F0B1
:102850001F02C5F3042361F3C71013432070A37054
:10286000204670BDAFF3008000CA9A3B0000000014
:102870008D49FD1A89888888B5814E1B00000000AB
:102880002DE9F04F91B0D0F844B0B34900240E9434
:10289000DBF8003009930646502218460CF0B2FED1
:1028A000D6F89CA00C94FF23C51CEDB28DF82F30F8
:1028B0005346CDF834A00124AA460DF13C090DF190
:1028C00038080CAF1D460DE00D9BAB4203D0002C29
:1028D0002FD0013CE4B29DF82F30FF2B3DD09A451C
:1028E0004ED00D9D9D4B059300200221CDE900782F
:1028F000CDE90300CDF8189002900DAB0DF12F0239
:102900000F910EF00FFD022800F0F6800F9B002BB8
:10291000DAD0934A9349944840F6AF4331F077FCBC
:10292000002383F31188BFF36F8F0323184602DF60
:10293000CAE78E498A4A8C4840F6B84331F067FCB2
:1029400084F31188BFF36F8F0323184602DF9DF8CD
:102950002F30FF2B4FF0FF04C1D18549804A8248B8
:1029600040F6BA4331F053FC002383F31188BFF3E0
:102970006F8F0323184602DF9DF82F309A45B0D1A0
:102980000E9D7C4A0C9FA5F57423A3F5107393420A
:1029900007D905F1E875013F05F5D4350C9705F524
:1029A000A575754BCBF80C70A3FB0535AD0CCBF8BA
:1029B000105096F8282096F829100E958A42D3B226
:1029C00004D00133DBB2022B08BF002306EB8303E4
:1029D00096F82520D3F82CA0BBF808909AF801307F
:1029E000C2F38202032A40F29380DC0096F826307C
:1029F00003F001035B002B3401339C4004F5BC74ED
:102A0000A4B25E4B4FF00708A7FB030108FB0711B8
:102A10004DA3D3E90023FEF78BFA594A05EB000CCE
:102A2000A2FB0C1204F5967422F00F01A3B2A1EBE5
:102A30001212B3EB420F22D9099A5248938F40F2F7
:102A4000E24202FB03C5A5FB000141A3D3E9002339
:102A5000FEF76EFA494B20F07F47A7FB0301CBF846
:102A60000C7039A3D3E9002308FB0711FEF760FAC5
:102A700009F101092D1ACBF810501FFA89F92A46DD
:102A8000394600235046FFF7B3FEDBF80C300999B6
:102A9000099D0133CBF80C3091F84D2091F84C3062
:102AA000934202EB420305EB430318BF81F84C202D
:102AB00093F84530062101FB02524032E98F04466B
:102AC00003F03F0348461FF0D7F9237860F305036E
:102AD00023700EF08DFC0D990EF08CFCD6E90121CF
:102AE000F36891422CBFC3EB0103C3EB020398428E
:102AF00015D211B0BDE8F08F0F9B022B7FF406AF0B
:102B0000022100200EF05CFC0F9B022BF8D0FDE6AA
:102B1000D4180934E4005210D440A4B271E7104A2A
:102B20001949114840F6065331F071FB002383F335
:102B30001188BFF36F8F0323184602DF11B0BDE881
:102B4000F08F00BFAFF3008000CA9A3B0000000086
:102B50008D49FD1A070000004C770020CD7F020050
:102B600058B0040040B104004CA7040048B1040070
:102B700078B10400BFBDF07F83DE1B438D49FD1A91
:102B80008988888800CA9A3B9CB104000000000034
:102B90002DE9F04F91B0D0F848B0099000250E957E
:102BA000DBF8003092490893184658220CF02AFDB1
:102BB000FF23061DCDE90C55F6B28DF82D30042407
:102BC0000DF13C0A0DF12E090DF138080CAF0DE0A6
:102BD0000D9BAB4203D0002C2FD0013CE4B29DF8FA
:102BE0002D30FF2B3DD09E424ED00D9D814B059345
:102BF00000200221CDE90189CDE90300CDF818A01C
:102C000000970DAB0DF12D020F910EF08BFB0228FA
:102C100000F0D7800F9B002BDAD0774A77497848AD
:102C200040F6AB2331F0F3FA002383F31188BFF3AE
:102C30006F8F0323184602DFCAE772496E4A704855
:102C400040F6AD2331F0E3FA84F31188BFF36F8FC0
:102C50000323184602DF9DF82D30FF2B4FF0FF04B1
:102C6000C1D16949644A664840F6AF2331F0CFFAD2
:102C7000002383F31188BFF36F8F0323184602DF0D
:102C80009DF82D309E42B0D10E9B60490C9FA3F55C
:102C90007422A2F510728A4207D903F1E873013F4A
:102CA00003F5D4330C9703F5A573089A5849526D70
:102CB000A1FB03139E0C5549A2F57423A3F51073D1
:102CC0008B4207D902F1E872013702F5D4320C9732
:102CD00002F5A572099B596C4D4B487DA3FB02324E
:102CE000950C0A7D0E958242D3B204D00133DBB23B
:102CF000022B08BF002301EB83018C69E378D8071E
:102D000048BF0A34434858BF0434990748BF0634C3
:102D10001A0748BF02340721DB06A7FB000301FBAB
:102D2000073131A3D3E9002348BF0334FEF700F98C
:102D3000731B1844B0F5161F374A28BFA0F51610AC
:102D4000A2FB00122CBF40230023550C4FEA1211A6
:102D500043D0324AA2FB0020C0F34712C0F34430F4
:102D60000343203363702270BBF81010BBF814309B
:102D7000BDF82E200B44134423829BF824209BF89B
:102D800025108A429BB206D0BBF826001B1A13F40A
:102D9000004F08BF0A461821062313FB02130BEB52
:102DA00003025BF803306360137903F01F0323729F
:102DB00021F08EF9237A43EA4013237211B0BDE863
:102DC000F08F0F9B022B7FF425AF022100200EF025
:102DD000F7FA0F9B022BF8D01CE743EA1233DBB261
:102DE000CAB2BFE7AFF3008000CA9A3B0000000000
:102DF000C0770020B98C0200BCB1040040B10400CF
:102E00004CA7040048B1040078B10400BFBDF07FB6
:102E100083DE1B438D49FD1A89888888B5814E1B46
:102E200038B50023C1E905330C460B708AB3256A17
:102E300053789278687A3E33C2F305029B1A7F2852
:102E40004FEA5011DBB21CD9AA7A02F00102DB0072
:102E500052002B330132934003F27D431248134A50
:102E60000721E3FB002100253123A36010466560A4
:102E70000BA3D3E90023E560FEF75AF8206128464A
:102E800038BD0B440933DB004910CB4003F2053356
:102E9000E4E791F8453001EB83039A6CC7E700BF84
:102EA0008D49FD1A0700000000CA9A3B8C49FD1AA3
:102EB0002DE9F047B1F850500E4640F2E2418CB097
:102EC000904601FB05F558221D4930461F460CF07F
:102ED00099FB04461B4802230B93A5FB000116A394
:102EE000D3E90023FEF724F80DF12C0ACDF820A039
:102EF0000696194633691F44134B0793134B0593EA
:102F000000258146002310464FF47A72CDE903571D
:102F1000FEF70EF80434E4B2CDE9019043462246B0
:102F20000095284603210EF087F851460FF09EFBCE
:102F30000CB0BDE8F08700BF8D49FD1A0700000006
:102F4000C077002000CA9A3B95150200298D020027
:102F5000F0B58A784B7803F13E01C2F30503C91A34
:102F60008BB0C9B2044616F067F81D491AA3D3E91D
:102F70000023A0FB0101FDF7DBFF266920F07F4560
:102F8000AE4220D9761B0027022316490993582206
:102F900020460CF037FB002313490296021D09AEB0
:102FA0000591CDE903330321D2B20197009318466E
:102FB00006960EF0D5F831460FF058FB38B925616A
:102FC00000200BB0F0BDFBD2AF1B0026DCE70C20CD
:102FD0000BB0F0BDAFF300808D49FD1A0700000073
:102FE00000CA9A3BC077002095150200000000003F
:102FF00070B5294C9DF810E094F8565015F0020574
:1030000042D110F0080F4FEA500605D094F8AEC038
:103010001CF0020F38D1583471B3A4F844104FEAB1
:10302000401C94F832101D484FEACE0E0EF0180ED8
:103030000CF0200C4CEA0E0C21F038014CEA010C8B
:1030400094F83C1084F832C066F3020184F83C1016
:1030500094F8561063F3830184F85610A2FB000322
:10306000912101FB02310AA3D3E90023FDF760FFA0
:10307000A064E064284670BD94F83C3061F302031C
:1030800084F83C30284670BD0C25284670BD00BF32
:103090008D49FD1A0700000058780020002AE784B7
:1030A00010B504469DF8080022854FEA411CC00077
:1030B000A17D00F018000CF0200C4CEA000C0C482C
:1030C00021F038014CEA010CA3FB0002912184F8A5
:1030D00016C001FB032104A3D3E90023FDF728FF59
:1030E000E06210BDAFF300808D49FD1A07000000BB
:1030F000002AE784000000002DE9F04F90F85630D8
:1031000090F83220DFF85492DFF854826FF3000316
:10311000044600F13E01C3F3800060F386128DB0D7
:1031200084F8563084F832200EF0B8F994F8322042
:10313000B4F844308448E46102F07902002684F84F
:1031400032209121A3FB000201FB0321C4E90566A3
:103150007BA3D3E900232670FDF7EAFE7B4AE36CEC
:10316000A364A4EB0905A2FB05251833C5F3871555
:1031700031229842A26005EB450298BF0346666083
:10318000E6608CBF23612061074648F8223098BF73
:10319000A6644FEA450A002D5AD199F8943003F0FD
:1031A0000703032B72D84FF0000B0EF021F9236AAE
:1031B00000F11806002B00F083800DF12C09AA44C1
:1031C00008EB8A030993CDF820900694B4F84430B4
:1031D0005D484FF00008A3FB0002CDF80C80912160
:1031E00001FB032123690493594B0793594B059322
:1031F0004FF0020A52A3D3E90023CDF82CA0FDF72B
:1032000097FE104619464FF47A720023FDF790FEA0
:1032100006355E44EDB2CDE90170032133462A46FE
:10322000CDF8008040460DF03BFF49460FF01EFAF6
:10323000002841D194F8563043EA0A0384F8563006
:1032400014F0B8FB002856D000200DB0BDE8F08F78
:10325000012DA8D199F83C30DB07A4D5A66C002E2F
:10326000A1D0B9F8443038489121A3FB000201FBFA
:10327000032133A3D3E90023FDF75AFE87424FF021
:10328000000B47D00023C8F80C308EE7A66C002E48
:1032900089D0B9F89C302C489121A3FB000201FB96
:1032A000032127A3D3E90023FDF742FE874226D05E
:1032B0000023C8F8003076E70C200DB0BDE8F08F91
:1032C0000DF12C09CDE90A3321694B460AAA0320E6
:1032D00001F096FE00287FF472AF0B991E4818A3E8
:1032E000D3E90023A1FB0001FDF722FE0A9B20F099
:1032F0007F461E4463E750461FF084FAA4E7D9F8DE
:10330000A03033449F42D3D302339F429CBF193E27
:103310002661CDE7D9F8483033449F42B2D3023317
:103320009F42AFD8193E2661D9F84830C4F848B05A
:10333000C9F848B003F1020BA4E700BFAFF3008067
:103340008D49FD1A07000000002AE784A38B2EBADE
:1033500095150200DD9C020000CA9A3B58780020B7
:1033600040780020000000002DE9F04F0B79082B79
:1033700093B00C46074600F0FA80092B00F0D0808D
:10338000062B11D0B24AB349B3484FF4CC7330F096
:103390003EFF002383F31188BFF36F8F032318468A
:1033A00002DF13B0BDE8F08FD1F80890D9F81830DB
:1033B0006BB1A74AA949A848D92330F028FF0023B8
:1033C00083F31188BFF36F8F0323184602DFD9F808
:1033D0000080404617F060F80630C3B20B9301201E
:1033E000A37E2760002666F38613A37694F8213027
:1033F000E660002B74D004F1220A3546B64694F8F4
:103400002220910669D094F823C01CF0010F14BF4C
:1034100004F12A0104F124011CF0020F18BF063147
:103420001CF0040F18BF01311CF0080F18BF023147
:103430001CF0100B1CBF8B4603311CF0200F18BF73
:1034400012311CF0400F18BF0131C2F30502A1EB8D
:103450000A010132D2B2C9B28A4238BF0A469A4240
:103460003ABF9A1A5FFA82FA4FF0000ABBF1000FD6
:1034700000F0B9809BF802C09BF801104FEA0C22C3
:1034800002F4F8520A4300F0AE80BEF1000F40F0A3
:10349000F480BCF15F0F4FEA5C1E40F22181002DE9
:1034A00000F04F822B8F53449BB22B87A383B8F13C
:1034B000000F00F0AD8098F856306A6BDB0700F122
:1034C000FC80D460EE6A6C63002E00F0B080284669
:1034D00013B0BDE8F04F17F003B9013BDBB2CDB933
:1034E000A383214638460FF011F813B0BDE8F04F22
:1034F0000FF018B8082394F81AE0237100227346DD
:1035000062F38613A37694F821302760E260002BE3
:1035100040F090822A8F13449BB22B87A383C6E787
:103520008E684F4B35689D423ED1D5F82C90B9F14D
:10353000000F00F0C6804A493C2208460CF062F8B1
:103540000830C3B20B93D9F8000016F0BFFF8046D5
:10355000707900F00700022878D00428CAD001282A
:1035600054D03B4A3B493C484FF4AB730FE7D1F88A
:103570000890D9F818306BB1354A38493648EC23F1
:1035800030F045FE002383F31188BFF36F8F0323D0
:10359000184602DFD9F80080404616F07DFF06305D
:1035A000C3B20B9304201BE7D1F80C80B8F1000FD5
:1035B00000F0AC81D8F80050EB6A9E4258D0244A03
:1035C0002849254840F21D1330F021FE002383F3E3
:1035D0001188BFF36F8F0323184602DFFF23B14624
:1035E0000B934646AFE7002D50D02B8F53449BB230
:1035F0002B87A383BEF1000F3FF459AF6B6B002BF9
:103600004AD0DC606C6313B0BDE8F08F062372E72C
:103610000F4A1549104840F2C13330F0F8FD88F3E5
:103620001188BFF36F8F0323184602DF43E7084A70
:103630000E49094840F2E93330F0E9FD86F311887C
:10364000BFF36F8F0323184602DF40E7072352E7DB
:10365000A4B2040024A804004CA7040000B3040092
:10366000347900201CB304009CB20400E8B20400CA
:10367000FF23B1460B93464665E7002D00F05581C8
:103680002B8F53449BB22B87A383B7E7A4F81CA0CE
:10369000BEF1000F3FF425AFAF4AB049B04840F249
:1036A0005A2330F0B4FD002383F31188BFF36F8FEA
:1036B0000323184602DF6B6BA3E76B6BA342A0D119
:1036C0006FE6A54AA749A64840F2051330F09FFDD2
:1036D00089F31188BFF36F8F0323184602DF2AE7AF
:1036E0009BF900100029B4BF4FF496711E2110F011
:1036F000040F0C9101FB02F29BF8001000F01881FE
:10370000D800A37EC3F380035B002B30013300FAA3
:1037100003F303F5BC730C9803F5967C1018604511
:10372000C0F0F08049064CBF32214FF4FA718E4848
:1037300002FB01F1A0FB0101890C0D910121CDE9F2
:103740000E3201FA0EF3D8B2109320F079FA6169C3
:103750000F9A0E9B11902F390A44D31A0D9A1B1AF7
:1037600082489B1AA3FB000179A3D3E90023FDF74C
:10377000DFFB20F07F430E9394F91A30002B80F288
:10378000B680002D00F002812B8F53449BB21E2B7C
:103790002B8704D994F91A20002ABFF688AE6A6BE9
:1037A000002A00F00D81D4602B8F6C63A3839BF8FB
:1037B0000010109BB28801F03F0141EA032122F47E
:1037C000E76240F23F7322F007020B401343B380DD
:1037D00094F91A30002BC0F2F580B8F1000F00F018
:1037E000108198F8563013F001037FF466AF6B60D8
:1037F000EB603123AB60737903F00703032B00F216
:10380000A38003F10902D2005B10DA40119B5748F4
:1038100003F205331344564A0721E3FB0021104607
:103820004BA3D3E90023FDF783FB0D9B0C9A2F33A9
:1038300002EB430320F07F4028610022B3600221A5
:1038400001200BF04FFF0B9AFF2A1BD023690E9922
:103850000026493B0B44CDE90066012130460DF0BE
:1038600097FC10F0FD0F0DD03B4A42493C4840F216
:10387000963330F0CCFC86F31188BFF36F8F0323AF
:10388000184602DF3C493C2228460BF0BBFE3B4A6F
:103890002369CDE907253A4ACDE9052529690024A0
:1038A000CDE9034100F108020E990091CDE90144F0
:1038B000493BD2B2012120460DF0BEFB10F0FD0FB6
:1038C0000DD0254A2F49264840F2A63330F09FFC00
:1038D00084F31188BFF36F8F0323184602DF0122A0
:1038E0000221104613B0BDE8F04F0BF0FBBE0DF007
:1038F0007FFD23690E9A383B99180DF07BFD02027B
:103900003FF53FAF002D7FF4D2ADEAE5124A1E49E4
:1039100013484FF48D7330F07AFC88F31188BFF3AD
:103920006F8F0323184602DF44E6A4F81CA0B3E619
:1039300000F0030C63440933DB00C0F34000C340D4
:10394000E9E6A4F81CA0CCE54FF434725EE700BFB2
:103950008D49FD1A07000000A4B2040030B3040032
:103960004CA7040010B3040083DE1B4300CA9A3B3B
:103970008C49FD1A70B3040034790020CDA70200F1
:10398000C9A50200A0B3040014B304002C480BF036
:103990000BFE0546002843D0002290F8201002704C
:1039A000C0E9052262F3C7115346A0F838A0C061F0
:1039B00080F8201002634263C0F82C9000F11C06CE
:1039C0002C63F2E6D9F8183083B1B3420ED01D4A09
:1039D0001D491E4840F2333330F019FC002383F3B5
:1039E0001188BFF36F8F0323184602DFC9F81860F0
:1039F000A37E43F04003A37633796FF386133371CC
:103A0000CFE4104A1249114840F24A3330F0FFFB2C
:103A100088F31188BFF36F8F0323184602DFE0E6B7
:103A200094F91A30002BBFF65CADA37E43F040033F
:103A3000A37656E5CEF3C00E04F1220ADFE400BF00
:103A400030790020A4B2040044B304004CA7040061
:103A50009CB20400000000002DE9F04F05468BB039
:103A60008B46012002219946144624F0AFFC002227
:103A70000221824601200BF035FE3F494FF4E072EF
:103A800028460BF0BFFD00F109063C4B0093F6B24F
:103A900001954B463246012100200DF0FFFB10F04E
:103AA000FD0F0ED0364A3749374840F68F0330F0C5
:103AB000AEFB002383F31188BFF36F8F03231846F7
:103AC00002DF324BA4FB0348204629A3D3E900239D
:103AD0004146FDF72DFA2E4B20F07F47A7FB03311F
:103AE0000722E01A02FB071168EB01014FF47A721A
:103AF0000023FDF71DFACDE90170CDF800B008955F
:103B00000695296995F9434022480491224931EAF2
:103B1000240128BF01460591204C07944FF6FE7101
:103B200003914B463246012100200DF085FA10F03A
:103B3000FD0F0ED0124A1349134840F6A40330F08B
:103B400066FB002383F31188BFF36F8F03231846AE
:103B500002DFBAF1000F02D10BB0BDE8F08F0122F5
:103B6000022110460BB0BDE8F04F0BF0BBBD00BF0B
:103B70008D49FD1A07000000681000202DAE0200DC
:103B800010B4040070B304004CA7040000CA9A3BB0
:103B90008D49FD1A011503000D170300CDAD02007C
:103BA0002DE9F0418468228E4FF6FF739A428CB063
:103BB00045D0054620461AF043FC2B7D012B00F032
:103BC0002281022B00F01581002B00F0F48094F884
:103BD0006061002E40F010812B8A678F94F943209A
:103BE000CDE90A6673B3002AC0F25A810023A4F813
:103BF0009E31AA7C238FFD1802F003030135012BAF
:103C0000ADB23BD0B4F8A231002B00F005819D424B
:103C100080F059815B1B9BB20022062BA4F8A231D5
:103C2000628740F2F68094F943309342C0F25081AB
:103C3000002326E09DF82710204617F083FE0CB0E5
:103C4000BDE8F081002AB8BF84F88961238FAA7C7F
:103C5000FD1802F003030135012BADB20ED0B4F80C
:103C60009E31002BCED0AB4240F23C815B1BA4F8CE
:103C70009E31B4F8A231002BC9D102E00023A4F890
:103C8000A23194F8482063F3820284F84820294640
:103C90000DF1270220461AF0F5F87430CAD0B4F8B6
:103CA0009C312BB1AB4240F2EC805B1BA4F89C3101
:103CB000B4F898312BB1AB4240F2DA805B1BA4F828
:103CC0009831658F16B9AF4200F0C9800135ADB2A9
:103CD00094F8DD3013F0010731D1DDE90A130A460B
:103CE000002B40F0CC80002900F0BB801F46184616
:103CF000228EE4690694CDE9035609329A4D02906A
:103D0000CDE90017D2B20121002005950DF028FA67
:103D100010F0FD0F93D00EF0D3FC84428FD0934A65
:103D2000934994484FF4AE6330F071FA002383F363
:103D30001188BFF36F8F0323184602DF7FE794F9E2
:103D400043206FF30003002A84F8DD307FDB94F812
:103D50008200C0F3C00100F007001FF06FFFB4F84D
:103D60007A20B4F878301344628D03F20933134497
:103D70000344814A81480721E3FB0021104678A3D0
:103D8000D3E90023FDF7D4F8DDE90A1320F07F42E0
:103D900020692261904235BF171A801A002000273F
:103DA0000A46002BA4D157EA010CA1D1002858D013
:103DB00019461F469CE794F89A3003F01803182B15
:103DC0007FF405AFA18EB4F89A218B1D9A42C4BF2F
:103DD000931F5B1AB4F89611CCBF9BB2134699425D
:103DE00000F09C80A4F89631A4F89831A4F89C21A6
:103DF000EDE63D2684F86061314620460CB0BDE812
:103E0000F04117F09FBD0023A4F89C31A4F898312D
:103E1000DDE60126334634E7628E052A97BF01327C
:103E200040F2E2434FF4FA7392B203FB02F2B4F8A9
:103E3000A03142F2107101FB0323013BB3FBF2F30B
:103E40009BB2A4F8A231002B7FF4E1AE19E794F8FD
:103E50008300012100F007001FF0F2FE7FE73546E6
:103E600036E7002D43D00027114638463B463FE752
:103E70000023A4F8983120461AF0A6F821E7384626
:103E800036E70EF085FB0146A0B30023A4F89C3171
:103E9000238EC3801B23037100680EF049FB07E7E4
:103EA00094F889316BB3013B84F8893104F1E0085F
:103EB000404619F095FDB8B3404619F091FDB8B3EE
:103EC0000023638792E60821204617F03BFDB6E603
:103ED000A7B9D4F88C315A0813F0010336D1C4F8CD
:103EE0008C21A5E63E21204617F02CFDA7E6002EEA
:103EF000B9D1A4E60123A4F89C31D9E613460126E2
:103F0000BFE60AAA0BA92846FDF73EFADDE90A2317
:103F10001343CBD0237884F88931C7E7B4F89C11D8
:103F200000297FF454AE5FE7FF2017F0A3FCC3E73E
:103F30000246D4E921010BF09DFB0028C0D194F882
:103F400048301B0744BFA38E63874FE642F0004210
:103F50001E46C4F88C213B4693E600BFAFF30080B9
:103F60008D49FD1A0700000089AD020010B404005D
:103F700034B504004CA704008C49FD1A00CA9A3BD2
:103F80002DE9F04F87B0CDE90432BDF84420037825
:103F90000292BDF84820BDF840A0BDF84C90878F34
:103FA000019104460392002B00F0FC80013FBFB258
:103FB000A368D4F81CB1A7EB090292B2002B0092BF
:103FC0000ADAE168626823F0004391422CBF8B4417
:103FD0009344A360ABEB030B94F88200C0F3C001E1
:103FE00000F007001FF02AFE658E052D40F2E180EB
:103FF000009BBAF1050F15FB03F5ADB240F2E248A4
:1040000040F2E280B4F87A20B4F87830134403F236
:104010009F3303447C4A7D480721E3FB00214FF096
:104020009613A36296231046A38575A3D3E90023B4
:10403000FCF77EFF564620F07F4040F2E24308FB4B
:1040400005F103FB06F6B1FBF6F81FFA88F52061CF
:1040500006FB05F08142A84680F09680401A6B4925
:1040600067A3D3E90023A0FB0101FCF761FF20F067
:104070007F408344E38EB4F824211344994494F898
:104080004330A9EB0709C844DB09A4F8368000F0E7
:10409000A780E26C0099636D02FB1133636520F029
:1040A00019F8074694F88801C0F3420020F014F88C
:1040B000074406FB07F7564B07F5742707F23F271F
:1040C000A3FB0737BF0C636DE76405FB07F07208BD
:1040D0000344963A934228BF1346C4E91423059B30
:1040E0004A4D40F2E24808FB03F3E3650023A0FBDE
:1040F0000501C4F8903142A3D3E90023FCF718FF6F
:10410000049BABEB000B4348A0FB0330800A08FB89
:1041100000F0A0FB05013AA3D3E90023FCF708FF58
:10412000F71B20F07F45029BA386039BA4F8A031D8
:1041300031462046A4F832A019F0E0FE364BA18E9D
:104140003344881DB3FBF6F39AB29042A4F89A2147
:1041500004D2C1F57F41FA310A4492B2019BA4F81E
:10416000962113B10023A4F8A2315B463A462946B2
:104170002046FFF771FC94F8943143F0010384F872
:10418000943107B0BDE8F08F091A20481CA3D3E989
:104190000023A1FB0001FCF7CBFE20F07F40ABEB3E
:1041A000000B67E7C38E1F44B0F824311F44BFB231
:1041B000FEE6009B013515FB03F5BAF1050FADB224
:1041C0004FF4FA783FF61EAF4FF096130AF101064E
:1041D000A3629623A385B6B219204FF4FA732EE793
:1041E000049B0A48A3FB000105A3D3E90023FCF7C5
:1041F0009FFE20F07F453746013594E7AFF30080FE
:104200008D49FD1A070000008C49FD1A00CA9A3B2F
:1042100083DE1B435917B7D17FC3C90100000000DB
:104220002DE9F04F04460B6890F820701668D3F81B
:1042300000A0E38CD0F8220095B015464A7CADF87A
:104240004C30FF2AC7F3801388460D9212908DF8E8
:104250003F3040F00E8299461A4612AB93E80300B5
:104260000DF1400B1090ADF84410F8090AF19301DC
:1042700027680A915B460C900B9717F027FA0A996A
:10428000002840F0DE8196F8AE310C9A0A9069F36E
:10429000410362F3000386F8AE311098BBF8043096
:1042A000C6F8B501A6F8B931DAF89330C6F8AF31DF
:1042B0008B88A6F8B331638E94F83410A9722B81E1
:1042C000D4F82E306B60D4F83E30C5F8223005F1BA
:1042D000220094F84230037105210BF051FB95F850
:1042E000273000F03F0060F3050385F8273094F88D
:1042F0004330C3F3040185F82810218FE982012897
:1043000003F01F0389B240F29C811B3303F01F03AB
:104310000B2B00F296810A9A002900F09281D8F8BE
:1043200000305A60638F2B83E98ADAF8442040F228
:10433000E24303FB01F7E18E0A91002A00F01F829D
:104340009AF8251040F6C41240F6A6637F2988BF6C
:104350001A460C920021304619F0E4FD94F84330DF
:1043600096F888215B0963F3430286F888211FF0E1
:10437000B1FE814696F88801C0F342001FF0ACFE02
:1043800009EB000307FB03F3CD4A03F5742303F2A3
:104390003F23A2FB03239B0C2B637B08963B6B63A1
:1043A00094F8353040F2E24202FB03F36B64A38FD2
:1043B000A6F8A0313946304619F0A0FDC14BC24ADB
:1043C000C6F8A4213B44B3FBF7F39AB2A6F89A21AE
:1043D000298B881D824204DDC1F57F41FA310A44F0
:1043E00092B2A6F896216B68C6F88C31DAF84430A0
:1043F000002B00F0BF814FF00109E20700F1788146
:104400004FF4807323849AF827001EF001FD04F115
:104410002F03002800F04281A26AC4F82F20A28D49
:104420009A800D9BFF2B00F0C181BDF84C30129893
:10443000A4F82D30C4F82900BBF80430A4F82730C4
:1044400010989DF83F30C4F8230084F82230EB8A9E
:10445000E3862B8B2387B6F8A031638796F88831E3
:10446000C3F3420384F83C30304616F02BFDA8829B
:10447000E08021460B98D8F804400EF047F8AB8A4C
:10448000E3801C23D4F800B02371B9F1000F40F091
:10449000568184F8209012F0A9FE002840F0378160
:1044A000214658460EF044F895F86700B5F85C4090
:1044B000B5F85E90012100F007001FF0C1FBA14498
:1044C00009F29F3981440446804A81484FF096138F
:1044D0000721C5E90333E9FB002131234FF000092F
:1044E0001046B360C6F8049073A3D3E90023C6F85E
:1044F0000C90FCF71DFD20F07F4030610A99D8F840
:104500000C302D6B40F2E24202FB01330C992F3B41
:1045100019440C1B4A46022101200BF0E3F8DAF89B
:1045200044307D1BA3B11F68384614F0EDF8C21C5F
:10453000684B0097D2B2012148460CF06DFE01286D
:1045400000F03A8197F84E306FF3000387F84E3051
:10455000504613F015FA07465D4857A3D3E90023E8
:10456000A4FB0001FCF7E4FCCDF804A0D8F8083067
:104570005849009120F07F4BBA1C493BD2B25B44B2
:10458000012100200CF08AFE012800F0FA809AF840
:104590002430DB0700F18680304616F093FC4C4B4C
:1045A000A5FB0359044644A3D3E900232846494602
:1045B000FCF7BEFCD8F80830474A0792A3F1490837
:1045C000464B069620F07F47A7FB0331E81A444B81
:1045D00005934FF4F573089333694FF0000ACDE962
:1045E00003A34FF0070303FB071169EB01014FF42D
:1045F0007A720023FCF79CFC0934E4B2CDE9017027
:10460000CDF800B043462246012150460CF014FD7F
:1046100010F0FD0F0DD0334A3349344840F2EB130C
:104620002FF0F5FD8AF31188BFF36F8F032318462F
:1046300002DF0122022110460BF054F815B0BDE84C
:10464000F08F0022CAF8142095F82C300B9862F3F2
:10465000000385F82C30E5680126214626710DF00F
:1046600055FF28682E7129460DF062FF15B0BDE890
:10467000F08F0DF1400B10460DF13F015A461DF031
:10468000FFFD9DF83F9094F8207009F102095FFA50
:1046900089F98DF83F9009F00102E6E5C4F82F0092
:1046A0009880BEE6002301220093184611460CF0C4
:1046B000B3FD71E7AFF300808D49FD1A07000000DC
:1046C00083DE1B437FC3C901404B4C008C49FD1A5C
:1046D00000CA9A3BC11403008D1403008D49FD1AD2
:1046E0000115030040BA040070B304004CA7040095
:1046F0003B4A3C493C48FD232FF089FD002383F3CE
:104700001188BFF36F8F0323184602DF78E6214636
:1047100058460DF0FBFEDAF840405046D4F800B0A1
:1047200013F02EF910F0FF0914D100231222A4F87F
:10473000069023722271AA8A62816372B0E695F8AC
:10474000273043F0400385F82730281D1DF090FBEB
:1047500028859EE6224A2549234840F251132FF02E
:1047600056FD002383F31188BFF36F8F0323184690
:1047700002DFDAE794F82030C3F340193DE60C93EA
:10478000E8E50DF09DFF82453FF401AF144A18495A
:10479000154840F292232FF03AFD002383F311884D
:1047A000BFF36F8F0323184602DFF0E60022C4F840
:1047B0002920A4F82D203FE60DF082FF87423FF428
:1047C000C1AE074A0A49084840F292232FF01FFD64
:1047D00089F31188BFF36F8F0323184602DFB1E618
:1047E00040BA040078AD04004CA70400ACAE04004D
:1047F0009CBA0400000000002DE9F04F8DB09B46EC
:10480000BDF860300793CDE90501BDF868309DF82B
:104810005C90BDF864A09DF86C8002920020049327
:1048200015F086FE002800F0B18009F0010704466B
:1048300038460CF023FE03902FB106210AF0F6FE55
:10484000002800F0AD80169B03995A46384616F0B2
:104850003DFF002840F09680012015F069FE0646D5
:10486000002800F0938018F0040F00F09380036A92
:10487000002B00F09A8006F11C0595F8203068F3B3
:10488000020385F820306B680893002B00F0A280AB
:10489000D5F80480D8F800400BF0010A98F86600BB
:1048A000C0F3C00100F007001FF0C8F995F82030F0
:1048B00003F00703032B7ED803F12802D2005B101C
:1048C000DA40B8F85C30934238BF1346A8F85C3041
:1048D00095F8202002F00702032A69D802F1280186
:1048E000C900521021FA02F2B8F85E10914238BFA6
:1048F00011465A18B8F80E30A8F85E1000F20930C8
:1049000003441344BE48BF4A0721E3FB002110467D
:10491000B9A3D3E90023FCF70BFB20F07F40206113
:10492000029C20461DF0AEFF2B8C03F0BF0363F00A
:10493000FF032B84002C41D0A9F10203012B40F28C
:10494000368196F8561069F3830186F8561095F86B
:1049500020106AF3451185F8201016990968A9609E
:1049600016998988A9810499A98202990091DDE9A3
:10497000052328460021FEF793FBF06400200DB0CC
:10498000BDE8F08F0B200DB0BDE8F08F0C200DB00E
:10499000BDE8F08F236A2BB104F11C0526466CE7B5
:1049A0001220F0E7036A2362F6E7236A036262E7F4
:1049B0004FF4296298E74FF4296282E71EF0E8FB82
:1049C0000028B9D0029A169958461EF009F985F8C0
:1049D0002100B1E70DF082FD0990002800F0098167
:1049E00016F064FA0446002800F0008120300AF036
:1049F000DBFF04F11C08002840F0E480032104F1EF
:104A000024001EF08FFF079BD4F8940063864FF6B6
:104A1000FF73A4F834A02386002800F0E28004F19C
:104A2000880204F184010AF00DFEB4F8823023F408
:104A3000EF6323F0070343F48C7343F00103A4F8FE
:104A4000823094F89A304FF0000A23F007030121D6
:104A500084F89A30C4F894A0A4F898A0204617F0DF
:104A6000DDFA7F23A4F836A0C4F83AA084F8DE303B
:104A700004F13E001DF0A6F994F8433060F30503FD
:104A8000012184F843300DF12F001EF04BFF049BF1
:104A90009DF82F20A4F8A0315B4B84F845A0A3FB20
:104AA0000213DB0803EB4303A2EB830294F84330C9
:104AB000A18EA4F8A2A103F03F0384F8433094F838
:104AC0004830A4F898A1053223F0070384F8442065
:104AD000079A84F8483040F2E24A4C4B0AFB02FA4B
:104AE0004FF4C0225344C4F89C21881DB3FBFAF351
:104AF0009AB28242A4F89A2102DD063A521A92B280
:104B0000A4F89621204619F081F95146204619F063
:104B1000F5F90021099B84F86011C4F8643116F09E
:104B2000C9FD94F8A83160F3020384F8A83116F0A7
:104B3000C7FD94F8A83160F3C50384F8A83194F850
:104B40009431002161F3410384F8943104F1E000D1
:104B500018F004FF94F8AE31169A0BF0010A6AF3CC
:104B6000410384F8AE314FF09613C4E90A33312380
:104B7000A3600021169B6160E1601B68C4F8B53139
:104B800094F8AE319288A4F8B92169F30003039A2E
:104B900084F8AE311368C4F8AF319388A4F8B33108
:104BA000C5F80480C4E905112170E46176E60020AF
:104BB0001DF08CFE95F8203043F04003B94685F88F
:104BC0002030BEE6124A13491348C1232FF01FFBC1
:104BD000089B83F31188BFF36F8F0323184602DF0E
:104BE0000CE704F18C00C4F8940018E709980DF064
:104BF0007BFC0720C7E600BF8D49FD1A07000000B7
:104C000000CA9A3B8C49FD1AABAAAAAA7FC3C90164
:104C1000CCBA040000A804004CA704000000000067
:104C20002DE9F04F05468FB090F82070AB8D806A6B
:104C3000ADF83430EB07C7F3C0180C461646C7F37F
:104C400040170C9000F1308100232B84A37C607C02
:104C500013F001031CBFD5F82230C5F82F3005F141
:104C60002F0214BFEB8CC5F82F30FF28938005F17D
:104C7000290905F1230200F0098105F122011DF047
:104C8000FFFA95F82230BDF834200C98C5F82900B9
:104C9000023385F82230A9F804202368D3F800B045
:104CA000F38AEB86338B2B87BBF830306B871FF092
:104CB0000FFA85F83C00D6F80080404616F002F95D
:104CC0000021B082E880404619F02CF9D4F8049015
:104CD000286829460DF01AFCB38AA9F806301C236F
:104CE000D9F8005089F80430002F40F0ED8089F8A1
:104CF0002070494628460DF01BFCD8F80830D8F83B
:104D0000042096F86600B6F81690E768824D934244
:104D100038BF1346C0F3C00103F1180A00F00700C2
:104D200040F2E24303FB09F91EF088FF0022022152
:104D30003F1A01200AF0D6FC584615F0ADFBA7FB40
:104D4000055773A3D3E900230B9039462846FCF797
:104D5000EFF8CDF804B0A3680B9A7049009120F0E9
:104D60007F460632A3EB0A03D2B23344012100206E
:104D70000CF094FA10F0FD0F0ED0694A69496A48A8
:104D800040F249332FF043FA002383F31188BFF335
:104D90006F8F0323184602DF012015F0B1FB034695
:104DA00098B1834500F0AC8018460B9315F074FB66
:104DB0000B9B0093821D5D4BD2B2012100200CF0B1
:104DC0002BFA10F0FD0F40F08B804FF0000B5B468C
:104DD00005220121CDF800B058460CF01DFA4046DE
:104DE00016F070F8A36804464B48A3EB0A0AA9FB27
:104DF000000147A3D3E90023FCF79AF819464C4B6E
:104E000008934C4B069340F27933CDF81C800993FC
:104E1000D8F810308146CDE904B3104600234FF492
:104E20007A72FCF785F8444B0722A6FB0331CDE9E3
:104E3000029002FB0611E81A67EB01014FF47A7247
:104E40000023FCF775F80934E4B2CDE9006053465D
:104E50002246012158460CF00BF910F0FD0F0DD041
:104E60002F4A3049304840F27A332FF0D0F98BF393
:104E70001188BFF36F8F0323184602DF012202213E
:104E800010460FB0BDE8F04F0AF02CBC0023BDF86F
:104E900034100C98C5F82930A9F8043085F8228020
:104EA000C5F823009180F8E61D4A24491E484FF4B6
:104EB00031732FF0ACF9002383F31188BFF36F8FA8
:104EC0000323184602DFBFE696F8273043F040037D
:104ED00086F82730301D1CF0CBFF0127308506E710
:104EE0000F4A1049104840F25F332FF090F9002329
:104EF00083F31188BFF36F8F0323184602DF64E743
:104F0000002015F0FDFA034600283FF45EAF4BE7A2
:104F10008D49FD1A0700000000CA9A3B7D16030068
:104F2000CCBA040070B304004CA70400B51603000B
:104F3000811603000D1703008D49FD1A78AD04009A
:104F4000032838B50D4610D0042844D00938C3B220
:104F5000032B07D880B215F0BDFF18B190F943308C
:104F6000002B1CDA0024204638BD002013F02CFE54
:104F700004460028F6D05F22114613F02DFE1E4A8B
:104F80001E4B0721E0FB0231184619A3D3E9002389
:104F9000FBF7CEFF20F07F402860204638BD90F818
:104FA00082300446C3F3C00103F007001EF046FE42
:104FB000124A00F5C55310481F330721E3FB0021B7
:104FC00010460BA3D3E90023FBF7B2FF20F07F408C
:104FD0002860204638BD002014F010F80446002850
:104FE000C0D05F2114F028F8C9E700BFAFF30080FC
:104FF0008D49FD1A0700000000CA9A3B8C49FD1A32
:1050000070B588B01E46134606AA029207AA0192FE
:1050100005AA00920024224A07941CF0C5FDFF282F
:1050200034D0069B1F480721A3FB000201FB03218C
:1050300019A3D3E90023FBF77BFF044600B13E34FC
:10504000079D1949059BA5F57422A2F510728A42A5
:1050500014D814480721A3FB000201FB03210EA36F
:10506000D3E90023FBF764FF104BA3FB053504EBEA
:10507000954404443460002008B070BD05F1E87523
:1050800005F5D435013B05F5A575E2E76FF009009C
:10509000F2E700BFAFF3008000CA9A3B00000000B7
:1050A0009D1B03008D49FD1ABFBDF07F83DE1B43AE
:1050B0002DE9F043C668476873683D491A68D0F81F
:1050C0000090A7F57423A3F510738B4283B080463C
:1050D00007D907F1E87707F5D43709F1FF3907F564
:1050E000A57773681169DD8ACDF8049006F1100385
:1050F00001AA0220FFF784FF00284ED10199A1EBFD
:1051000009031B0237D4084649460CF073F90346DD
:1051100028480721A3FB000201FB032122A3D3E9B6
:105120000023FBF705FF34690444002C346109DBDC
:1051300040F2E24305FB03F3A3422FD2E41AA34259
:10514000FCD33461D8F800301A48A3EB0903A3FB61
:105150000002072101FB032113A3D3E90023FBF77E
:10516000E7FE154BA3FB0737A0EB974020443061C7
:1051700003B0BDE8F08348460CF03CF903460D4807
:105180000721A3FB000201FB032107A3D3E90023AE
:10519000FBF7CEFE3469241AC7E73469002CD1D15D
:1051A00003B0BDE8F08300BF00CA9A3B00000000D6
:1051B000BFBDF07F8D49FD1A83DE1B430000000058
:1051C00010B5334C3349002304F1FF3C14F833206D
:1051D000072A02EB820E05D811F83E206FF3451224
:1051E00001F83E201CF833206FF300020CF8332046
:1051F0000133082BEAD1284A284C002313700A787F
:1052000063F300020A7091F8282063F3000281F82A
:10521000282091F8502063F3000281F8502091F883
:10522000782063F3000281F8782091F8A02063F3DE
:10523000000281F8A02091F8C82063F3000281F8F1
:10524000C82091F8F02063F3000281F8F02091F873
:10525000182163F3000281F81821114A9FED0A7B9F
:105260001370104B83ED007B0F4B236028B1BDE81A
:1052700010400E490E4832F0C4BCBDE810400C4846
:1052800032F0CBBCAFF30080FFFFFFFFFFFFFFFF5B
:105290001D840020DC820020E4980020EC810020A6
:1052A000E398002098170020A0BB0D00192B0300E5
:1052B00068170020000000002DE9F04F8FB00DF1BD
:1052C00037010446DFF8E0A0DFF8E0800DF136009A
:1052D0000DF0A4F99DF836309DF837B00B930CF023
:1052E00087F8DAF80060A6FB085629A3D3E9002363
:1052F0000027814631462846FBF71AFECDE907779D
:10530000069420F07F44DAF80400234B0593A0FBB9
:1053100008011FA3D3E90023FBF70AFE1F4B20F06F
:105320007F40A4FB0331072202FB0411CDE9037087
:10533000E81A66EB01014FF47A720023FBF7F8FDDF
:105340000097CDE901404B460B985A4603210BF0DC
:1053500073FE10F0FD0404D06FF08B000FB0BDE8B9
:10536000F08F0F480F4A00232BF00AFB20B9DAF820
:105370000C000FB0BDE8F08F9DF837209DF8360087
:105380000094234603210BF047FF6FF07300E5E71D
:105390008D49FD1A07000000953203008D49FD1A62
:1053A00090840020447B0B00A884002000CA9A3B14
:1053B00038B50F4D04460CF01BF8A9680CF01AF82C
:1053C000696803460B48B3FBF4F4A1FB00011C44DD
:1053D00005A3D3E90023FBF7ABFD20F07F40844217
:1053E00094BF0020012038BD8D49FD1A0700000040
:1053F000A884002000CA9A3BF0B5C468636883B0F3
:105400000546002B6AD122F0D9F8002022F042F99B
:10541000A17A607A01F00101C0F3820022F0E8F87D
:10542000627A252102F01C02082022F067F9484B1D
:10543000019301A822F04EF9464940F25B6022F048
:1054400015FA237AC3F3420262F30613237220464D
:105450001FF0B6F81DF09CFE58BB637A9B071FD166
:1054600027682E6838461EF085FB06446A6806F1F8
:105470001801012022F06CFC22F0AEFD204612F053
:105480008BFA811C3246C9B238461EF081FB0546B4
:1054900078BB20461EF0D4FA88B9002003B0F0BDD6
:1054A00001201DF06FF94178821C007822F0F0FB9A
:1054B000D6E7607A10F0030018BF0120F1E7264A12
:1054C0002649274840F229432EF0A1FE85F3118892
:1054D000BFF36F8F0323184602DFDEE793F82C300B
:1054E0009A0790D01F48214622F026F822F064F94E
:1054F000D3E7194A1C491A4840F211432EF087FE9F
:105500001A4B0721A5FB030301FB05310EA3D3E9C9
:105510000023FBF70DFD1649024616482EF077FED4
:10552000002585F31188BFF36F8F0323184602DF30
:105530001148214622F000F822F03EF96FF08B006E
:10554000ACE700BFAFF3008000CA9A3B0000000048
:10555000D6BE898E555555004CBF040040A90400A5
:105560004CA70400453D030024A804008D49FD1A02
:1055700000C00400CCBF0400E540030000000000B0
:105580002DE9F047C46882B0002306460DF10301FF
:1055900004F1140067688DF803301EF0DBFF8046CD
:1055A000002800F0D5803B7B07EB83031D692B7837
:1055B00003F00F03072B0DD0914A92499248A6237E
:1055C0002EF025FE002383F31188BFF36F8F032392
:1055D000184602DFAB7813F03F0900F09680EB78B5
:1055E000D8074CBF05F10A022A1D990748BF0632A9
:1055F000180748BF0232D90640F194809378517859
:105600001B0203F4F8530B4300F08C80238992F8BB
:1056100000A00133238121F0D1FF002022F03AF8CD
:1056200097F80990B97A4FEA591901F001014846F3
:1056300021F0DEFF4FEA89025F21082022F05EF8A8
:10564000724B019301A822F045F80AF03F0A704915
:1056500040F25B6022F00AF950461EF0ABFAAB78DC
:105660003F2B2BD86B48214621F066FF22F0D4FA5D
:10567000404622F079F82768356838461EF07AFAF5
:10568000054405F118017268012022F061FB22F047
:10569000A3FC204613F042F8C11C2A46C9B2384682
:1056A0001EF076FA054600287BD120461EF0C8F988
:1056B00000283ED1002002B0BDE8F0870DF10301C3
:1056C00007F118001EF046FF054600285BD0214672
:1056D000514821F031FF962022F02EFB484622F05F
:1056E00071FA9DF80330002B46D11DF051FD0028C2
:1056F0003CD17B7A9B07BBD001201DF043F8417859
:10570000821C007822F0C4FAB2E73D4A43493E4881
:10571000AD232EF07CFD89F31188BFF36F8F032337
:10572000184602DF3E48214621F006FF22F044F8E9
:10573000C0E7334A3B49344840F257132EF067FD27
:1057400085F31188BFF36F8F0323184602DFB1E79B
:105750002B4A35492C4892232EF059FD88F31188A5
:10576000BFF36F8F0323184602DF1CE7787A10F02F
:10577000030018BF0120C0E7D8F804306B60B8F808
:1057800008302B81B1E71E4A28491F48DD232EF03F
:105790003EFD85F31188BFF36F8F0323184602DFA8
:1057A00095E7174A224918484FF4A4732EF02FFDAD
:1057B000204B0721A5FB030301FB05310EA3D3E911
:1057C0000023FBF7B5FB1C4902461C482EF01FFDC9
:1057D000002585F31188BFF36F8F0323184602DF7E
:1057E0000C48214621F0A8FE21F0E6FF6FF08B0067
:1057F00061E700BFAFF3008000CA9A3B00000000E1
:105800000CC0040064C004004CA70400D6BE898EFE
:1058100055555500254C0300754C030000A80400A5
:10582000D94D030040A904005CC00400C0BF0400BF
:1058300024A804008D49FD1A94C00400CCBF0400C4
:10584000F0B5C4680189228AA38A0A4492B213443B
:105850000546628298B294F8242094F82530411CC1
:10586000A1829A424FF0000183B0218205D0E18CE1
:10587000411A090402D484F824301A4602EB420388
:1058800004EB430306215B7F01FB02421832E18AED
:1058900003F03F031CF0F0FA074621F08FFE0020D2
:1058A00021F0F8FE63685E7A997A7609304601F055
:1058B000010121F09DFEB2005F21082021F01EFFB2
:1058C00004F1080021F006FFA389A17B40F25B6090
:1058D00043EA014121F0CAFF38461EF06BF900236C
:1058E0000DF1070104F128008DF807301EF032FE9B
:1058F0000646002835D02146374821F01DFE22F00B
:105900008BF9304621F030FF27682E6838461EF0AC
:1059100031F906446A6806F11801012022F018FAEC
:10592000204613F073FB011D3246C9B238461EF003
:105930002FF9054618BB20461EF082F810B900204A
:1059400003B0F0BD254A2649264840F219132EF02F
:105950005EFC85F31188BFF36F8F0323184602DFC7
:10596000EDE71E4A20491F48B3232EF050FC86F372
:105970001188BFF36F8F0323184602DFBBE7174A76
:105980001A4918484FF485732EF041FC184B072133
:10599000A5FB030301FB05310DA3D3E90023FBF7AE
:1059A000C7FA1449024614482EF031FC002585F34D
:1059B0001188BFF36F8F0323184602DF0F4821467B
:1059C00021F0BAFD21F0F8FE6FF08B00B8E700BFC0
:1059D00000CA9A3B00000000DD510300A0C0040093
:1059E00040A904004CA7040060C0040024A80400DF
:1059F0008D49FD1AF0C00400CCBF0400FD3C03003B
:105A00002DE9F041C46894F91630002B8CB0C0F237
:105A10001681636805460E46002B40F00581A37D84
:105A20006FF30003A37521F0C9FD002021F032FEC1
:105A300094F82000012100F0070021F0D9FD94F82E
:105A400020209200252102F01C02082021F056FEA1
:105A500094F8203023F01803012084F820300CF053
:105A6000E3FE0746002800F0D08007F1200021F077
:105A700075FE8D4B0B930BA821F02CFE8B4940F249
:105A80005B6021F0F3FEA07DC0F3410025301EF0E5
:105A900091F88748214621F04FFDA37D9B0603D452
:105AA0006368002B00F0AE80962022F045F90023B9
:105AB0001A461946184622F099F81DF069FB00288D
:105AC00038D1A37D13F0180F5FD1D4F800802F6870
:105AD00040461EF04FF807446A6807F1180100209D
