:020000041800E2
:1000000000000000000000000000000000000000F0
:1000100000000000000000000000000000000000E0
:1000200000000000000000000000000000000000D0
:1000300000000000000000000000000000000000C0
:1004000046434642000000000000000001030300D4
:1004100001000000010200000200000000000000D6
:1004200000000000000000000000000000000000CC
:1004300000000000000000000000000000000000BC
:1004400000000000010405000000000000000000A2
:100450000000000400000000000000000000000098
:10046000000000000000000000000000000000008C
:10047000000000000000000000000000000000007C
:10048000EC04200AF01E04320426000000000000E4
:10049000050404240000000000000000000000002B
:1004A00031040120000000000000000000000000F6
:1004B0000604000000000000000000000000000032
:1004C000000000000000000000000000000000002C
:1004D00021042008000000000000000000000000CF
:1004E000000000000000000000000000000000000C
:1004F00000000000000000000000000000000000FC
:10050000DC042008000000000000000000000000E3
:100510003404200800220000000000000000000059
:1005200000000000000000000000000000000000CB
:10053000C7040000000000000000000000000000F0
:1005400000000000000000000000000000000000AB
:10055000000000000000000000000000000000009B
:10056000000000000000000000000000000000008B
:10057000000000000000000000000000000000007B
:10058000000000000000000000000000000000006B
:10059000000000000000000000000000000000005B
:1005A000000000000000000000000000000000004B
:1005B000000000000000000000000000000000003B
:1005C000000100000010000000000000000000001A
:1005D000000001000000000000000000000000001A
:1005E000000000000000000000000000000000000B
:1005F00000000000000000000000000000000000FB
:10060000FFFFFFFF000000000000000000000000EE
:1006100000000000000000000000000000000000DA
:1006200000000000000000000000000000000000CA
:1006300000000000000000000000000000000000BA
:1006400000000000000000000000000000000000AA
:10100000B0830A10ED9F031809910318D99F0318A4
:10101000D99F0318D99F0318D99F0318D99F031884
:10102000485C120000000000000000000DA1031841
:10103000D99F03180010001869A00318D99F03183E
:1010400000000000000000000000000000000000A0
:101050000000000000000000000000000000000090
:101060000000000000000000000000000000000080
:101070000000000000000000000000000000000070
:10140000B0830A10ED9F031809910318D99F0318A0
:10141000D99F0318D99F0318D99F0318D99F031880
:101420000000000000000000000000000DA10318F3
:10143000D99F03180000000069A00318D99F031862
:1014400065A3031865A3031865A3031865A3031810
:1014500065A3031865A3031865A3031865A3031800
:1014600065A3031865A3031865A3031865A30318F0
:1014700065A3031865A3031865A3031865A30318E0
:1014800065A3031865A3031865A3031865A30318D0
:1014900065A3031865A3031865A3031865A30318C0
:1014A00065A3031865A3031865A3031865A30318B0
:1014B00065A3031865A3031865A3031865A30318A0
:1014C00065A3031865A3031865A3031865A3031890
:1014D00065A3031865A3031865A3031865A3031880
:1014E00065A3031865A3031865A3031865A3031870
:1014F00065A3031865A3031865A3031865A3031860
:1015000065A3031865A3031865A3031865A303184F
:1015100065A3031865A3031865A3031865A303183F
:1015200065A3031865A3031865A3031865A303182F
:1015300065A3031865A3031865A3031865A303181F
:1015400065A3031865A3031865A3031865A303180F
:1015500065A3031865A3031865A3031865A30318FF
:1015600065A3031865A3031865A3031865A30318EF
:1015700065A3031865A3031865A3031865A30318DF
:1015800065A3031865A3031865A3031865A30318CF
:1015900065A3031865A3031865A3031865A30318BF
:1015A00065A3031865A3031865A3031865A30318AF
:1015B00065A3031865A3031865A3031865A303189F
:1015C00065A3031865A3031865A3031865A303188F
:1015D00065A3031865A3031865A3031865A303187F
:1015E00065A3031865A3031865A3031865A303186F
:1015F00065A3031865A3031865A3031865A303185F
:1016000065A3031865A3031865A3031865A303184E
:1016100065A3031865A3031865A3031865A303183E
:1016200065A3031865A3031865A3031865A303182E
:1016300065A3031865A3031865A3031865A303181E
:0416400065A3031883
:101644004FF0340C30B40C4B827A0CFB0232D26A69
:10165400D2E901240C601168827A0CFB023393F8FE
:1016640024201D6B1B32431B22F00302B3FBF2F355
:1016740004FB031030BC7047C0A60610704700BFBF
:1016840011F8043C0846013301F8043C704700BFDC
:10169400086808B5043009F02FFA10B1012300F8E6
:1016A400043B08BD11F8043C013BDBB201F8043CE7
:1016B40003B17047081F09F015BA00BF4FF0340C8E
:1016C40010B5074C807A09680CFB0040C06A0431ED
:1016D400406827F0C5F810B1012300F8043B10BDA1
:1016E400C0A606104FF0340C827A084B0CFB023370
:1016F400DB6A586811F8043C013BDBB201F8043C96
:1017040003B17047043927F093BA00BFC0A606108E
:10171400C16A896800F000B82DE9F04F054691B020
:101724000CA81F4691460F9127F052F9DDE90C34BD
:10173400CDE90A34002D00F0658105F11C06EFF3B4
:101744001188202383F31288BFF36F8F304627F06C
:10175400CBF9002800F07081304627F0A1FA6C8C98
:10176400002C77D02B8CA34233D8631E30466B8475
:1017740027F04AFA002800F04F8188F31188BFF35C
:101784006F8F95F82420298CB24B091B1B322C6BCC
:1017940022F0030201FB0244EB1AAF4A9B1002FB46
:1017A40003F3A37295F82430E3720F9D35BB656192
:1017B40000210123E27A658204F11800616023812B
:1017C40027F006F8204600F0F3FB204611B0BDE8F0
:1017D400F08F00222846002317F0D4FA044600288C
:1017E40057D0304627F010FA002800F0158188F30E
:1017F4001188BFF36F8F0F9D002DD8D0DDE90A2328
:101804004FF034080CA827F037F8DDE90C23A67A4A
:10181400904F204608FB0676F66A0FA936683668AC
:10182400B04703466061002800F0B6800F9B9D42DC
:1018340098BF1D46BCD9894940F24513884A894856
:1018440027F0B2F8884827F0AFF840F245118448F1
:1018540027F07AFA304627F0D7F9002800F0DC8028
:1018640088F31188BFF36F8FB7F1FF3F08BFB9F159
:10187400FF3F10D04A463B46284617F083FA0446F9
:10188400002892D179490B685D0740F0AE800024AE
:101894009BE76C8C69E727F007FA754A431843F114
:1018A4000003A2FB034626F0030404EB96041B1B6F
:1018B400C01AA0FB020361F1000102FB01334FEAED
:1018C400500848EAC37800222846002317F05AFA41
:1018D400044600287FF469AF644E0995336813F019
:1018E400060F11D1002342F21072099817F04AFA38
:1018F4003368044613F0060F17D1002C7FF455AF5C
:10190400336813F0060FEDD0099B022205931B9B4D
:10191400314604931A9B0393564B029300231846B3
:10192400CDE9003300F0CEFCDCE727F0BDF98C46AE
:101934000746099BDFF838E105931B9B17EB0C095D
:1019440004931A9B49F1000903930023AEFB09ABEE
:101954002BF0030A0AEB9B0AA9EB0A09B7EB090768
:10196400A7FB0E796CF1000C0EFB0C9C7F0847EA78
:10197400CC77414DA7EB0807A5FB07C73F4ABF0932
:101984000292184602223146CDE90033069700F050
:1019940099FC002CB4D008E734490A68520707D1EF
:1019A400A57A3420214600FB057016F0D1FF6EE7BE
:1019B4001B9ACDE9000004921A9A0392304A0292CB
:1019C400012200F07FFC6169A57A0029E9D0637ADD
:1019D400DB0707D408FB0578D8F82C3020461B68B1
:1019E4009B68984700236361DBE71B9D254A0495A8
:1019F4001A9D0346CDE90225CDE90000012200F03D
:101A040061FC44E720491748EE23154A26F0CCFF31
:101A1400EE21134827F098F940F231131B4A11487C
:101A24001B4926F0C1FF31461A4826F0BDFF40F29B
:101A34003111164827F088F98823144A09481649B1
:101A440026F0B2FF3146154826F0AEFF88210F4834
:101A540027F07AF9C0A60610C54EECC43848081819
:101A64003C4708189C0F0818BC0F081838A3061028
:101A7400CDCCCCCCA4470818D34D6210C847081865
:101A840014480818F04708189C470818E414081864
:101A94009C150818B4150818141508182C150818DE
:101AA40070B582B00D461646DDE908230021CDE964
:101AB4000023DDE90623FFF72FFE044630B132464A
:101AC40029460C3027F098F801236372204602B0AF
:101AD40070BD00BF2DE9F04F83B0DDE90E6700282B
:101AE40053D00C4615468046034618465B68002BC7
:101AF400FBD1BA4600F10C0738469B4627F064F840
:101B04008442B1461ED2A6B229463846324627F050
:101B1400F3F8A41BB344354431D0B9F1000F16D007
:101B2400DDE90C015246C84748B343461A465B6890
:101B3400002BFBD100F10C075060384627F044F825
:101B44008442E0D3384627F03FF886B2DCE73422FB
:101B54000F4B98F80A0002FB0030C36A9B6893B1EC
:101B6400A34228BF234619460A4B00934FF42A7315
:101B74000193DDE90C23FFF7CFFD0028D5D15846AA
:101B840003B0BDE8F08F2146EEE700F099F900BFFD
:101B9400C0A60610EC4808182DE9F047044686B0A4
:101BA40002A816461D4626F013FFDDE90289002C23
:101BB40000F0818040F2E7114FF0340A019132467F
:101BC4004A4FA67A4A490AFB06762B4600913046CC
:101BD4000021FFF7A1FD0546002865D0F36A1B68C4
:101BE4005B6813B3637ADA071FD4616941B1A37ADE
:101BF40020460AFB0373DB6A1B685B68984701464F
:101C04006961E368EB60238A2B82638A6B82EB7AD7
:101C1400E27A9A425BD104F1180105F1180026F02A
:101C240077FE284606B0BDE8F08742464FF03408F8
:101C3400618A4B4602A8059126F01EFEAB7A28461F
:101C440008FB0373DB6A05A91B681E68DDE9022330
:101C5400B0470646686160B3059B628A9A420ED813
:101C64006B8204F10C0027F00BF82B46064443F872
:101C74000C6F1846228AE16827F03EF8C7E76B7AB2
:101C8400AC7ADB0708D408FB0478D8F82C3001467A
:101C94001B6828469B68984700236B6134202946BB
:101CA40000FB047016F054FE0025284606B0BDE87B
:101CB400F087AC7AF2E70F490F4840F2E3130F4A7A
:101CC40026F072FE40F2E3110C4827F03DF80C496F
:101CD40040F20523094A084826F066FE094826F022
:101CE40063FE40F20521054827F02EF8C0A6061031
:101CF40004490818244908189C0F08183C47081878
:101D04006848081898480818F0B5044648B31AB942
:101D140029E06468091A24B3208A8842F9D900208A
:101D240043B3278AE5687F1A9F4228BF1F46E7B15D
:101D340001392944451E15443E1802E00130B042E1
:101D440006D015F801EF11F801CFE645F6D0F0BD45
:101D54006468DB1B002CFAD0002BF8D0304600213D
:101D6400DFE72046F0BD1046F0BD6468002CEED0DD
:101D74000646F3E71846F0BD08B561B130B1034635
:101D84001A465B68002BFBD1516008BD0B7A0846EC
:101D940001330B7208BD0649064840F23723064A50
:101DA40026F002FE40F23721034826F0CDFF00BFA3
:101DB400644708189C0F08183C47081810B50446D7
:101DC400084679B111461A462CB1636813B38342AD
:101DD40014D14368636000234468436000F0DEF973
:101DE400204610BD114912484FF41373114A26F0CE
:101DF400DBFD4FF413710F4826F0A6FF0E490C4883
:101E04004FF414730B4A26F0CFFD4FF414710948B4
:101E140026F09AFF0949064840F24F23054A26F066
:101E2400C3FD40F24F21034826F08EFF6447081893
:101E34009C0F08183C470818D4480818C4480818C8
:101E440010B550B1A9B144682CB10B461A465B6871
:101E5400002BFBD15460416010BD0749074840F294
:101E64002B23074A26F0A0FD40F22B21044826F03C
:101E74006BFF00F007F800BFBC4808189C0F081857
:101E84003C470818064C08B5064907484FF40B733D
:101E9400224626F089FD4FF40B71204626F054FFAC
:101EA4003C470818644708189C0F081808B50346EF
:101EB40020B118465B68002BFBD108BD00F000F888
:101EC400064C08B5064907484FF40873224626F025
:101ED4006BFD4FF40871204626F036FF3C47081886
:101EE400244908189C0F08183421837A064A01FBF8
:101EF400032292F82430126B1B33801A23F003035D
:101F0400B0FBF3F0704700BFC0A606102DE9F04106
:101F1400069CA14228BF2146144612B307460E462A
:101F240002E064689B1AE4B1228A9342F9D24FF02A
:101F3400000816B919E0002386B1258AE168ED1A74
:101F4400B54228BF354607EB08002A46194426F057
:101F5400DFFC6468761BA844002CECD14046BDE845
:101F6400F081A0464046BDE8F081B046F6E700BFE8
:101F74003422024B02FB0030704700BFC0A606109B
:101F840008B518B1027A0132027208BD0549064843
:101F940040F2D513054A26F007FD40F2D511034857
:101FA40026F0D2FE244908189C0F08183C4708184C
:101FB40008B5437A2BB943686BB942690382C2609E
:101FC40008BD0A490A485A230A4A26F0EDFC5A2158
:101FD400084826F0B9FE084905485B23054A26F05F
:101FE400E3FC5B21034826F0AFFE00BF6C470818F2
:101FF4009C0F08183C4708188047081870B508B3A8
:102004000446EFF31186202383F31288BFF36F8F06
:10201400214826F069FD002830D01F4826F040FEF4
:1020240025682DB162682B689542236008BF636000
:10203400194826F0E9FD88B186F31188BFF36F8F44
:10204400284670BD154916484FF4CD73154A26F03D
:10205400ABFC4FF4CD71134826F076FE40F23113F9
:10206400114A12490E4826F09FFC0B49104826F0ED
:102074009BFC40F231110C4826F066FE88230A4A84
:102084000C49074826F090FC03490B4826F08CFCC9
:102094008821054826F058FEAC84071070250818DE
:1020A4009C0F08183C470818E41408189C150818D5
:1020B400B4150818141508182C15081870B500283C
:1020C4003CD00C4671B30546EFF31186202383F30D
:1020D4001288BFF36F8F274826F006FDA0B125486C
:1020E40026F0DEFD002323606B6853B11C606C6036
:1020F400204826F089FD68B386F31188BFF36F8FFB
:1021040070BD2C606C60F3E788231B4A1B491C4894
:1021140026F04AFC17491B4826F046FC882116483D
:1021240026F012FE184916484FF4C773174A26F0D2
:102134003BFC4FF4C771154826F006FE14491048BD
:1021440040F28D13114A26F02FFC40F28D110F48F6
:1021540026F0FAFD40F23113074A0E49084826F0EA
:1021640023FC04490C4826F01FFC40F231110248BC
:1021740026F0EAFDAC840710E414081814150818B6
:102184009C0F08182C150818244908183C470818EF
:10219400702508189C150818B41508182DE9F0477F
:1021A40088B0002843D006468946174634254FF0A8
:1021B4000008254C3046037A766833B3013BDBB222
:1021C400037253B990F80AA0C36005FB0A42436046
:1021D400936A2BB19847002EECD108B0BDE8F08784
:1021E400416951B1437ADB0705D4D36A07901B6870
:1021F4009B6898470798C0F81480014605FB0A407D
:1022040016F0A6FB002ED5D1E7E710490A6852075D
:10221400E3D005900E480122CDE90130CDE90397C2
:102224001846009300F04EF808B0BDE8F08709495D
:10223400094840F2AB13094A26F0B6FB40F2AB1151
:10224400064826F081FD00BFC0A6061038A306107C
:102254004C480818244908189C0F08183C470818CB
:1022640008B5D8B171B1884207D0CA7AC37A93420B
:1022740005D31831183026F04BFB002008BD6FF051
:10228400150008BD0B490C4840F20F230B4A26F0F9
:102294008BFB40F20F21094826F056FD08490648F9
:1022A40040F20E23054A26F07FFB40F20E2103483C
:1022B40026F04AFDB84808189C0F08183C4708182F
:1022C400B4480818002310B586B00A9C0BA80390E4
:1022D4000590CDE900331846029426F055FC06B06B
:1022E40010BD00BF90F83700B2F800C0C0F3021070
:1022F400844511D1BCF1020F08B50FD0BCF1010F18
:102304001FD109680BBB10315368D3B10868C01AD8
:10231400B0FA80F0400908BD00207047096893B9FD
:1023240018315368101D2BB993681BB9D3680BB9C6
:10233400136933B1102226F0CBFAB0FA80F04009C9
:1023440008BD012008BD0831EBE70C31DCE700BF14
:1023540010B548220021044626F03AFA4FF0FF3225
:102364004FF0FF3309480BF01BFD094BD3E9001272
:102374001C60216022B1BDE8104004480BF0F0BDA0
:102384005C600248BDE810400BF0EABDBCA4061036
:10239400D48E0710002947D010B50B8884B0022BC7
:1023A40019D0012B53D14B68D1F800C08360C0F819
:1023B40004C04B686BB390F8433043F0200343F000
:1023C400020362B343F0080352BA80F84330C28078
:1023D400002004B010BDD1F800C04B688C68D1F85F
:1023E4000CE0C0F804C08360C460C0F810E04B691E
:1023F400D1F810C08361C0F814C04B68002BDAD147
:102404008B68002BD7D1CB68002BD4D10B69002B60
:10241400D1D190F8433043F00203002AD2D123F003
:10242400080380F84330D3E790F8433003F0DD032A
:102434002AB923F0080380F843300020704743F0A2
:10244400080352BA80F84330C2800020704708491C
:102454000B685B0702D16FF01500BAE7002305484B
:1024640001220290CDE90033184600F0FBFCF2E7AC
:1024740040A30610D021091870B506460D464FF04A
:10248400FF334FF0FF3208480BF08AFC074B1C68FF
:102494002CB120462946B0472468002CF9D1BDE868
:1024A400704001480BF05CBDBCA40610F84B07104B
:1024B4009FED0D7B30B40E4B0E4D1C461946002289
:1024C40085ED007B03F5347001E00A46194643F8B4
:1024D400482B8342F9D1084B084AC3E9002430BC95
:1024E400704700BFAFF30080000000000000000050
:1024F400DC8E0710F84B0710D48E07106491071078
:102504002DE9F04F90F83760994683698BB0C6F394
:1025140002160693731E012B00F2C980112A074686
:102524008846154600F0C780062A00F01E81002365
:10253400CDE90333012ED8F800A000F0C7800021B4
:102544000AF1080011F0F8FBD8F800A004461022A4
:102554000AF118010AF1080026F0BAF9002840F03F
:10256400CF80DDE90332934200F0A1809AF818305D
:102574004FF0000BA3F1FF03B3FA83F35B09059358
:102584004FF0FF334FF0FF32A8480BF009FCA84B83
:102594001C68002C00F050814FF0000A4FF0FF330C
:1025A400CDE908BA0793029738E094F842300BB1AA
:1025B4009E4231D1B4F84030AB422DD1E38813B1FF
:1025C400039A934228D1E38B13B1049A934223D103
:1025D40094F843B01BF0020F06D001234146029841
:1025E400221DFFF77FFEB8B11BF0040F07D00023B4
:1025F4004146029804F11C02FFF774FE60B1079B88
:102604000BF0780B5B4507DA059B002B40F0B68096
:10261400A2460FFA8BF30793246894B1A36B002BA3
:10262400C3D0B3F8BA201205BFD593F9BC00029BFE
:10263400D3F818B014F04EFA8345B6D02468002CB1
:10264400ECD1DDF820B0029FBAF1000F20D0DAF807
:102654003460DAF83C4075480BF082FC059B002B93
:102664005CD0099B002B40F0A480DEB14B4642466F
:10267400394650460094B047022813D0112D00F07B
:10268400A480062D00F0C68000200BB0BDE8F08FBA
:1026940066480BF065FC059B002B41D0099B002B81
:1026A40040F08780112D4FD0062D00F09E8002202F
:1026B4000BB0BDE8F08FD9F80030012E1A88D8F895
:1026C40000A003925B8804937FF439AF0AF10C04F1
:1026D4000021204610F0B0FC8346002800F0B080B2
:1026E400DDE903329342E2D0D8F800100B6903F01D
:1026F400F003E02B61D101234FF0000B05933FE77A
:10270400002C3FF433AFDDE903329342CFD0012EE6
:10271400D8F800A07FF42AAF5146E7E7002EA5D1F0
:10272400BBF1000FBED1062D00F0E28097F83730E0
:10273400C3F30213022B00F0ED8003223846114646
:1027440026F0D2FA112DB2D1069B002B00F0248181
:1027540038490698D1F89020D0F8943001320133EA
:10276400C1F89020C0F89430A1E7D9F80030002BCC
:102774009DD01A8803925B880493DBE64FF47A7247
:102784000023029814F0D4FD8346002800F0A080B2
:10279400E36B0146009342464B462046676BB847BD
:1027A40002282FD0112D67D0062D75D0059B0993D3
:1027B40032E7384615F07EFB66E70698103110F0D4
:1027C4000FFE002383460593DAE60698002800F0FE
:1027D400BA801849D0F89830D1F8942001330132E6
:1027E400C1F89420C0F898304EE7069B002B00F007
:1027F400C680104906984A6E836E013201334A66D8
:10280400836654E7112D53D0062D65D0584615F034
:1028140051FBCBE70698002800F0A2800549C36E5F
:102824008A6E013301328A66C3662DE7BCA40610A2
:10283400F84B071088920710A246264609940AE727
:102844001DF01AFFDAF80C2003689A423FF448AFEF
:102854002146584610F0C4FDD8F80010CC680A6927
:10286400944203D000283FF441AF4CE7DDE9033242
:1028740093427FF43BAF1AE7069B002B63D0069983
:102884004C4BD1F898200132C1F89820D3F8942009
:102894000132C3F8942089E7069B002B60D0069987
:1028A400444BCA6E0132CA669A6E01329A667DE75B
:1028B400069B002B70D006993E4BD1F89420013230
:1028C400C1F89420D3F890200132C3F890209DE7FA
:1028D40039480BF045FBE5E6069B002B4FD00699E3
:1028E400344B8A6E01328A665A6E01325A668DE71B
:1028F400384619F081FE069BB3B12E490698D1F8EB
:102904008C20D0F8903001320133C1F88C20C0F80B
:1029140090306FE75B4604223846012125F07CFFA6
:10292400112D7FF4C4AE0FE7244940F21D13244A4D
:10293400244826F039F8244826F036F840F21D11D0
:102944001F4826F001FA1D49D8231D4A1D4826F0C8
:102954002BF81D4826F028F8D821194826F0F4F958
:10296400164940F20913164A164826F01DF816486F
:1029740026F01AF840F20911114826F0E5F90F493A
:10298400FF230F4A0F4826F00FF80F4826F00CF8E3
:10299400FF210B4826F0D8F90849DD23084A0948E5
:1029A40026F002F8084825F0FFFFDD21044826F050
:1029B400CBF900BF88920710BCA406101490081825
:1029C4004C1609189C0F0818BC0F08182DE9F04F75
:1029D4008BB0BDF850401F460694169BBDF854407A
:1029E4000646884691460594002B00F0228193F90F
:1029F400BC0014F06FF80346169807930DF0BAFC68
:102A04000890DFF8D0B24FF0FF324FF0FF33AE48FA
:102A14000BF0C6F9DBF80050002D5AD0059B2C684A
:102A24005BBA1FFA83FAB5F84030B3424DD195F83A
:102A34004230434549D195F8433003F00402002F56
:102A440000F0C080002A40D03A88022A00F0BE80FC
:102A5400012A3AD1AA8B012A37D179682A6A91428C
:102A640033D1EA8B524530D103F00203B9F1000FA0
:102A740000F0D0804BB3B9F80030022B00F0BB80DB
:102A8400012B22D1AB88012B1FD1D9F80420AB68CC
:102A94009A421AD1069BEA885BBA9BB29A4214D135
:102AA400AB6B002B00F0D880079A002A00F0D4808A
:102AB400B3F8BA20120540F1CF8093F9BC0014F0AA
:102AC40009F8079A824200F0C78014B125462468A9
:102AD400A9E77D480BF044FA4FF0FF334FF0FF3283
:102AE40079480BF05DF9794B1C68002C00F0F480F8
:102AF4000025596822688C4208BF5A601A60256014
:102B040071480BF02DFA002F00F097803B88022BC0
:102B140000F0AC80012B40F0E9807B683A682362C6
:102B2400E2617B68003B18BF01239B0143F004036F
:102B3400B9F1000F05D03A88B9F80010914240F07D
:102B4400B980059A002A51D184F84330179B49462D
:102B54006363189B2046E363169B069AA4F84060BF
:102B640084F84280A363FFF715FC0546002840F073
:102B7400A580199B03B11C6094F8433043F0010312
:102B840084F843304FF0FF334FF0FF324E480BF0E0
:102B940007F9DBF800302360DBF80430CBF80040A1
:102BA400002B4FD048480BF0DBF916980DF0E8FBEA
:102BB40094F8443060F3000384F8443028460BB0A2
:102BC400BDE8F08F002A3FF44CAF7EE7AA8B022ABF
:102BD4007FF47BAF102205F12001381D099325F005
:102BE40077FE099B00283FF43CAF6EE752BAE283BC
:102BF40043F01003A8E7AB88022B7FF466AF1022E2
:102C040005F1080109F1040025F062FE00283FF4F3
:102C140041AF5AE7002B7FF458AF089B002B3FF4D9
:102C240039AFA86B88B10DF0A5FB00283FF432AF93
:102C34004BE7169BCDE90733E3E6059A3B46002AAA
:102C440082D0D3E7CBF80440ACE7069BEA885BBAB2
:102C54009BB293427FF439AF1B480BF081F91C49B6
:102C64000B68580750D16FF06F05A7E73A687B6887
:102C7400B868F968E26123626062A1627B693A69BB
:102C84002363E2627B687BB9BB686BB9FB685BB9A1
:102C94003B69003B18BF01239B0143F00403B9F1D6
:102CA400000F7FF448AF4CE74423B9F1000F7FF4E1
:102CB40042AF46E706490B685B0730D12046FFF771
:102CC40047FB6FF0150579E7BCA40610D48E0710F6
:102CD40040A30610F84B07101B480BF041F91B49A1
:102CE4000B68580725D16FF0010567E717490B6892
:102CF4005A07E3D0164A2B46CDE901522846012251
:102D0400009500F0AFF8D9E7002312480122CDE97D
:102D14000205CDE90033184600F0A4F8A3E7002328
:102D24000D480122CDE901300093184600F09AF8CD
:102D3400C4E70A482346CDE9014001222046009415
:102D440000F090F8CFE700BFBCA4061040A3061023
:102D54006C220918F02109188C220918202209185C
:102D6400204B984238D303F53473984210B5044687
:102D740035D890F84330DB072BD54FF0FF334FF0B5
:102D8400FF3219480BF00CF818490B6843B19C4208
:102D940002D115E09C420BD01A461B68002BF9D1D6
:102DA40011480BF0DDF82046FFF7D2FA002010BDE1
:102DB400236813604B689C4209D000232360EFE72B
:102DC4004A68236894420B60F7D14B60F5E74A6088
:102DD400F3E76FF0010010BD6FF0150070476FF05E
:102DE400150010BDDC8E0710BCA40610F84B0710AC
:102DF40070B50E4CBDF810E0A04211D304F5347444
:102E0400A0420DD80E46194690F84330DB070AD588
:102E140015464663C5637246BDE87040FFF7BABA0B
:102E24006FF0150070BD6FF0010070BDDC8E0710EF
:102E3400084C08B5084940F2E7232246074825F024
:102E4400B3FD074825F0B0FD40F2E721204625F008
:102E54007BFF00BF6C740818A07408189C0F081836
:102E6400BC0F0818002310B586B00A9C0BA8039069
:102E7400059001221846CDE90033029425F084FE22
:102E840006B010BD0369FBB110B50446031FD3E8B7
:102E9400AF3F427D03F0010302F00101994212D0D9
:102EA40063F300020069627533B125F0B9FE20694D
:102EB400BDE810400FF06CB925F0D2FE2069BDE8E2
:102EC40010400FF043B910BD704700BFE8B170B5B2
:102ED40003680446E3B11B689D689DB139B1AA68D3
:102EE4001AB1BDE8704018461047002070BD25F0A7
:102EF400D3FDEB68002BF8D0206800B10068BDE872
:102F0400704018476FF0010070BD00239B68FFDE1E
:102F140000239B68FFDE00BF20B1036813B19B68E8
:102F2400187E704700231B7EFFDE00BF38B50446C1
:102F340000282ED00368002B2DD001229D6818494B
:102F440068612A76281D21F04BFA23682BB3186890
:102F54008368BBB11A695AB19047420503D52B7EE9
:102F640043F004032B762368BBB1186883684BB124
:102F74001B693BB19847C30404D50021094A0A4898
:102F840012F0E8F925F00CFE6B7E43F002036B7639
:102F940038BD2076FFDE1B76FFDE9B68FFDE00BFB8
:102FA40045180410F11904101088071030B5B1F554
:102FB400006F83B00DD048F2DD63994232D1022311
:102FC400012092F8371063F3061182F8371003B02A
:102FD40030BD9368DC682378FF2B26D16378FF2B00
:102FE40023D1A378FF2B20D1E378FF2B1DD12379A4
:102FF400FF2B1AD16379FF2B17D1236903F0F00358
:10300400E02B12D0956901921DF036FB216903680B
:10301400019A994209D0284604F1100110F0E0F910
:10302400019A10B9022003B030BD0123C8E700BFE4
:1030340070B58CB0154604460E4630220021684611
:1030440025F0C6FB01238DF807508DF800303CB104
:10305400236823B3D3E900421A4BA5689A4201D0EE
:103064000CB070BD002DFBD02B69002BF8D020468E
:103074009847C304F4D56D69002DF1D03388012B32
:103084000FD0022BECD143F233333269ADF8013067
:10309400CDF803206A460A212046A847E0E79B684A
:1030A400FFDE5E22ADF8013073798DF8032003F062
:1030B4007F038DF80430B3798DF80530F3798DF8FA
:1030C4000630E7E7C0AA06102DE9F04F8D680646E2
:1030D400EB6883B0BBB32A8A0D2A34D90C4640F27C
:1030E4000360D3F80620B3F80C80C1F826205A896F
:1030F4002E3121F8042CA0841F6898FA98F2C4F8A1
:103104002E7094F82E709B88FF2F1FFA82FAA085E8
:103114006386A2862BD007F00107002E00F02581DC
:103124003368002B00F01D815A7C062A40F0AE80E3
:1031340037B903F11200019325F0CAFB019B20B9B2
:103144004FF000091BE066B13368002B00F0A28049
:10315400186883685B6823B1984710B1436A0133E8
:1031640043624FF0020A504603B0BDE8F08F94F872
:103174002F30FF2B00F0BE804FF0000901270E21F5
:1031840005F10C0025F064FDA368002B00F0CA8053
:1031940000251A8A5B681544002BFAD17C4B7D48C4
:1031A400834200F2E68080F08980998900F1FF3C37
:1031B400ACEB030CC01A51454FF00002DFF8E8E114
:1031C4004FEA1C1C4FEA101002D1596871450FD008
:1031D400824203F1100300F0CC80944502F1010116
:1031E4006CD00A4699895145F2D159687145EFD19D
:1031F400D3F808B0BBF1000FEAD05146224630465E
:10320400D847824678B102289DD048F6886398450D
:1032140009D094F83730C3F30213012B00F09980DE
:10322400022B00F08180002E00F099803368002B7F
:1032340031D0186882685268002A54D0904718B177
:1032440043680E352B444360336823B3186882689F
:103254005268002A47D0904710B1C3680133C36055
:10326400B9F1000F19D1002F3FF47DAF336893B14A
:10327400186883685B68002B3FF475AF9847002893
:103284003FF471AFC3690133C3616CE7002F7FF46E
:1032940057AF5DE700239B68FFDE3368002BFAD04D
:1032A400186883685B68002B3FF45DAF984700287B
:1032B4003FF459AF43690133436154E7002E4ED0C4
:1032C4003368002BE7D0186883685B68002B3FF4F1
:1032D40048AF984700283FF444AFD0F8A8300133F2
:1032E400C0F8A8303DE7B9F1000FD9D1002F3FF461
:1032F4003AAFBCE794F83030FF2B7FF43DAF94F83D
:103304003130FF2B7FF438AF94F83230FF2B7FF449
:1033140033AF94F83390A9F1FF09B9FA89F94FEA68
:1033240059192BE71D4639E7A268D3689B885BBA15
:1033340028339BB22D2B3FF676AF118A994228BFD2
:103344001382526836BF5B1A00239BB2002AF4D161
:1033540069E7A268D3685B885BBA9BB2EAE7B368A3
:10336400FFDE002F96D0994609E7002F7FF4E8AEE0
:10337400F7E609494FF4C073084A094825F014FBDD
:10338400084825F011FB4FF4C071044825F0DCFC1B
:1033940034EB071864EB071884C508184CC50818E3
:1033A4009C0F0818AC160818C0AA06102DE9F0479F
:1033B400074684B0002800F040810368002B00F029
:1033C40021811B688A8ED3F8089056BA8846B6B213
:1033D400B9F1000F00F06881D9F82030002B00F01B
:1033E400608191F83730C3F30213012B00F093800E
:1033F4004546002E00F0518195F82D30002B7FD0EA
:103404000E2128464FF47A72002314F0BFFA0446C2
:10341400002800F00F810E2150F80CAF25F060FA5F
:10342400B6F5C16F09D095F83730C3F30213012BF9
:1034340000F09B80022B00F0E780D5F82E30CAF80C
:1034440000306B8EAAF80430D5F826302146CAF82D
:1034540006306B8D2846AAF80A30AAF80C6014F0DE
:10346400F7F9284614F008F9386800B100682946CD
:10347400D9F8203098470446002840F09180264629
:10348400AB68D3F80C801A8A5B681644002BFAD117
:103494003A68002A00F0B680106883685B688BB1D4
:1034A400984710B10368334403603B68002B00F075
:1034B400A980186883685B6823B1984710B1836852
:1034C4000133836098F80030332B00F0AD80012B7A
:1034D4007FD0FF2B04D198F80130FF2B00F0B88087
:1034E400AB6833B100201A8A5B681044002BFAD110
:1034F4000446284614F0DEFC204604B0BDE8F087FC
:10350400724B18689A889B79C5F82D00A5F831206C
:1035140085F8333074E7B2F5006F7FF469AF8B68D8
:103524008D69DC681DF0A8F8226903689A4200F0EE
:103534008680284604F110010FF052FF024600284D
:103544007DD1D8F80830D9680B6903F0F003E02B7B
:1035540075D04046103125F077F90546002800F073
:10356400B18080456DD1082646E7AA68D1680A690A
:1035740002F0F002E02A7FF460AFAAF800305E2384
:103584008AF802304B7C8AF803308A7C03F07F038C
:103594008AF80420CA7C8AF803308AF8052053E7A5
:1035A4003B68002B2ED0186883685B6823B198476A
:1035B40010B1036A01330362B6F5C16F9CD1404672
:1035C40014F072FBAB683846D968103125F0ACF9B9
:1035D4008FE798F80130002B82D198F802305E2BE7
:1035E4007FF47EAF3B686BB1186883685B68002B1F
:1035F4003FF476AF984700283FF472AF83690133F4
:1036040083616DE79B68FFDEAB68DB681B7EFF2B85
:103614007FF413AF2E4B1B88AAF80030AB68DB682D
:103624005B6ACAF802300FE798F80130332B7FF455
:1036340057AFD7E76FF00B04BEE78368FFDE45465C
:10364400DAE6404614F036FCAE8E76BAB6B2D0E670
:1036540098F80230FF2B7FF443AF98F80330FF2B28
:103664007FF43EAF98F80430FF2B7FF439AF98F81D
:103674000530FF2B7FF434AF3B68002BC2D01868B1
:1036840083685B68002B3FF42BAF984700283FF416
:1036940027AF03690133036122E70E490B685B0717
:1036A40005D16FF0850427E76FF0010424E70A4A87
:1036B4003346CDE9022530460122CDE9006600F00B
:1036C400B7F8EEE76FF00B0416E700BFA4C50818BF
:1036D400C4C508185CA3061030C508180048704714
:1036E400BCC5081810B1006800B18068D0E8EF3F8D
:1036F40023F00102C0E8E12F0029F7D1DB0700D451
:103704007047043021F02ABA10B1006800B1806813
:10371400D0E8EF3F43F00102C0E8E12F0029F7D1E0
:10372400DB0700D57047043021F018BA58B103689C
:103734005BB11868826832B105495B688B4202D17B
:10374400D36903B11847002070479B68FFDE00BFB0
:10375400C0AA061001225E230A808B704378CB70C6
:10376400827803F07F030A71C278CB704A71704784
:1037740043F233330B80C368C1F80230704700BF93
:1037840040B3F0B50D46016804468DB0F9B1086840
:103794008168C1B10969B1B11E4617468847C3049F
:1037A40011D52B68AA88CDF80130ADF80520214643
:1037B40030236A4609488DF800708DF8076025F0BB
:1037C4007BF80DB0F0BD6FF085000DB0F0BD0023A7
:1037D4009B68FFDE00239B68FFDE00BF13000852D6
:1037E400F0B130B5036804468DB0B3B1186883688E
:1037F4007BB11B696BB10D469847C30209D53023D1
:1038040021466A4608488DF8005025F01DF90DB090
:1038140030BD6FF085000DB030BD00239B68FFDE26
:1038240000239B68FFDE00BF110008520020704790
:10383400002310B5064C86B00BA8CDE902400590D4
:1038440001221846CDE9003325F09EF906B010BDDB
:1038540030C508182DE9F04FB1F1000B87B00469A9
:10386400009207DBD4E914134FEAEB708B4570EB3D
:10387400030504D36FF0150007B0BDE8F08F009D79
:10388400B1EB0B0163EB0003A94273F10003F1D325
:103894005A46204694F8481006F056FE45EA0B0AAC
:1038A400CAF30B0A0190BAF1000FE3D1204606F0E7
:1038B40013FF00284FD1BBF1000F59D1236B009A9D
:1038C400B2EB832F00F08D80BDF80060002E53D141
:1038D400009B1F0C2FD040F2031940F205180BEB8C
:1038E400074702AD029694F8481020468DF80C1054
:1038F4002946CDE904668DF80D60ADF80E9006F00A
:103904009FFFCDF808B094F8481020468DF80C10AD
:103914002946CDE904668DF80D60ADF80E8006F0F9
:103924008FFF204600F042FD0BF5803B204606F059
:10393400FFFEBB45D6D1204606F0CEFE18B18AF371
:103944001188BFF36F8FDDE9001024F0BDFF002064
:1039540007B0BDE8F08FEFF3118A202383F31288B8
:10396400BFF36F8F204607F011F8BBF1000FA5D00D
:103974001FFA8BF3002BA7D0009B1F0BDBD0002674
:1039840040F203194FF482780BEB073702AD02962D
:1039940094F8480029468DF80C002046CDE90466C9
:1039A4008DF80D60ADF80E9006F04AFFCDF808B022
:1039B40094F8480029468DF80C002046CDE90466A9
:1039C4008DF80D60ADF80E8006F03AFF204600F049
:1039D400EDFC0BF5805B204606F0AAFEBB45D6D174
:1039E400A9E740F20313CDF808B094F84810204634
:1039F4008DF80C1002A9ADF80E30CDE904BB8DF89A
:103A04000DB006F01DFF4FF48473CDF808B094F8A0
:103A1400480002A98DF80C002046ADF80E30CDE91F
:103A240004BB8DF80DB006F00BFF204600F0BEFC81
:103A3400204606F07DFE7EE700696030704700BFD7
:103A440003461B690020D3E91423C1E9002370470E
:103A54002DE9F04F0469054622464368BBB01B6854
:103A640003F120061868D3F804E0D3F808C0D96835
:103A74001033B3421060C2F804E0C2F808C0D16049
:103A840002F11002EED119685B68116053602046A0
:103A940024F05AFF0746002800F03A82AB4A00237C
:103AA40013920122AA4920461993CDE916331591A0
:103AB4008DF86420149318931A9306F00DFE0028D1
:103AC40040F0348106462046A04B94F8482013A9C0
:103AD40006F0F8FE0028C0F2AC80DFF89C82A02239
:103AE4009C49404624F014FF94F848304246009321
:103AF4002046302313A906F027FE0028C0F299803F
:103B040020461BA900F030FC002874DB1B9B924963
:103B140023F07F428A4200F0EC8158D98F498A42CF
:103B240000F0E18040F297808D498A4240F0F380B2
:103B340042F204220123C8F814208A4ADFF844E23E
:103B4400C8F8502084F84930874B0221C8E900E3C3
:103B5400864B2046C8F81030854BC8F84030854B5A
:103B6400C8F8703000F030FB002844D194F8483095
:103B740004F1280800934146282320467E4A06F093
:103B8400E3FD071E60DB204606F0D2FD204606F06A
:103B9400A3FD18B186F31188BFF36F8F002F53D1A3
:103BA40041462046A36A94F8482006F08BFE00287C
:103BB40040F0B181204606F0BBFD286923A900F03E
:103BC400D3FB002840F092813BB0BDE8F08FA1F513
:103BD4000D2152398A4200F0798162D967498A42BB
:103BE40000F0748140F2AD80654A23F07F4323F4F2
:103BF4008073934277D00DF18C094FF0000A0222B2
:103C0400102340F2091BCDF88CA094F848C00DF1A4
:103C14001C0E49462046CDF894E08DF890C02693BA
:103C24008DF89120ADF892B006F00AFE504580F26E
:103C3400B980204606F07CFD204606F04DFD18B103
:103C440086F31188BFF36F8F204606F045FD0028E8
:103C540000F04C81FEE7A1F5AD3131398A4235D10E
:103C640042F204220123C8F814203E4AC8F8502026
:103C740084F84930434BC8F80030434BC8F804304B
:103C8400424B0521C8F81030133BC8F84030394B7B
:103C94002046C8F8703000F097FA00283FF466AF69
:103CA400A9E7A1F580318A4200F0108122F4803323
:103CB400374A93429FD1E0230DF18C0949462046AF
:103CC400239300F03DFA002897DAFEE701398A428F
:103CD40091D9304923F07F4323F480738B4202D07F
:103CE4002D4B9A4287D1204B26480122C8E9000374
:103CF4001E4B1F49C8F8103042F20423C8F8143090
:103D04001C4BC8F84010BB31C8F8501084F8492047
:103D1400C8F870302AE73FF66EAF204A23F07F439D
:103D240023F4807393427FF466AFDCE7EFF31186EC
:103D3400202383F31288BFF36F8F204606F026FEFC
:103D4400C1E6174B9A42B6D055E700BF80F0FA029D
:103D5400FFFF7F0018570918EF40200020BB210007
:103D6400C2253A00DC0420080A3204263E04200A54
:103D7400210420080504012410B007109D701800C8
:103D840020BA1900EC04200A08320426340420085E
:103D94009D60160020BA200020BA210020BA22001B
:103DA4009D601800BD4B07990222994240F09A8009
:103DB4009DF82730172B3FF63CAF99009DF829302A
:103DC4009DF82A001B0243EA00439DF828000343A0
:103DD4001B9394F848302046CDE91D911BA98DF81A
:103DE40071208DF87030ADF872B006F029FD00280E
:103DF400FFF61FAF494609A805AA05F0D1FF002820
:103E0400C0F215819DF81630990740F1128157468A
:103E1400A34B84F84970C8F87030239B4946C3F318
:103E24004143022B09A803AA14BF1827202706F030
:103E340017F8002800F0AA800DF13C0A5346072227
:103E4400494609A806F09EF800286ADD9DF83D3031
:103E5400022B00F0F080012B60D0002B7FF4E9AE40
:103E64004FF4405342F2046CC8F808C09DF83CC0BB
:103E740049464CEA074C4CF0206C4CF4806CC8F872
:103E840000C09DF83EC01BAA43EA0C4343F04853CC
:103E940043F4007309A83F04C8F8043005F0B0FFE8
:103EA40000287FF463AE9DF86C102046C1F34201F4
:103EB40000F08AF900287FF459AE42F20423C8F8CE
:103EC4001430784B3B43C8F810304FE600230DF113
:103ED4008C0949462046239300F032F90028BFF6A6
:103EE4008CAEFEE7012384F849303FE66FF004000E
:103EF4006AE642F204220123C8F814206A4AC8F888
:103F0400502084F84930694BC8F80030684BB5E656
:103F14006FF0120058E66FF0850055E64FF4C05379
:103F2400A0E753464946062209A806F02BF80028C4
:103F34007FF71CAE9DF83D30042B7FD0022B3FF65B
:103F440078AE5C4AD35C42F20252C8F8082042F2CE
:103F54000412C8F814209DF83C209B0242EA074250
:103F640042F0106242F48062C8F800209DF83E20BE
:103F740043EA024343F0445343F48073C8F80430E3
:103F84004D4B43EA0743C8F81030EFE501224B4B91
:103F940094F848101B934A4B0C901D939DF80C30D9
:103FA40021908DF833208DF8842004AA0D925A06AE
:103FB400CDE91E0004900B900E908DF830101C90EB
:103FC4002090229000F1B4809A063FF535AF13F0AB
:103FD400100B7DD113F0020A32D1D8077FF52CAF34
:103FE40040F2B743C8F8A03094F848302046009314
:103FF400344A30231BA906F0A7FB0028FFF61CAFA8
:104004004FF4206320460BA9CDF838A0ADF8313029
:1040140006F016FC0DF13C0A00287FF40FAF2A4B82
:104024002027C8F84030B833C8F8503006E78DF878
:1040340016A0264BEDE64FF4E05313E7072382E77F
:1040440040F203130DF13C0A8DF84010204651460E
:10405400ADF84230CDE911BBCDF83CB08DF841B09C
:1040640006F0EEFB40F2B743C8F8A03094F84830AD
:1040740020460093134A30231BA906F065FB002851
:10408400FFF6DCAE4FF4206320460BA9CDF838B020
:10409400ADF8313006F0D4FBBEE700BF53464450C0
:1040A4007004012432040008DC042008EC04200A13
:1040B40006320426D0560918A204000880F0FA0239
:1040C400FFFF7F0010B0071020042008050401241E
:1040D400194B2046C8F8A03003F17C43043BC8F8D0
:1040E400B03094F84830154A00931BA9302306F0E9
:1040F4002BFB0028FFF6A0AE02230E9340F602230A
:1041040020460BA9ADF8313006F09AFB0028FFF6E3
:1041140093AE40F60233ADF83130049B204643F0B1
:1041240001030BA904930DF13C0A06F089FB73E724
:104134000DF13C0A73E700BFB504012410B0071069
:10414400002310B501228EB004914FF4857103242D
:104154000C93CDE90933029307930B930D93114B01
:1041640005920693104B8DF8302008930F4A104B9C
:1041740090F848C0C2F8A03090F84830ADF80E105E
:10418400009306A930238DF80D408DF80CC0044629
:1041940006F0DAFA002803DB204602A906F050FBF9
:1041A4000EB010BD80F0FA02FFFF7F0010B00710C0
:1041B400C004012010B40124036958330B60146057
:1041C4005DF8044B704700BF002301222DE9F04144
:1041D400484C94B00C94484C05931293CDE90333A6
:1041E400CDE90F330D9307931193139390F848304F
:1041F4000E9403AC06940D4604468DF817208DF8F2
:1042040048208DF81430062970D8DFE801F06B04DB
:104214005157045D650002264FF40077B0463749D4
:10422400374B384A2046C2F8A010C2F8B03094F890
:104234004830009330230DEB030106F085FA002883
:1042440033DB40F60223204604A9CDF81C80ADF8E8
:10425400153006F0F5FA002827DB002340F203129C
:10426400CDE90A3308938DF8253094F84830204678
:1042740008A9ADF826208DF8243006F0E1FA0028CC
:1042840013DB039B052D08BF1B021F4340F60333BA
:10429400204604A903970796ADF8153006F0D0FA26
:1042A400002802DB204600F081F814B0BDE8F0815C
:1042B40001264027B0461149114BB2E70126802759
:1042C400B0461149114BACE702264FF001084FF4F8
:1042D40000770F490A4BA4E701268027B0460C4912
:1042E4000C4B9EE7002014B0BDE8F0816FF0850010
:1042F400DBE700BF80F0FA02FFFF7F000504012422
:104304000104012010B007103F0401243E040120E1
:1043140035040124310401201AB3002921DB38B506
:10432400006914461D46D0E914234FEAE17C91420A
:104334007CEB030E12D2521A63EB0C03AA4273F104
:1043440000030BD30A4690F8481006F0FDF82A46FD
:104354000146204624F0DCFA002038BD6FF0150039
:1043640038BD6FF015007047002310B54FF4837209
:1043740086B04FF0020CCDE901330323ADF80E20D3
:1043840090F848200C468DF80C2002A901AA8DF85B
:104394000DC00492059306F053FA002803DB019B39
:1043A4001A0C2380A27006B010BD00BF2DE9F041A5
:1043B40000254FF0020840F20717044686B001AE0C
:1043C4000195012394F84820204602A9CDE904630D
:1043D40002958DF80C208DF80D80ADF80E7006F066
:1043E4002FFA28B994F84930019A23B1D207E8D4B6
:1043F40006B0BDE8F0811306E3D506B0BDE8F08150
:104404002DE9F04F89B0019362B100290C4609DB14
:1044140005691E46C817D5E914138C42904670EB03
:10442400030204D36FF0150009B0BDE8F08F091B37
:1044340063EB0003B14273F10003F3D32246284631
:1044440095F8481006F080F8034628469B4606F087
:1044540043F9002861D10390019B002B4CD0CDF887
:1044640008B0002640F2031AA346019FDFF8C49067
:104474002AE0049695F8483004A928468DF81430AB
:10448400CDE906668DF81560ADF816A006F0D8F9EA
:10449400032240F20113CDF810B095F8480004A9A6
:1044A4008DF8140028468DF81520ADF81630CDE9A6
:1044B400069406F0C5F92846FFF778FF284606F06B
:1044C40037F93F1BA34415D05FFA8BF4C4F580740D
:1044D400BC4228BF3C4641462246484624F018FACE
:1044E400284606F0F9F8A0440028C2D0284606F071
:1044F4004DFABEE7DDF808B0284606F0EDF820B125
:10450400039B83F31188BFF36F8F5846019924F0FE
:10451400DBF9002009B0BDE8F08FEFF311830393BA
:10452400202383F31288BFF36F8F284606F02EFAF8
:1045340092E700BFD0B007104FF0806208B50F4B70
:10454400C3F88820BFF34F8FBFF36F8F0C4B1B6AE8
:104554001B070DD50B4B5B6803B19847084A1369D9
:1045640043F0010313614FF08062044B9A6008BD6D
:104574000221BDE80840044824F0BAB900E100E093
:1045840000F83F5404FC0810A8A60610012870B5D2
:1045940037D8B1B3AAB34FF494731B4D044603FB4D
:1045A4000053D878072801D9012070BDD3E90360EE
:1045B4008642F9D000F01F0E0EF1010C0CF01F0C16
:1045C40000F0004003EB8E06E645766928BF00F153
:1045D400004040EA0C001861002EE5D0304624F07B
:1045E40097F94FF494734A2103FB0453DA780020BB
:1045F40001FB0424013205EB8405C5F89460DA70EC
:1046040070BD24F055F900BF3873071001282DE957
:10461400F0413DD800293BD0002A39D04FF4947C96
:104624001C4D04460CFB005C9CF80300072802D9CF
:104634000120BDE8F081DCE903608642F8D000F097
:104644001F0808F1010707F01F0700F0004EB845E6
:104654000CEB8800466926BF0EF1004007434EEA82
:104664000707CCF81070002EE2D0304698474FF47C
:1046740094734A2103FB0453DA78002001FB0424D9
:10468400013205EB8405C5F89460DA70BDE8F08169
:1046940024F00EF93873071008B5024809F078FBC6
:1046A400002008BDF0FB08100023F0B5012885B0F8
:1046B400029300F28B800E46054602A802F030FAFF
:1046C40016F0010654D0424C4FF4947202FB05F5E7
:1046D4004049625D404B414F002A14BF18460846CA
:1046E400C26842F00102C260625D002A08BF0B4644
:1046F400DA6842F00202DA60635D002B14BF4FF007
:1047040080634FF48073C7F88830BFF34F8FBFF3D3
:104714006F8F605D02F074F8002314F805C0304A0E
:10472400DFF8CCE001209C450CBF114671462D4FAB
:104734000B60397800FA0CF021EA000139702A493B
:104744002C44C4E903336370E370A3604B534EB944
:10475400043AAEF10403BCF1000F18BF1A46136803
:10476400002BFCD1029802F0CBFB002005B0F0BD79
:10477400284600F0A5FD4FF4947202FB05F0144C9A
:104784000396235C2718012B20D802FB03435B7894
:10479400022B04D0029802F0B3FB0120E6E703A841
:1047A40002F0BEF93346384605223146009600F041
:1047B4006FFE38B90D4A039813780133137002F071
:1047C4009FFB81E7039802F09BFBE3E724F070F87A
:1047D4003873071020F83F5104F83F5400E100E01B
:1047E40004003841ABFD08103C730710ACFD081001
:1047F40004003C44704700BF0120704708B54FF0E7
:10480400FF324FF0FF33034809F0CAFA003818BFEB
:10481400012008BDF0FB081000232DE9F04F01280A
:104824008BB0089300F2058104464FF4947504FBA1
:1048340005F5814FDFF85C9208A87C5502F070F909
:104844007A5D99F8003007EB0508D340D9070ED5F7
:104854004FF4947304FB03F3FA185278002A61D0DE
:10486400089802F04DFB00200BB0BDE8F08F002A41
:104874007CD0012A06D1714E3378C3F340029B07E2
:1048840040F1BC80204601F0E5FF002840F08E8016
:10489400002C00F08F806A4A4FF08061136943F066
:1048A400010313615A224020664B1A44C3F888114D
:1048B40082F8000399604FF49473002204FB03F31D
:1048C400DFF8D4A103F108014AF8012051444A60F9
:1048D40003F1B8013B44DA704AF8012051444A60BC
:1048E400002C70D1584E06F5805B3146404606F5E3
:1048F400007601F047F9B345F7D14FF494720123E0
:1049040004FB02F2B43502F1B0013D444AF801500F
:1049140051444D60BA5C99F800009340034389F810
:10492400003095E7F95C0992484B494A002908BFD1
:104934001A464849116013688B42FCD109A802F059
:10494400EFF84FF4947303FB04F43D196B784BB9FF
:104954004149385D414A002808BF0A463D4912686A
:104964008A423CD0099802F0CBFA79E7334E337887
:1049740013F0010386D100200021CDE90133049313
:1049840000930323CDE9060103934FF40062344BF3
:10499400344935481BF024F9344B186034491BF072
:1049A40083F9337843F0010333706BE701200BB0D4
:1049B400BDE8F08F2F484FF48071C36A482243F05A
:1049C4000103C3626FE72C4E06F5845B3146404613
:1049D40006F5847601F0D6F8B345F7D18DE70122C8
:1049E40040461946009300F053FD0028BAD1012136
:1049F400224A697013780B441370B3E70020002136
:104A04000323CDE90601CDE9012204920092039328
:104A14004FF400621A4B1B491B481BF0E1F81B4B77
:104A240018601B491BF040F9337843F002033370DC
:104A340028E723F03DFF00BF38730710A9FD0810D5
:104A440000F83F5400E100E0880438410400384194
:104A540004003C4489EFCDAB0000384100003C44E5
:104A6400F1340410B05F0A1028720710ECFB081030
:104A740010B6091800F83F5108153C44ACFD081065
:104A840059350410B0570A1018710710E8FB0810C4
:104A940024B60918ABFD08103C730710012810B5A3
:104AA4000DD8082A0BD803464FF04A0C0CFB0322FE
:104AB400044C002004EB8203C3F8041110BD23F05E
:104AC400F7FE00BF38730710012808B505D8034660
:104AD400034A002042F8231008BD23F0E9FE00BF7A
:104AE40004FC0810012808B50BD84FF49472064B47
:104AF40002FB0033D3E90303C01AB0FA80F0400983
:104B040008BD23F0D5FE00BF38730710012808B58F
:104B140009D84FF49472054B02FB003358780238DD
:104B240018BF012008BD23F0C3FE00BF387307106F
:104B34002DE9F0434FF0FF384FF0FF39134F144E77
:104B4400144D83B0304609F00BFA002203212846A5
:104B5400CDE9008923F0A8FE04460121284624F06B
:104B64000BF82CB93B78002BECD103B0BDE8F083F3
:104B74004FF0FF334FF0FF32054809F011F90020E0
:104B840000F058F83B78002BDCD1EEE7C4CA0918D2
:104B9400F0FB081098A606102DE970434FF0FF387B
:104BA4004FF0FF390E4E0F4D82B0002203212846EC
:104BB400CDE9008923F078FE04460221284623F03B
:104BC400DBFF2CB93378002BEFD102B0BDE8708342
:104BD400012000F02FF83378002BE6D1F5E700BF71
:104BE400C4CA0918A8A6061008B5034809F0B8F9FC
:104BF400003818BF012008BDF0FB0810D0E90332CB
:104C04005A4014D403F01F0C00EB8C0251610CF1D8
:104C1400010202F01F02944503F0004302D2134341
:104C2400C360704703F100431343C3607047D20667
:104C3400E8D170472DE9F04F01289BB0039000F2B2
:104C440084804FF494720027039BDFF8E88202FB10
:104C540003F5B24B05F1B409B14E1D4499442B78C8
:104C6400002B40F0A680B3681A0700F1A282AD4A77
:104C7400136823F00103136095F800C0BCF1000F22
:104C840000F01781D8F80840002CE8D0A64B9B68A8
:104C94000DF1200A13F0010F18BF012704F1200BB6
:104CA400D64620686168A268E36810345C45AEE8C3
:104CB4000F000AF1100AF3D12068CAF800009DF829
:104CC4002040E4B2082CCAD801A353F824F000BF52
:104CD400C33704101F360410813704100F37041033
:104CE4001F360410B53604101F360410B5360410F0
:104CF400FF3704100DF1200E11ACBEE80F000FC4F5
:104D0400BEE80F000FC4D5F818A1DEF80030236008
:104D1400BAF1000F05D09DF8231008A8D04795F8E4
:104D240000C04FF0000A9DF84730BCF1010FDCB21F
:104D3400CDF818A009D84FF49472784B02FB0C3CC0
:104D44009CF80130022B00F0BA8023F0B1FDD5F8B5
:104D540010313BB19DF8231008A898470028F4D1DE
:104D640095F800C00024BCF1010F0594EDD84FF470
:104D740094726A4B02FB0C3C9CF80130022BE4D188
:104D840005A801F0CDFE0123214600930722284601
:104D940009AB00F07DFB002840F0CE80634A059803
:104DA40013780133137002F0ABF82B78002B3FF427
:104DB4005AAFD8F820301B0700F129825C4A57E724
:104DC400D5F80C313BB19DF8231008A8984700286A
:104DD400BBD195F800C04FF0000ABCF1010FCDF82B
:104DE40010A0B2D84FF494704C4900FB0C1C9CF8F2
:104DF4000130022B77D00122039B00FB03131A71AD
:104E0400A3E79DF82330002307939DF8213007A8DA
:104E14005FFA83FA01F084FE0AF1FF330C2B31D8D8
:104E2400DFE813F09D00B000910130004301AC01B4
:104E340030003000F00030000801C1002C00D5F82B
:104E4400B4300A994B4503D10FE01B684B450CD095
:104E54009A689142F9D15C693CB19869BDF83020F7
:104E64000D99A04700287FF470AF28460DA900F0E3
:104E740019FC0446002C3FF4F2AE66E72846099973
:104E840000F080FE079802F03BF84FF49473234A35
:104E9400039903FB0123D3F80431002B3FF4DFAE65
:104EA4009DF8231008A898470446002C3FF4D7AE79
:104EB4004BE7746A002C3FF4D2AE3346E7E606A80B
:104EC40001F02EFE51460A222846009412AB00F04F
:104ED400DFFA002834D1154A069813780133137089
:104EE40002F00EF8BBE6012404A801F019FE5146B5
:104EF4000822284609AB009400F0CAFA20BB0B4AEA
:104F0400049813782344137001F0FAFF4FF494715A
:104F1400024B039A01FB02331C71A0E6387307109D
:104F240000F83F518C24384118F83F54ACFD081068
:104F340088253C4400F83F54059801F0E1FF04E75C
:104F4400069801F0DDFF00E7049801F0D9FF4FF463
:104F54009471B14B039A01FB02331C71F5E62846A8
:104F640000F0D4FB4FF49473039AAB4902FB03F3B0
:104F7400CA5C2846012A08BF02220B4408BF5A70A3
:104F840000F0C4FB4FF494740223A34A03990798D6
:104F940004FB0124637001F0B3FFD4F80431002B47
:104FA4007FF47EAF5BE64FF494739B4A039903FB53
:104FB4000123D3F8B4304B453FF464AF012002E041
:104FC4001B684B450CD0099AD9689142F8D10A9ACA
:104FD400002A00F01E8158741B6801244B45F2D14D
:104FE400002C3FF44FAF4FF494730121039A8A4885
:104FF40002FB03F3C25CC4189140884823F05CFEB2
:105004000798CEE09DF823300798002B3FF43BAF80
:105014000024284623461AAA02EB830353F8441CAF
:10502400FFF7ECFD01349DF82320E3B29A42F2D855
:10503400054627E74FF49473774A0398099903FBCD
:105044000023D3F8B4304B4504D120E11B684B4511
:1050540000F01D819A689142F8D14FF0010A099934
:10506400524683F811A0284600F0E0FA4FF49473F6
:10507400039A044602FB03F3674AD35C0AFA03F17A
:10508400664823F019FE079801F03AFF4FF4947331
:10509400614A039903FB0123D3F80431002B7FF405
:1050A400FFAE002C3FF4DBAD4FE64FF494744FF0A9
:1050B400000A039A5A4802FB04F4574A594B125DFA
:1050C4005949524514BF9C468446534A02EB040B8B
:1050D4008BF801A0DCF80C2042F00102CCF80C2083
:1050E4004D4A125D524508BF0346DA6842F0020297
:1050F400DA60494A135D534514BF4FF080634FF49F
:105104008073C1F88830BFF34F8FBFF36F8F105D8A
:1051140001F076FB404A454B115D454A0834514540
:1051240008BF1346C3F800A0424B43F804A01C4434
:10513400C4F804A0079801F0E3FEDBF80431002B67
:105144007FF4AEAE8BE54FF49473039C344904FBB7
:1051540003F3314C334AE45C0798002C08BF0A4639
:105164002D4C1C44D36823F40033D36001F0C8FEF3
:10517400D4F80431002B7FF493AE70E54FF49474AB
:10518400039B25494FF0010C04FB03146378099A2F
:10519400022B18BF02230798A26084F804C018BF2A
:1051A400637001F0ADFED4F80431002B7FF478AEC7
:1051B40055E51B4A4FF494700399D36800FB01F141
:1051C40043F00103144ED360765C174C002E14BFD9
:1051D4004FF080664FF48076C4F888610E4E164A0C
:1051E400745C164B002C08BF13461A6842F0010287
:1051F4001A602FBB725C002A14BF4FF080624FF418
:105204008072094B9A6000201BB0BDE8F08F054AFC
:10521400D0E75A74D4E600BF38730710D8FB0810DF
:1052240020F83F5104F83F5400E100E004003C44FE
:10523400040038413C7307108C24384188253C44D1
:105244000024164B07945A5C012A3FF67EAD00FBFE
:1052540002304378022BCED107A801F061FC23462B
:10526400284621460322009400F012F918B90C4A8A
:10527400137801331370079801F042FE4FF49473CE
:10528400039A03FB02F21346044AD25CB3E70022FA
:105294002846099900F0CAF90446F4E63873071061
:1052A400ACFD08104FF49471002301FB00F0034A95
:1052B4000830811813504B60704700BF3C730710CF
:1052C40000232DE9F041012884B003935DD84FF405
:1052D400947202FB00F62E4B06F19407F418DFF8E3
:1052E400B48090361F441E44B446002515E003F0F4
:1052F4001F014A1C02F01F0203F00043914204EB19
:105304008100406928BF03F100431A43226140B180
:105314000135082D4CF8040F09D0D4E903239A422F
:10532400E5D1EBB2BBB9002004B0BDE8F08103A81D
:1053340001F0F6FB3B46092200212046009500F0CF
:10534400A7F8D8B998F800300398013388F80030EA
:1053540001F0D6FDC8E703A801F0E2FB3B460922B1
:1053640000212046009500F093F838B9094A0398C3
:1053740013780133137001F0C3FDD4E7039801F0EF
:10538400BFFD012004B0BDE8F08123F091FA00BF15
:1053940038730710ACFD0810F0B5002785B001285C
:1053A400039732D84FF4947C0CFB00F0184D2B5C1F
:1053B4002C18012B29D80CFB03556B78022B03D036
:1053C4000125284605B0F0BD2379002BF8D0002A2A
:1053D400F6D0A06823F09CFA03A801F0A1FB3B4699
:1053E4003A4601212046009700F052F8054630B1B4
:1053F4000125039801F084FD284605B0F0BD054A57
:105404002071137801331370F3E723F051FA00BFCE
:1054140038730710ACFD08102DE9F041002784B063
:10542400012803972DD84FF4947C0CFB00F0164D03
:1054340016462A5C2C18012A23D80CFB02556B78DB
:10544400022B04D00124204604B0BDE8F081884634
:1054540003A801F065FB204643460E223946009618
:1054640000F016F8044638B10124039801F048FD11
:10547400204604B0BDE8F081044A13780133137068
:10548400F3E723F015FA00BF38730710ACFD0810DA
:105494002DE9F04300278BB0DDF848800097B8F180
:1054A400080F7ED80C4616460546212239460DF1D2
:1054B4000700994623F08CF93B4A8DF80440127892
:1054C4008DF805608DF80620082C19D8DFE804F063
:1054D4000559181861184D180E00A6F10903012B7F
:1054E40004D947F6D013F340DB0709D549464FEA00
:1054F400880202A823F00CFA5FFA88F38DF80730CB
:1055040029782A4B2A4A002918BF13469C6814F0AC
:105514000204FBD1684601F003FB2A782348002AE1
:10552400234A08BF02462349234B08BF0B4692680F
:1055340001A9C2F3034202EBC20203EB82039DF80A
:10554400072018469200043223F0E2F9224601466D
:10555400287801F0E5F90446009801F0D1FC201EFA
:1055640018BF01200BB0BDE8F083EC7805F194017D
:10557400A20002A823F0CCF900238DF80740EB70B9
:10558400BEE72B795BB10122AB688DF8072002934B
:10559400B6E701238DF80730CDF80890B0E7204630
:1055A400E0E723F085F900BFACFD081020F83F5177
:1055B40004F83F544802384148023C4430B50024C2
:1055C40085B0012803942AD84FF4947101FB00F0AC
:1055D400144A135C1518012B21D801FB03225378BC
:1055E400022B03D00124204605B030BD03A801F0EE
:1055F40097FA23462246009406212846FFF748FFDF
:10560400044630B10124039801F07AFC204605B029
:1056140030BD054AE870137801331370F3E723F0C3
:1056240047F900BF38730710ACFD08102DE9F041AD
:105634004FF000081546027886B0012ACDF80C8098
:1056440029D80F464FF49471144B01FB02335E7852
:10565400022E04D00124204606B0BDE8F0810446A1
:1056640003A801F05DFA204641460C22009604ABE3
:10567400CDE90475FFF70CFF044638B10124039803
:1056840001F03EFC204606B0BDE8F081044A1378E0
:1056940001331370F3E723F00BF900BF38730710DD
:1056A400ACFD0810F0B50026037885B0012B0396F5
:1056B40026D80D464FF49471124A01FB0322537805
:1056C400022B03D00124204605B0F0BD0446012777
:1056D40003A801F025FA20462B460D2231460097F7
:1056E400FFF7D6FE044630B13C46039801F008FCAF
:1056F400204605B0F0BD044A13783B441370F4E728
:1057040023F0D6F838730710ACFD081030B5002527
:10571400044685B003A8039501F002FA2B46022241
:10572400294620460095FFF7B3FE18B9044A1378BA
:1057340001331370039801F0E3FB05B030BD00BFE3
:10574400ACFD08100023F0B5012885B003934BD8B5
:105754004FF4947606FB00F0244B1D5C1C18012DBD
:1057640042D806FB05335B78022B03D0012528467B
:1057740005B0F0BDD4E903308342F7D000F01F0533
:1057840005F1010C0CF01F0C00F0004004EB850344
:1057940065455E6928BF00F1004040EA0C002061C5
:1057A400002EE3D0002AE1D00127304623F0B0F8E0
:1057B40003A801F0B5F933460022042120460097DE
:1057C400FFF766FE054648B9094A13783B4413704F
:1057D400039801F095FB284605B0F0BD31462046FC
:1057E400FFF70CFA3D46F3E723F062F8387307102D
:1057F400ACFD081038B5037C012B16D0B1F5007F41
:1058040016D84FF494720B4D02FB0355284600F052
:1058140063F848B90A24012002F0BCFA284600F0D3
:105824005BF808B9013CF6D138BDB1F5847FE8D9FD
:1058340023F03EF838730710002310B582B00193AB
:10584400002832D0044601A801F06AF94FF4947399
:10585400227C174903FB02F28B18D3F8B430B4321C
:105864000A449A42A06803D118E01B689A4215D0F2
:1058740099688842F9D19A4217D01A683AB159689E
:1058840029B100200A6059685160186058600024EA
:10589400019801F035FB204602B010BD01240198A7
:1058A40001F02EFB204602B010BD23F001F800BF2A
:1058B40038730710012070470120704738B14FF446
:1058C400947C027C03480CFB0200FFF7EBBE08B596
:1058D40022F0EEFF3873071030B50446002583B07C
:1058E40001A8019501F01CF92378012BD4E92F2399
:1058F40017D09A420FD003F0070104EB8102D2F8CB
:10590400C4504A1C02F00702914203F0004317D22C
:105914001A43C4F8C020019801F0F2FA284603B0F3
:1059240030BD9A42F7D003F00F0104EB8102D2F8A4
:10593400C4504A1C02F00F02914203F00043E7D323
:1059440003F10043E4E700BF00232DE9F04786B0EC
:105954000393002800F0B8800E46002900F0B480BC
:105964000B7B012B00F2B0805B4D044603A801F0D1
:10597400D7F82B787BB3307BFEF74EFF0128054622
:1059840021D04FF494730022377B2774307807FBBF
:1059940003F3A0607178E16071686161B1684F4E92
:1059A400A161627403F1B401226062603344D3F8EC
:1059B400B43031448B4203D113E01B688B4210D0C6
:1059C4009A689042F9D1039801F09AFA0125284681
:1059D40006B0BDE8F087424823F07AF901232B7022
:1059E400C9E78C4270D04FF4947909FB0767D7F864
:1059F400B8301C602160D7F8B83003986360C7F8EA
:105A0400B84094F8108001F07BFA09FB08F7F35DC5
:105A14003744012B06D957E0012002F0BBF93B784B
:105A2400012B51D809FB03635B78022BF4D1637C0F
:105A3400002BCCD14FF4947909FB08681BE00125B5
:105A44004FF0010A039801F05BFA98F800109FEDFB
:105A5400207B0AFA01F100228DED007B204822F020
:105A640023FF98F800300AFA03F11D4823F084F864
:105A7400637C002BABD1002503A801F051F898F802
:105A84000030E268012BCDE904251DD809FB03632E
:105A94005B78022BD3D14FF0010A05A801F040F83E
:105AA40029460B22384604ABCDF800A0FFF7F0FCE2
:105AB400054638B90B4A137853441370059801F01E
:105AC4001FFABDE75546F9E722F0F2FEAFF3008076
:105AD400FFFFFFFFFFFFFFFFAAFD08103873071049
:105AE400D8FB0810ACFD081003460020C3E90512DA
:105AF400704700BF2DE9F041002788B0029788B1B4
:105B04000E4679B14FF4947C0446007C1B4B0CFB8D
:105B140000F0195CC518012904D80CFB01335B782B
:105B2400022B01D022F0C4FE637C002BFAD002A821
:105B3400904600F0F5FF4FF0050CE3682846049307
:105B4400A3683A460393082103ABCDF800C0ADF82F
:105B54001880ADF81A700796FFF79AFC044638B11E
:105B64000124029801F0CCF9204608B0BDE8F08188
:105B7400034A137801331370F3E700BF3873071037
:105B8400ACFD081030B50023044683B001A801938E
:105B94000D4600F0C5FF2378012BD4E92F321DD028
:105BA4005A4014D403F0070104EB8102C2F8C45034
:105BB4004A1C02F00702914203F000431DD2134332
:105BC400C4F8BC30019801F09BF903B030BD520712
:105BD400E8D1019801F094F903B030BD5A4016D4CD
:105BE40003F00F0104EB8102C2F8C4504A1C02F016
:105BF4000F02914203F00043E1D303F10043134346
:105C04000198C4F8BC3001F07BF903B030BD110732
:105C1400D8D0E5E700232DE9F04389B00293A0B181
:105C24000F4691B115464FF4947290F81090DFF836
:105C3400C08002FB09F318F803300446012B04D892
:105C440002FB03835B78022B01D022F031FE437CFC
:105C5400002BFAD0B9F1010F39D0B5F5007FF4D893
:105C640029462046FFF7C6FD0646002839D04FF4E2
:105C7400947302A803FB098800F052FF2A463946B0
:105C8400304622F045FEADF8185005250022E368A1
:105C940008210493A36840460393009503AB079639
:105CA400ADF81A20FFF7F4FB044650B90F4A1378F5
:105CB40001331370029801F023F9204609B0BDE8BE
:105CC400F08331464046FFF75DFF0124F2E7B5F566
:105CD400847FBAD829462046FFF78CFD0646002863
:105CE400C5D10124204609B0BDE8F083ACFD0810FD
:105CF40038730710C307014602D5034822F0F8BDE4
:105D0400024822F0F5BD00BF98A60610A8A606100A
:105D14004FF480710A4AC2F88810BFF34F8FBFF363
:105D24006F8F084B9868000703D40121064822F0BE
:105D3400DFBDD86A40F00100D8629160704700BFAF
:105D440000E100E000F83F5198A6061008B540F6BF
:105D54000A030B4006D00246080505D541F6593022
:105D6400536108BD184608BD080702D541F65A30EC
:105D7400F6E7890748BF41F65B30F1D422F098FD7D
:105D8400036843F0010303600368DB07FCD4704736
:105D9400024A034B11681B6802481847D0EB0810ED
:105DA400CCEB08100040135010B5B8B34E220021BC
:105DB400044622F00DFD4FF6FF734FF0200C4FF414
:105DC400803140F6FF02082084F816C0C4F80110A0
:105DD40063810021A281A0733022A374A38204F101
:105DE400180022F0F5FC234601214FF00F0C00228D
:105DF40004F12400197783F819C05A8306339842B2
:105E0400F8D14FF4807384F8401084F84610A264EB
:105E140084F84C20E387A4F8443010BD22F048FDF8
:105E240008B5034B984201D022F042FD002008BD82
:105E340000401350F8B55A4B984201D022F038FD77
:105E4400054610200C4622F047FF2B6823F002037E
:105E54002B602B6843F001032B602A6812F00102C7
:105E6400FBD1237B2178E0781B04090143EA00334A
:105E740001F030010B43A17CA44643EA016361783D
:105E840043EA8133217943EAC123A17843EA4133C8
:105E9400217C43EAC113617C43EA811343F002038A
:105EA4002B606189A38A43EA01436B60A8683D4B78
:105EB400A17D034043EA0163A17994F8480043EAD1
:105EC400C153E17943EAC143217A43EAC133617999
:105ED40043EAC023490501F4C0010B43AB60EB68FE
:105EE40094F8491023F0780343EA811394F84A1094
:105EF40043EA411394F84B1043EA011394F84C100D
:105F040043EAC103EB60284D900000F1A04000F586
:105F14009A109CF81860036A9CF81C709CF819107D
:105F24002B403606BCF81AE043EAC77306F0E06675
:105F34000904334301F470210B43CEF3C70E01323D
:105F44004EEA0303082A03620CF1060CDCD100219B
:105F5400134BD3F8B82022F4FE72C3F8B820A27B06
:105F6400D3F8B800D208013A920002F4FE72024358
:105F7400C3F8B820D3F8BC2022F4FE72C3F8BC20C6
:105F8400627BD3F8BC00D208013A920002F4FE729C
:105F94000243C3F8BC20196659669966D966F8BDF0
:105FA40000401350FF77F70000FFF0782DE9F0412F
:105FB400D0F8B850C5F38605002A71D00135EE003B
:105FC4006D000346944614BFB0464FF0040840F6F3
:105FD4000A0E2027664516D940F60A02D3F8F000C7
:105FE400C0B2BCEBC00F41D9586910EA0204F5D025
:105FF40007051AD4060736D4850732D541F65B3037
:106004005C61BDE8F0815869820611D410EA0E0281
:10601400F9D0040506D401071ED541F65A305A6159
:10602400BDE8F08141F65930F9E741F65930E7E728
:10603400586910EA0E02ECD1084602F1400453F804
:1060440024400132954240F8044BF6D8BCEB060CD0
:106054005F614144BED123E0810748BF41F65B3014
:10606400DDD422F025FC41F65A30C9E740F60A0295
:1060740058690240CDD15FEA9C0513D01046AE00AA
:1060840001EB850E00F1400453F82440013041F83F
:10609400044B7145F6D1BCEB060C04D120225A61A5
:1060A4000020AEE78E46403553F82500F44420FA2C
:1060B40002F10EF8011BF44502F10802F7D1EDE7F5
:1060C400F8B50C465508D0F8E0309E07FBD5D0F85B
:1060D400E030D907F7D5217BA36843EA417300EB8D
:1060E40082010B66637CE68903F01F0343EA0643DF
:1060F400667B277DF603B6B243EA87233343267CC7
:10610400760106F478763343E67CF60206F4F0462C
:1061140033430B67637E678B334E1B0706EA0746E0
:1061240003F0E0433343D1F88070304E3E403343B4
:10613400A67D5EB194F815C0013E76034FEA0C2C9F
:10614400B6B20CF4706C4CEA06063343267E4EB1AC
:1061540094F817C0013E7601F6B20CF00F0C46EA33
:106164000C063343C1F88030214600F03BFA036843
:1061740043F002030360237F03B3D0F8943023F089
:106184000103C0F89430D0F894300DBB23F004031D
:10619400C0F89430D0F89430227F43EA8203C0F8E8
:1061A4009430036823F002030360D0F8E0309A07C8
:1061B400FBD5D0F8E030DB07F7D5F8BDD0F8943044
:1061C40043F00103C0F89430D0F89430002DDDD0B2
:1061D40023F00803C0F89430D0F89430227F43EAC7
:1061E400C203C0F89430DCE70000FF0F10100080F9
:1061F40008B541B10022036923F4066323F00B03BD
:1062040003610A6008BD22F053FB00BF38B51F25A7
:106214000B79044600EB8303D3F8802042F000425C
:10622400C3F8802045610B68C0F8A030D0F8BC30BA
:1062340043F00103C0F8BC30D0F8B83043F0010398
:10624400C0F8B8304B798A79013B022B88BF002013
:10625400CB794FEA024203F1FF334FEA036398BF5D
:10626400888902F4702203F0E06313430343C4F803
:10627400A430D4F8B03043F00103C4F8B0304B7903
:1062840003F0FD02012A17D0022B1BD00020636902
:10629400DD07FCD500B138BD40F60A03626913403E
:1062A400F9D0100514D4110716D4920748BF41F64B
:1062B4005B300FD422F0FCFA2046D1E9021200F040
:1062C4002DFAE4E72046D1E90212FFF76FFEDEE77C
:1062D40041F65930636138BD41F65A30FAE700BFE0
:1062E40010B511B10A4CA04201D022F0E1FA00200D
:1062F400C1E90423074C084B084A21601A6008606E
:1063040048608860C8604FF48062054B5A6010BDD5
:1063140000401350D0EB0810CCEB0810014D0410D2
:1063240000E100E008B549B10B682BB1D1E90213D3
:106334005B1A0020136008BD062008BD22F0B8FADD
:106344002DE9F041466903691E4201D1BDE8F0819F
:1063540040F60A03334004460D460AD0310556D4AC
:1063640032076BD4B70748BF41F65B3251D422F0F1
:106374009FFAB00632D4F20763D47306E6D52B68CD
:10638400012BE3D1AA68002AE0D0D4F8BC10C1F3F1
:1063940086010131B2EBC10F4FEAC10680F0A5803E
:1063A400910800F0B38000216868026801F160037D
:1063B40044F823206B68AA6801310433B1EB920FCF
:1063C40018466B60F1D3A2EB8102AA60002A40F068
:1063D4009E8000234022AB606261B7E72B6806F021
:1063E4000100022B37D00028C7D0012363610022AB
:1063F400236923F4066323F00B0323612F692A60C6
:10640400002FA3D0294620466B69B847B5E741F66B
:10641400593263612B69CBB10021236923F40663EC
:1064240023F00B0323612E692960002E8ED02046B1
:106434002946B4466B69BDE8F041604741F65A32DB
:10644400E7E7012363610029D1D190E7B006C5D401
:10645400F10792D5C9E7D4F8B810C1F386014B1CF3
:10646400A9684FEAC30CB1EBC30F2BD28A0810D032
:1064740000226B6802F1400154F8211001321960C6
:106484006B68A9680433B2EB910F6B60F2D3A1EB94
:106494008201A96071B10023403254F822C06968B6
:1064A400DA002CFA02F24F1C6F600A70AA680133FA
:1064B4009A42F4D80023AB602023636100283FF4A0
:1064C4005CAF92E7002259006B6802F1400754F870
:1064D400277001321F606B68914203F104036B6003
:1064E400F3D1AB68A3EB0C03E5E700226B6849002A
:1064F400186802F1600344F823006B680132043326
:1065040091426B60F4D1AB689B1B63E76B68002618
:1065140037461A4401336B6013F8010C934200FAB6
:1065240006F047EA000706F10806F3D1603144F8A3
:1065340021704EE770B5002951D0002A4FD00C6865
:10654400002C49D193681F264B60D3688B60CB60C5
:106554005379022B14BF012302230B60137900EB40
:106564008303D3F8805045F00045C3F8805046615A
:106574001368C0F8A030D0F8BC3043F00103C0F871
:10658400BC30D0F8B83043F00103C0F8B8305379C8
:10659400023B012BD37998BF94899279013B1B0666
:1065A400120402F4702203F0E06313432343C0F89F
:1065B400A430D0F8B03043F00103C0F8B0300B6819
:1065C400022B03690CBF43F4026343F4046343F0F6
:1065D4000B030361002070BD41F6583070BD22F0FA
:1065E40067F900BF5208D0F8E0309B07FBD5D0F81C
:1065F400E030DB07F7D50368C3F3011CBCF1030FDC
:1066040009D04FF48073303240F82230036823F00D
:106614000203036070470B79002BF2D110B51D4BB8
:106624000C689C421DD84FF47A7E91F812C01A4B24
:106634000EFB0CFCA3FB0C13DB0803EB8301C1EB87
:1066440001118C4588BF01335B0203F4FC4343F41E
:106654008073303240F82230036823F00203036071
:1066640010BD7921002A18BF4FF4403C02F13003D9
:1066740040F82310036823F002030360D0F8E830E5
:106684003CEA0303FAD1642300BF013B13F0FF0388
:10669400FAD110BDFFE0F505B5814E1B3F2910B5B9
:1066A40020D8D0F8E040A407FBD5D0F8E040E407B8
:1066B400F7D50D4C80318461022400EB810CC46158
:1066C4005BB14FF0000E52F8044B0EF1010E73450E
:1066D400CCF800400CF1040CF5D10123024A82618C
:1066E400C36110BD22F0E4F8F05AF05AD0F8E0305B
:1066F4009B07FBD5D0F8E030DA07F7D502680B0129
:1067040022F0300203F0300313430360036843F0C4
:10671400010303600368DB07FCD470472DE9F843E9
:10672400D0F8BC30C3F3860E002A3BD00EF1010E24
:106734004FEACE075FEA4E0E84460D46144614BF58
:10674400B9464FF0040940F60A064FF04008DCF859
:1067540014305A06FBD513EA06020CD0180534D4BB
:10676400190748D49B0748BF41F65B3046D5CCF89F
:106774001420BDE8F883A74217D9A60829D01346E8
:10678400284603F1600E50F8041B0133B3424CF861
:106794002E10F6D1B4EB83044FEA830118D14023C1
:1067A400CCF814300020BDE8F8832B4602F16000D9
:1067B40053F8041B013296454CF82010F6D8E41B1C
:1067C400CCF814804D44C2D1ECE741F65930CEE701
:1067D4000D4400212C4415F8013B8B40AC4242EAA5
:1067E400030201F10801F6D1402360364CF826205B
:1067F400CCF81430D6E741F65A30B8E722F058F80E
:10680400704700BF064A074B002808BF1346DA68E2
:1068140042F48032DA60DA6822F48032DA60704757
:1068240020F83F5104F83F5430B9074B1A469B6A8D
:10683400906843EA00207047044A054BDB6890687F
:1068440043EA0020704700BF00F83F5118F83F5456
:1068540000F83F54012822D8124A0028124B18BFCE
:10686400134602F11402114918BF1146DA6842F4C2
:106874008032DA60DA6822F48032DA60DA6822F48C
:106884000032DA60DA6842F47002DA608A6810076B
:1068940003D45A688A681207FBD500207047042085
:1068A400704700BF04F83F5420F83F5100F83F51AF
:1068B40030B51D46174B00281748184C18BF1C4606
:1068C400A3F114030CBF86469E460020A36813F46C
:1068D400F87FC3F3041C01D1DB0716D4B2B194458D
:1068E400A8BF94466044A2EB0C02BCF1000F09D08F
:1068F40001EB8C0CDEF8043041F8043B6145F9D11E
:106904006146E3E78C466146E0E7012205B12A705F
:1069140030BD00BF18F83F5420F83F5100F83F51F4
:1069240010B40F4B0F4C002814BF9C46A446DCF84F
:106934000830D80711D4DCF808309B07FBD42AB9F7
:106944000020CCF800105DF8044B7047DCF80C30E4
:1069540043F40033CCF80C30F2E74FF0FF30F2E7A9
:1069640004F83F5420F83F5130B5141E36DD1D465F
:106974001D4A1E4B002814BF94469C46DCF8083080
:10698400DB072DD4B4F1010E16D0DCF80820C2F3D5
:106994000412C2F10F027245A8BF7246AEEB020E9A
:1069A4003AB101EB820251F8043B8A42CCF8003040
:1069B400F9D1BEF1000FE8DC2DB1DCF80C3043F462
:1069C4000033CCF80C30DCF80830C3F304130F2B7D
:1069D400F9D00B682046CCF8003030BD002030BD23
:1069E4004FF0FF3030BD00BF04F83F5420F83F5152
:1069F40030B51D46164B0028164C18BF1C46A3F193
:106A0400140318BF9E461448A36808BF864613F4AF
:106A1400F87F4FF00000C3F3041C14D0AAB19445CE
:106A2400A8BF94466044A2EB0C0201EB8C0CDEF888
:106A3400043041F8043B6145F9D1A36813F4F87FAD
:106A4400C3F3041CEAD103F0010205B12A7030BD7E
:106A540018F83F5400F83F5120F83F51002A39DD1F
:106A640030B51D46214C224B002814BFA6469E4635
:106A7400DEF8080010F0010034D1541EDEF80820BE
:106A8400C2F3041CDCF10F0C26D03CB3A445A8BF10
:106A9400A4460A46A4EB0C04604401EB8C0152F8B2
:106AA400043B8A42CEF80030F9D1DEF80820C2F364
:106AB400041CDCF10F0C0CD0002CE7D101302DB1FB
:106AC400DEF80C3043F40033CEF80C300B68CEF80B
:106AD400003030BD00207047604630BD0120002DDD
:106AE400F4D0EDE74FF0FF3030BD00BF04F83F5461
:106AF40020F83F5172B6024A13680133136070479D
:106B0400B4B8071012F02EBA034A13681BB1013B44
:106B1400136003B962B67047B4B8071012F096BA9E
:106B240008B540B1EFF31183202282F31288BFF33A
:106B34006F8F036008BD0649C523064A064821F045
:106B440033FF064821F030FFC521024822F0FCF84B
:106B54003C6C0918E46B09189C0F0818506C091850
:106B640008B538B1124A4369934212D122F004F8AD
:106B7400002008BD0F4940F2CB230F4A0F4821F0F3
:106B840013FF0F4821F010FF40F2CB210A4822F0F6
:106B9400DBF808494FF43373074A084821F004FF2F
:106BA400084821F001FF4FF43371034822F0CCF878
:106BB400035AA005F4100818E46B09189C0F081870
